:020000040800F2
:10000000B0FC0020B157000885550008875500084E
:100010008B5500088F55000893550008000000001C
:1000200000000000000000000000000097550008DC
:100030009955000800000000132500089B55000892
:10004000CB570008CB570008CB570008CB57000808
:10005000CB570008CB570008695C0008875C000894
:10006000A55C0008C35C0008E15C0008CB570008F1
:10007000CB570008CB570008CB570008CB570008D8
:10008000CB570008CB570008CB570008CB570008C8
:1000900055610008CB570008CB570008FF5C0008EB
:1000A000CB570008CB570008CB570008CB570008A8
:1000B00007590008215900083B590008CB57000890
:1000C000CB570008CB570008CB570008CB57000888
:1000D000CB570008CB570008CB570008CB57000878
:1000E0008D5D0008CB570008CB570008CB570008A0
:1000F000CB570008CB570008CB570008CB57000858
:10010000CB570008CB57000855590008CB570008BB
:10011000CB570008CB5700086F59000889590008D1
:10012000CB570008CB570008CB570008CB57000827
:10013000DFF80CD00EF0D8FF0048004759E5000862
:10014000B0FC002031490143314A1160704770B55D
:10015000002100230F22C47804B32D4C246804F43A
:10016000E064C4F5E064210AC1F10403CA404478A4
:1001700004FA03F18478144021430901254C0678E0
:10018000A155047804F01F050124AC4005786D11D9
:10019000AD0005F1E025C5F8004109E0047804F060
:1001A0001F050124AC401C4D0678761145F8264009
:1001B00070BD1A4A0A400243154B1B1F1A60704754
:1001C00039B1134A121D12680243114B1B1D1A60EC
:1001D00006E00F4A121D126882430D4B1B1D1A6068
:1001E0007047042808D14FF0E021096941F004016B
:1001F0004FF0E022116107E04FF0E021096921F0A2
:1002000004014FF0E0221161704700000000FA0580
:100210000CED00E000E400E080E100E080FFFF1F63
:1002200010B5012001F09AF9002001F097F910BDF6
:100230002A49086070472949091F08607047274903
:1002400084310860704701460020254A10884FF627
:100250007F4210400843224A108070470146002028
:100260001F4A10884FF68072104008431C4A1080C5
:10027000704708B500220092194A2C3A0092009A61
:1002800002440092009A116008BD08B501460020A2
:10029000009013482C380090009808440090009873
:1002A000008808BD0D489C300068C0B270470C48FB
:1002B0000830008840F00100094908310880704783
:1002C0000648A0300068C0B2704705480830008872
:1002D00040F00200024908310880704704860D4250
:1002E0002C6C004010B50446FE48844209D101211F
:1002F000480601F026F900214FF0007001F021F9C5
:1003000008E00121880601F01CF900214FF080600F
:1003100001F017F910BD30B5024600200023146823
:1003200024F002041460146844F00104146000E036
:100330005B1C546804F001041CB94FF6FF74A3421F
:10034000F6D1546804F001040CB900206CE08C79FB
:10035000012C04D1146844F08004146003E0146894
:1003600024F080041460CC79012C04D1146844F08A
:100370004004146003E0146824F0400414600C7A14
:10038000012C04D1146844F02004146003E01468C4
:1003900024F0200414604C7A012C04D1146844F039
:1003A0001004146003E0146824F0100414608C7AC4
:1003B000012C04D1146844F00804146003E01468AC
:1003C00024F008041460CC7A012C04D1146844F0A1
:1003D0000404146003E0146824F0040414608C78AE
:1003E000A407CD7844EA05640D7944EA05444D79C3
:1003F00044EA05540D886D1E2C43D461146824F022
:1004000001041460002300E05B1C546804F0010444
:100410001CB14FF6FF74A342F6D1546804F00104F6
:100420000CB1002000E0012030BD10B50021837A1E
:10043000012202FA03F1AC4A126842F00102AA4B0F
:100440001A60A94A1C3212688A43A74B1C331A60EF
:10045000027BCAB9A44A0C3212688A43A24B0C33FD
:100460001A604288C38842EA03439F4A4032847A32
:1004700042F834300288838842EA03439A4A403281
:10048000847A02EBC4025360027B012A19D1964A96
:100490000C3212680A43944B0C331A60428803886A
:1004A00042EA0343904A4032847A42F83430C288A8
:1004B000838842EA03438C4A4032847A02EBC402C6
:1004C0005360C27A3AB9884A121D12688A43864B31
:1004D0001B1D1A6006E0844A121D12680A43824BF3
:1004E0001B1D1A60028932B97F4A143212688A438E
:1004F0007D4B14331A600289012A06D17A4A1432DC
:1005000012680A43784B14331A60427B012A06D1E1
:10051000754A1C3212680A43734B1C331A60724AC4
:10052000126822F00102704B1A6010BD0021817127
:10053000C171017241728172C1728170C1700321F7
:1005400001710221417101210180704766490968EA
:1005500041F00101644A11601146096843F60E72C8
:100560009143614A11601146096841EA0021116016
:100570001146096821F001011160704721B102683C
:1005800042F48032026003E0026822F480320260AA
:100590007047E1B1026842F0800202604FF4C2721B
:1005A000125842F480734FF4C27213504FF4CA725F
:1005B000125842F480734FF4CA7213504FF4D2723F
:1005C000125842F480734FF4D27213501BE0026849
:1005D00022F0800202604FF4C272125822F480733B
:1005E0004FF4C27213504FF4CA72125822F480733F
:1005F0004FF4CA7213504FF4D272125822F480731F
:100600004FF4D2721350704710B502460020936821
:1006100003F08063B3F1806F00D110E0936803F0C2
:100620000063B3F1006F01D1012008E0936803F08B
:100630008053B3F1805F01D1022000E00420042840
:1006400079D002F5C07303EB00131B6803F00104BB
:1006500002F5C07303EB00131C600B7A7BB94B7A75
:100660000C8843EA445302F5C07404EB0014246878
:10067000234302F5C07404EB0014236010E00B7AEE
:100680004C6843EAC4034C7A234302F5C07404EB7C
:1006900000142468234302F5C07404EB00142360A3
:1006A0008B7A03F00F038B7202F5C07303EB001318
:1006B0005B6823F00F0402F5C07303EB00135C606A
:1006C00002F5C07303EB00135B688C7A234302F5D9
:1006D000C07404EB001463608B7B1C064B7B44EA04
:1006E000034403E000640040006600400B7B44EAE2
:1006F0000323CC7A234302F5C07404EB0014A360F7
:100700008B7C1C064B7C44EA03440B7C44EA0323A9
:10071000CC7B234302F5C07404EB0014E36002F5C4
:10072000C07303EB00131B6843F0010402F5C073B0
:1007300003EB00131C6010BD10B50246002321B16D
:10074000012907D002290FD109E09068F94C00EA8D
:1007500004030BE09068F84C00EA040306E090689C
:10076000F64C00EA040301E0002300BF00BFF44C94
:10077000181BA34216D007DC83B16FF080601844C9
:1007800070B1022818D111E0B0F5007F10D0ED4C07
:10079000204448B1B0F5003F0ED10BE002230DE03C
:1007A00000230BE0002309E0002307E0012305E01C
:1007B000012303E0012301E0002300BF00BFD8B202
:1007C00010BD21B1012907D002290FD109E08268AB
:1007D00042F0800282600AE0826842F40042826055
:1007E00005E0826842F40002826000E000BF00BFC2
:1007F000704710B500F5D87303EB01131B6803F0C5
:1008000004031372137A53B900F5D87303EB011381
:100810001B6840F2FF7404EA5353136009E000F5CB
:10082000D87303EB01131B686FF0604404EAD30331
:10083000536000F5D87303EB01131B6803F0020348
:10084000537200F5D87303EB01135B6803F00F03D9
:10085000937200F5D87303EB01135B681B0AD37422
:1008600000F5D87303EB01139B68D37200F5D873BE
:1008700003EB01139B681C0A147300F5D87303EB98
:1008800001139B681C0C547300F5D87303EB011320
:100890009B681B0E937300F5D87303EB0113DB68A1
:1008A000D37300F5D87303EB0113DB681C0A1474CF
:1008B00000F5D87303EB0113DB681C0C547400F5CE
:1008C000D87303EB0113DB681B0E937421B9C36863
:1008D00043F02003C36003E0036943F02003036196
:1008E00010BD21B9C26842F02002C26003E0026973
:1008F00042F02002026170470246002019B9D36815
:1009000003F0030006E0012903D1136903F003009B
:1009100000E00020704710B502460B4600204FF65D
:10092000FF71BBB9146824F0020444F001041460A0
:1009300000E0491E546804F00304012C01D0002992
:10094000F7D1546804F00304012C01D0002032E0F8
:10095000012030E0012B13D1146824F0030414604B
:1009600000E0491E546804F003040CB10029F8D1DA
:10097000546804F003040CB100201CE001201AE0CC
:10098000022B17D1146824F0010444F0020414600F
:1009900000E0491E546804F00304022C01D0002931
:1009A000F7D1546804F00304022C01D0002002E0C7
:1009B000012000E0002010BD014600200A6822F05E
:1009C000010242F002020A604A6802F00302022AAF
:1009D00000D10120704701464FF6FF7200200B68DE
:1009E00023F002030B6000E0521E4B6803F0020389
:1009F000022B01D1002AF7D14B6803F00203022B2E
:100A000000D001207047014600208A6902F0700082
:100A10007047014600208A69100E70470146002089
:100A20008A69C2F3074070471AB143690B434361B7
:100A300002E043698B434361704710B502460020D2
:100A400001F4700343B19369C1F3130423400BB164
:100A500001202DE000202BE001F0807343B15368AA
:100A6000C1F3130423400BB1012021E000201FE05B
:100A700001F0006343B19368C1F3130423400BB149
:100A8000012015E0002013E001F0007343B1D368AA
:100A9000C1F3130423400BB1012009E0002007E05B
:100AA0001369C1F3130423400BB1012000E00020BF
:100AB00010BD0022244B994202D10023836111E032
:100AC000C1F3130201F000730BB1C2600AE001F040
:100AD00080630BB1026105E001F000630BB182603D
:100AE00000E0426070470246002002EA01030BB1B9
:100AF000012000E00020704770B504460D46002636
:100B000060692840002872D0B5F5807F69D01DDC6F
:100B1000082D42D006DC012D2DD0022D31D0042D20
:100B20007FD134E0102D3ED0202D42D0402D78D101
:100B300045E000000300000400030008000003106B
:100B4000000100080001FFF77000F030B5F5004F1C
:100B500061D009DCB5F5007F4AD0B5F5806F4DD086
:100B6000B5F5006F5DD150E0B5F5803F2DD0B5F5FE
:100B7000003F56D12FE0A0685549FFF7B4FF064665
:100B800051E0E0680321FFF7AEFF06464BE0E06866
:100B90000821FFF7A8FF064645E0E0681021FFF7AF
:100BA000A2FF06463FE020690321FFF79CFF0646AF
:100BB00039E020690821FFF796FF064633E02069F7
:100BC0001021FFF790FF06462DE060680821FFF72F
:100BD0008AFF064627E060681021FFF784FF06467B
:100BE00021E0A0690121FFF77EFF06461BE01BE024
:100BF000A0690221FFF777FF064614E0A0690421EF
:100C0000FFF771FF06460EE00BE0A0697021FFF7C9
:100C10006AFF064607E060680421FFF764FF0646A6
:100C200001E0002600BF00E00026304670BDB1F5AF
:100C3000007F3AD00FDC202928D006DC01291CD007
:100C400004291DD0082940D11DE0402921D0B1F54B
:100C5000807F3AD126E0B1F5004F31D006DCB1F506
:100C6000806F25D0B1F5006F2FD124E0B1F5803F22
:100C700012D0B1F5003F28D111E0154A826025E07D
:100C80000822C26022E01022C2601FE00822026136
:100C90001CE01022026119E00822426016E01022D6
:100CA000426013E00422426010E0042242600DE042
:100CB000042242600AE0002282610422426005E0D0
:100CC000002282610422426000E000BF00BF704742
:100CD00001010100002044490860091D0860091D48
:100CE0000860091D086041483F4914310860704799
:100CF00000213D498279002A3AD00A4612680368E9
:100D00009A430B461A600A1D126803689A430B1D2A
:100D10001A60027911440A6803681A430A60324A69
:100D20000832126803689A432F4B08331A601A1D61
:100D3000126803689A432C4B0C331A604279102ACC
:100D40000ED11A1F126803681A43274B08331A6022
:100D50001A1D126803681A43234B0C331A600DE006
:100D60002149427911440A6803681A430A6005E080
:100D7000027911440A6803689A430A6070470021A7
:100D8000016001710C214171002181717047164988
:100D9000103109680143144A10321160704701464E
:100DA0000020114A143212680A400AB1012000E002
:100DB000002070470C49143108607047014600203C
:100DC0000022094B1B6803EA0102074B14331B681E
:100DD0000B4013B10AB1012000E000207047024926
:100DE000143108607047000000040140FFFF0F004D
:100DF00010B50446CC48844208D10121042000F0FB
:100E000093FB0021042000F08FFB46E0C74884429A
:100E100008D10121082000F087FB0021082000F004
:100E200083FB3AE0C248844208D10121102000F03F
:100E30007BFB0021102000F077FB2EE0BD488442B0
:100E400008D10121202000F06FFB0021202000F0BC
:100E50006BFB22E0B848844208D10121402000F019
:100E600063FB0021402000F05FFB16E0B3488442A2
:100E700008D10121802000F057FB0021802000F0E4
:100E800053FB0AE0AE48844207D10121801500F0EF
:100E90004BFB0021A01500F047FB10BD10B5012150
:100EA000084600F041FB0021012000F03DFB10BD91
:100EB0002DE9F041024600250026002000230024F1
:100EC000002791F803C00CF00F0591F803C00CF057
:100ED000100CBCF1000F03D091F802C04CEA0505DC
:100EE00091F800C0BCF1000F31D0146800202BE055
:100EF0004FF0010C0CFA00F3B1F800C00CEA030645
:100F00009E4220D183004FF00F0C0CFA03F7BC4334
:100F100005FA03FC4CEA040491F803C0BCF1280F65
:100F200006D14FF0010C0CFA00FCC2F814C00AE024
:100F300091F803C0BCF1480F05D14FF0010C0CFA39
:100F400000FCC2F810C0401C0828D1D31460B1F8CE
:100F500000C0BCF1FF0F34DD546800202EE000F12A
:100F6000080C4FF0010808FA0CF3B1F800C00CEAC5
:100F700003069E4221D183004FF00F0C0CFA03F7B9
:100F8000BC4305FA03FC4CEA040491F803C0BCF12D
:100F9000280F05D100F1080C08FA0CF8C2F81480EB
:100FA00091F803C0BCF1480F07D100F1080C4FF0D5
:100FB000010808FA0CF8C2F81080401C0828CED3AB
:100FC0005460BDE8F0814FF6FF710180022181700D
:100FD0000421C17070470246002093680B400BB19A
:100FE000012000E0002070470146886880B2704709
:100FF00002460020D3680B400BB1012000E0002026
:1010000070470146C86880B270470161704741610E
:1010100070470AB1016100E041617047C1607047EB
:101020004FF480320A438261816182618269826900
:10103000704702460020434B18684FF680731840F3
:1010400040EA021008433F4B186070473E49C861B0
:101050007047F0B50A46002300240021002500F067
:101060000046B6F1004F02D1364EF16901E0354E2F
:101070007168C0F3034583B200F44016B6F5401F13
:1010800008D121F070612F4E766826F070662D4FE2
:101090007E6012E000F48016B6F5801F06D10326AC
:1010A00006FA05F4A14341F0706106E0460D3601F1
:1010B00003FA06F6B14341F0706122B1460D3601E4
:1010C00003FA06F6314300F00046B6F1004F02D1B4
:1010D0001C4EF16101E01B4E7160F0BD30B5002285
:1010E0008B071C0F0F2303FA04F2164B08338C10E6
:1010F00053F824309343134C08348D1044F82530B2
:1011000023468C1053F824308C07240F00FA04F483
:1011100023430C4C08348D1044F8253030BD0A4967
:10112000DC3108607047000000080140000C0140FD
:10113000001001400014014000180140001C014053
:1011400000200140000001400000204210B50121B4
:10115000080700F0F6F900214FF0805000F0F1F997
:1011600010BD2A4908627047284908617047014646
:101170000020274A106820F0E00008431060704704
:101180002249A0310860704710B502460020204B6C
:10119000186820F00300104318601E4B1B6843F0D2
:1011A00004031C4C2360012901D130BF00E020BFA3
:1011B000184B1B6823F00403164C236010BD144821
:1011C000006840F00400124908600846006840F0DA
:1011D000020008600F48006840F004000D490860F4
:1011E00000BF00BF30BF704701460020084A526868
:1011F0000A400AB1012000E0002070470449096854
:1012000041EA8001024A11607047000000000E426E
:101210000070004010ED00E0DF48006840F0010081
:10122000DD49086008464068DC490840DA49486002
:1012300008460068DA490840D7490860084600684F
:1012400020F4802008600846406820F4FE004860D2
:101250004FF41F0088607047CF49096821F480313E
:10126000CD4A11601146096821F480211160B0F562
:10127000803F03D0B0F5802F0ED106E0C649096843
:1012800041F48031C44A116007E0C349096841F460
:10129000A021C14A116000E000BF00BF704710B537
:1012A00001460022002300204A11012A02D1BA4C33
:1012B000236806E0022A02D1B74C236A01E0B64C4B
:1012C000636A01F01F02012494401C400CB101200C
:1012D00000E0002010BD38B500200090002400255B
:1012E00000BF3120FFF7DBFF05460098401C00904F
:1012F0000098B0F5A06F01D0002DF2D03120FFF79B
:10130000CEFF08B1012400E00024204638BD01468C
:101310000020A14A106820F0F80040EAC1001060E7
:101320007047A04908607047024600209A4B5868F1
:1013300020F47C1042EA01031843974B5860704731
:1013400098490866704701460020934A506820F08B
:1013500003000843506070478F48406800F00C005D
:101360007047014600208C4A506820F0F000084386
:101370005060704701460020874A506820F4E060C2
:1013800008435060704701460020834A506820F4AB
:10139000605040EAC1005060704729B17E4A527ADD
:1013A00002437D4B5A7204E07B4A527A82437A4B65
:1013B0005A7270477B49D831086070470146002057
:1013C000754A506820F4404008435060704700213F
:1013D000714A20321170704A82F82010012802D020
:1013E00004280AD104E001216B4A2032117005E083
:1013F0000521694A2032117000E000BF00BF70472C
:101400006949086070476449096A0143624A116288
:101410007047654944390860704730B500210022A3
:10142000002400235C4D6D6805F00C0121B10429F6
:1014300005D0082923D105E05C4D056022E05B4D15
:1014400005601FE0544D6D6805F47012524D6D68D3
:1014500005F48034022505EB92421CB9544D5543E6
:1014600005600BE04C4D6D6805F400351DB1504D25
:101470005543056002E04D4D5543056002E04B4D7C
:10148000056000BF00BF444D6D6805F0F00109091B
:10149000484D6B5C0568DD4045603F4D6D6805F467
:1014A000E061090A434D6B5C4568DD4085603A4D5B
:1014B0006D6805F46051C90A3E4D6B5C4568DD40BE
:1014C000C560354D6D6805F44041890B3A4D6B5C44
:1014D000C568B5FBF3F5056130BD29B12E4A5269E7
:1014E00002432D4B5A6104E02B4A526982432A4B36
:1014F0005A61704729B1284A92690243264B9A6182
:1015000004E0254A92698243234B9A61704729B1CE
:10151000214AD2690243204BDA6104E01E4AD269B3
:1015200082431D4BDA61704729B11B4AD2680243DE
:10153000194BDA6004E0184AD2688243164BDA602D
:10154000704729B1144A12690243134B1A6104E02F
:10155000114A12698243104B1A617047124940398F
:10156000086070470F49C86470470B49C8717047DD
:101570000948406A40F08070074948627047014658
:101580000020054A92680A400AB1012000E00020CC
:101590007047014988727047001002400000FFF850
:1015A000FFFFF6FE000042428004424200127A0031
:1015B00000093D00000000201000002010B5044686
:1015C000FE48844208D10121C014FFF7ADFF00217D
:1015D000E014FFF7A9FFC4E0B4F1804F08D1012166
:1015E0000846FFF7AEFF00210120FFF7AAFFB8E091
:1015F000F348844208D101210220FFF7A2FF002115
:101600000220FFF79EFFACE0EE48844208D10121A2
:101610000420FFF796FF00210420FFF792FFA0E0CF
:10162000E948844208D101210820FFF78AFF002100
:101630000820FFF786FF94E0E448844208D10121A6
:101640001020FFF77EFF00211020FFF77AFF88E0CF
:10165000DF48844208D101212020FFF772FF0021DA
:101660002020FFF76EFF7CE0DA48844208D1012198
:101670004014FFF759FF00216014FFF755FF70E099
:10168000D548844209D10121C804FFF74DFF00214C
:101690004FF40020FFF748FF63E0D048844209D1AF
:1016A00001210805FFF740FF00214FF48010FFF7EC
:1016B0003BFF56E0CA48844209D101214805FFF7A3
:1016C00033FF00214FF40010FFF72EFF49E0C5481B
:1016D000844208D101214020FFF733FF0021402040
:1016E000FFF72FFF3DE0C048844208D10121802050
:1016F000FFF727FF00218020FFF723FF31E0BB48E1
:10170000844208D101218015FFF71BFF0021A0159D
:10171000FFF717FF25E0B648844209D101210804EC
:10172000FFF702FF00214FF48030FFF7FDFE18E0C5
:10173000B048844209D101214804FFF7F5FE002199
:101740004FF40030FFF7F0FE0BE0AB48844208D1C5
:1017500001218804FFF7E8FE00214FF48020FFF705
:10176000E3FE10BD00220288944B98420ED0994BA4
:1017700098420BD0B0F1804F08D0914B984205D0E1
:10178000904B984202D0904B984204D14FF68F7301
:101790001A404B881A438D4B984207D08C4B984285
:1017A00004D04FF6FF431A40CB881A4302808B883F
:1017B00083850B880385814B98420BD0854B9842DB
:1017C00008D08B4B984205D08A4B984202D08A4B66
:1017D000984201D10B7A038601238382704770B54A
:1017E000002400220023058C4FF6FE763540058448
:1017F000028C8388048B4FF68F752C40B51E2C40CD
:101800000D882C43751E2A400D892A434D882A4392
:101810006A4DA8420BD06F4DA84208D0744DA84223
:1018200005D0744DA84202D0734DA84213D14FF693
:10183000F7752A404D892A434FF6FB752A408D885B
:101840002A434FF6FF652B404FF6FF552B408D89FD
:101850002B43CD892B4383800483CD8885860284E6
:1018600070BD70B5002400220023058C4FF6EF7682
:1018700035400584028C8388048B48F6FF752C4024
:101880004FF6FF452C400D884FF6FF7606EA0525FA
:101890002C434FF6DF752A400D8906EA05152A43C9
:1018A0004D8806EA05152A43444DA84202D0494D09
:1018B000A8421DD14FF67F752A404D894FF6FF761D
:1018C00006EA05152A434FF6BF752A408D8806EAB9
:1018D00005152A434FF6FF352B404FF2FF752B407D
:1018E0008D8906EA85052B43CD8906EA85052B43BC
:1018F00083800483CD880587028470BD70B5002481
:1019000000220023058C4FF6FF6635400584028CCB
:101910008388848B4FF68F752C404FF6FC752C40D6
:101920000D882C434FF6FF552A400D894FF6FF7660
:1019300006EA05252A434D8806EA05252A431F4D58
:10194000A84202D0234DA8421DD14FF2FF752A4074
:101950004D894FF6FF7606EA05252A434FF6FF35F7
:101960002A408D8806EA05252A434EF6FF752B404E
:101970004DF6FF752B408D8906EA05152B43CD8961
:1019800006EA05152B4383808483CD8885870284EE
:1019900070BD70B5002200230024058C4EF6FF7642
:1019A00035400584038C8488828B48F6FF752A4075
:1019B0004FF6FF452A400D8820E00000002C014032
:1019C0000004004000080040000C004000100040EF
:1019D0000014004000340140004C01400050014020
:1019E0000054014000180040001C0040002000404E
:1019F0000040014000440140004801404FF6FF769E
:101A000006EA05252A434DF6FF752B400D8906EAA7
:101A100005352B434D8806EA05352B43FA4DA84280
:101A200002D0FA4DA84208D14BF6FF752C408D89A3
:101A30004FF6FF7606EA85152C4384808283CD8895
:101A4000A0F84050038470BD828B4FF2FF331A40E0
:101A50008283828B4FF6FF7303EA01231A4382834A
:101A60007047F0B50C461546002200210026078C71
:101A70004EF6FF7C07EA0C070784828B018C4FF639
:101A8000FF7707EA043640F6FF473A404FF6FF7704
:101A900007EA05273A434FF6FF7707EA03373A4349
:101AA000D94FB8420ED0D94FB8420BD0B0F1804FC9
:101AB00008D0D74FB84205D0D64FB84202D0D64F43
:101AC000B84206D14DF6FF77394046F48057394386
:101AD00005E047F6FF57394044F480573943828385
:101AE0000184F0BD828B4FF6F3731A408283828BA0
:101AF0000A4382837047F0B50C4615460022002148
:101B00000026078C4FF6FF6C07EA0C070784828BD0
:101B1000018C4FF6FF7707EA04264FF60C773A4020
:101B20004FF6FF7707EA03172F433A43B64FB84201
:101B30000ED0B64FB8420BD0B0F1804F08D0B44FA2
:101B4000B84205D0B34FB84202D0B34FB84206D125
:101B50004FF6FF57394046F48077394305E04FF29E
:101B6000FF57394044F48077394382830184F0BDC4
:101B7000028B4FF2FF331A400283028B4FF6FF7342
:101B800003EA01231A4302837047F0B50C46154659
:101B9000002200210026078C4FF6EF7C07EA0C0795
:101BA0000784028B018C4FF6FF7707EA041640F694
:101BB000FF473A404FF6FF7707EA03373A434FF6BD
:101BC000FF7707EA05273A438F4FB8420ED08F4F71
:101BD000B8420BD0B0F1804F08D08D4FB84205D03D
:101BE0008C4FB84202D08C4FB84206D14FF6DF7707
:101BF000394046F01007394305E04FF65F7739402A
:101C000044F01007394302830184F0BD028B4FF684
:101C1000F3731A400283028B0A4302837047F0B5C4
:101C20000C46154600220021068C4FF6FE773E40FA
:101C30000684028B018C4FF60C7632407E1C06EA3D
:101C400003162E433243704EB0420ED06F4EB04258
:101C50000BD0B0F1804F08D06D4EB04205D06D4E24
:101C6000B04202D06C4EB04206D14FF6FD76314004
:101C700044F00106314305E04FF6F576314044F07B
:101C80000106314302830184F0BD70B505460C4660
:101C90005D4885420ED05D4885420BD0B5F1804F3E
:101CA00008D05B48854205D05A48854202D05A4840
:101CB000854200D100E000BF208850B92389A28866
:101CC00061882846FFF7ABFFE1882846FFF79EFFB3
:101CD00025E0208804280AD12389A2886188284623
:101CE000FFF753FFE1882846FFF742FF17E02088FF
:101CF00008280AD12389A28861882846FFF7FBFEBD
:101D0000E1882846FFF7EEFE09E02389A288618872
:101D10002846FFF7A6FEE1882846FFF795FE70BD2E
:101D20002DE9F04105460C4600260127608808B9D8
:101D3000022600E00026A088012801D1022700E049
:101D400001272088A0B92389A28861882846FFF747
:101D500066FFE1882846FFF759FF23893A46314656
:101D60002846FFF712FFE1882846FFF701FF13E03E
:101D70002389A28861882846FFF707FFE188284663
:101D8000FFF7F6FE23893A4631462846FFF747FF1C
:101D9000E1882846FFF73AFFBDE8F0810A884B88C2
:101DA0001A438B881A43CB881A430B891A434B89F1
:101DB0001A438B891A43A0F8442070474FF6FF71ED
:101DC000818000210180C180418001727047002123
:101DD000018041808180C180018141818181C181F7
:101DE0007047002101804180012181800021C18054
:101DF000018170470021018041808180C180018183
:101E00004181818170470000002C01400034014075
:101E10000004004000080040000C004021B102888E
:101E200042F00102028004E002884FF6FE731A407D
:101E30000280704731B1B0F8442042F40042A0F86B
:101E4000442005E0B0F84420C2F30E02A0F844207C
:101E500070471AB183890B43838102E083898B43E6
:101E6000838170478182704741EA0203A0F84830BD
:101E700070471AB183890B43838102E083898B43C6
:101E80008381704701894FF6F872114001817047D4
:101E90000A46002101894FF68F73194011430181D1
:101EA000704730B504460D4629462046FFF7F0FF3F
:101EB000208940F00700208130BD2DE9F041044623
:101EC0000D4616461F46602D06D13B46012231467F
:101ED0002046FFF75AFE05E03B46012231462046E8
:101EE000FFF79DFE29462046FFF7D2FF208940F0EC
:101EF00007002081BDE8F08130B50C460021018942
:101F0000C9B24FF6FF7505EA03251543254329435A
:101F1000018130BD2DE9F04105460E461746984631
:101F2000002443463A4631462846FFF7E5FF2C8910
:101F30004FF6F870044044F007044FF68F700440E9
:101F400044F070042C81BDE8F081F0B504460D46E4
:101F500016461F463B46324629462046FFF7CCFF31
:101F6000208940F480402081F0BD01858282704745
:101F70000A46002101884FF68F73194011430180F2
:101F80007047F0B50C4615461E460021002200237E
:101F90000189028B038C4FF6F877394021434FF6C5
:101FA000FC473A4040F201173A434FF6DD773B4099
:101FB0004FF6FF7707EA06172F433B430181028361
:101FC0000384F0BD0A460021018B4FF68F73194040
:101FD0001143018370470A460021018B48F6FF73C5
:101FE00019404FF6FF7303EA022319430183704738
:101FF0000A460021818B4FF68F731940114381836C
:1020000070470A460021818B48F6FF7319404FF64E
:10201000FF7303EA022319438183704721B10288C9
:1020200042F08002028004E002884FF67F731A407B
:102030000280704721B1828842F00402828004E06D
:1020400082884FF6FB731A408280704721B18288E4
:1020500042F00802828004E082884FF6F7731A404B
:102060008280704721B1828842F00102828004E0C0
:1020700082884FF6FE731A40828070470A4600211C
:10208000018B4FF6F77319401143018370470A46DD
:102090000021018B4FF2FF7319404FF6FF7303EAE3
:1020A00002231943018370470A460021818B4FF6B2
:1020B000F77319401143818370470A460021818BD1
:1020C0004FF2FF7319404FF6FF7303EA02231943DF
:1020D000818370470A460021018B4FF6FB7319403C
:1020E0001143018370470A460021018B4FF6FF33ED
:1020F00019404FF6FF7303EA022319430183704727
:102100000A460021818B4FF6FB73194011438183EE
:1021100070470A460021818B4FF6FF3319404FF676
:10212000FF7303EA02231943818370470A460021A3
:10213000018B4FF67F7319401143018370470A46A4
:102140000021018BC1F30E014FF6FF7303EA022356
:102150001943018370470A460021818B4FF67F7334
:1021600019401143818370470A460021818BC1F3D6
:102170000E014FF6FF7303EA022319438183704770
:102180000A460021018C4FF6FD731940114301846A
:1021900070470A460021018C4FF6F773194011432E
:1021A000018470470A460021018C4FF6DF73194005
:1021B0004FF6FF7303EA02131943018470470A467E
:1021C0000021018C4FF67F7319404FF6FF7303EA2D
:1021D00002131943018470470A460021018C4FF60F
:1021E000FF5319404FF6FF7303EA0223194301849A
:1021F00070470A460021018C4FF2FF7319404FF6D9
:10220000FF7303EA02231943018470470A46002141
:10221000018C4DF6FF7319404FF6FF7303EA02334A
:1022200019430184704730B5002301248C40A3B2C8
:10223000048C9C430484048C02FA01F5ADB22C4357
:10224000048430BD30B5002304248C40A3B2048C38
:102250009C430484048C02FA01F5ADB22C4304843F
:1022600030BD70B503460020002418461830012503
:102270008D40ACB21D8CA5431D8409B1082909D13C
:1022800000EB6100056825F07005056005681543E1
:1022900005600EE00D1FC5F34E052844056825F4C2
:1022A000E045056005684FF6FF7606EA02263543ED
:1022B000056070BD21B1028842F00202028004E094
:1022C00002884FF6FD731A400280704721B10288E0
:1022D00042F00402028004E002884FF6FB731A40C9
:1022E0000280704721B1828842F08002828004E03F
:1022F00082884FF67F731A408280704702884FF6BB
:10230000F7731A40028002880A430280704782886D
:102310004FF68F731A40828082880A43828070470A
:1023200002894FF6F8731A40028102890A4302813A
:10233000704702894FF67F731A40028102890A436F
:10234000028170478184704781857047818670471C
:102350000187704781877047A0F840107047028856
:102360004FF6FF431A40028002880A4302807047FA
:102370000146888E70470146088F70470146888F56
:1023800070470146B1F8400070470146888C70479D
:102390000146088D704702460020138A0B400BB19E
:1023A000012000E000207047CA430282704730B528
:1023B0000246002000230024158A05EA01039589BE
:1023C00005EA010413B10CB1012000E0002030BD8A
:1023D000CA430282704700007047704770477047D9
:1023E00070477047704770B5044610464FF08075CF
:1023F0000560051F28462C60344E051F28462E60B8
:102400004FF01236051F28462E604FF00336051F89
:1024100028462E604FF00236051F28462E607610A3
:10242000051F28462E60051F284629604FF01136EB
:10243000051F28462E604FF01036051F28462E60D7
:102440004FF00936051F28462E604FF00836051F4D
:1024500028462E604FF00736051F28462E604FF0A5
:102460000636051F28462E604FF00536051F284604
:102470002E604FF00436051F28462E6070BD704751
:102480007047704700B585B06846FEF7C6FF0198F3
:1024900005B000BD10B5FFF7F5FF0446204610BD9E
:1024A00010B5FFF7F7FF4FF47A71B0FBF1F4601E3F
:1024B0004FF0E02148610846006940F005000861DE
:1024C0000846006940F00200086110BD93530008FF
:1024D000EFF3108072B6704780F3108870471D4884
:1024E0004FF0FF010170002080F309881A48012194
:1024F00001701A484FF08051016062B6FEE717483C
:102500004FF080510160704714484FF080510160D6
:10251000704772B6EFF3098028B1203880E8F00FD9
:102520000F490968086000B50E4880475DF804EB64
:102530000D480E490A78027009480D490A68026080
:10254000106890E8F00F203080F309884EF0040EF8
:1025500062B6704722ED00E03C00002004ED00E090
:10256000440000207F2400083500002036000020B1
:102570004C000020014609B900207047002202E00B
:10258000491C501CC2B208780028F9D11046F4E763
:102590002DE9F04105460E461446002725B90420D2
:1025A00020700020BDE8F0811EB90C2020700020B2
:1025B000F8E7FE48007818B1112020700020F1E7FC
:1025C0002878012808D0022807D0032802D0042840
:1025D00004D100E000BF00BF00BF03E00120207075
:1025E0000020DFE700BFFFF773FF07462869306070
:1025F0003068FFF7BFFF80463846FFF76DFF0020C9
:1026000020704046CEE72DE9F04105460E461446BF
:1026100000271DB904202070BDE8F08116B90C20F8
:102620002070F9E7E148007810B112202070F3E73C
:102630002878012808D0022807D0032802D00428CF
:1026400004D100E000BF00BF00BF02E00120207005
:10265000E2E700BFFFF73CFF07462E613846FFF771
:102660003BFF0020207000BFD6E77CB5002514E0BA
:102670006946284602F03EFD064666B9CC4850F849
:10268000254044B1012C06D0D4E9020100EB8100C1
:1026900060640198A064681CC5B21F2DE8DD7CBD94
:1026A00000BF00BF02E0C82002F082FEC1480078EF
:1026B0000028F8D0C04800686421B0FBF1F0BE49A2
:1026C00008600846006828B90020BC490870FF204F
:1026D00002F059FDFFF7FCFE0446B748006864218C
:1026E0004843B74908602046FFF7F6FE00BFFFF7F2
:1026F000EFFE0446B2480068B24908600020B049C5
:1027000008602046FFF7E8FEAE480068AA4909685D
:10271000B0FBF1F0C0F16400A8490870FFF762FE59
:10272000FFF7A3FF642002F043FEE0E700B587B0A7
:10273000032000214FF40072A34BCDE90132CDE913
:1027400003104FF6FE701E23A04A0090AFF2AF00B8
:1027500002F0BCFA06AA9EA11E2002F03EFC07B0C1
:1027600000BD002400BF00BFFFF7B2FE044694483E
:102770000068401C924908602046FFF7ADFEFFF755
:102780002FFEF1E700B587B0032000214FF400725F
:10279000934BCDE90132CDE903104FF6FF701F23B3
:1027A000904A0090AFF2450002F090FA06AA8EA17E
:1027B0001F2002F012FC07B000BD04E0002200F868
:1027C000012B4A1E91B20029F8D1704770B54FF421
:1027D000C8718948FFF7F1FF002411E0601C85B241
:1027E00004EB8400844901EB800305EB850001EBD9
:1027F0008006002018705E6080A01861601C84B2A2
:10280000132CEBD304EB84007B4901EB8003002005
:102810001870586079A0186108467949086070BD41
:1028200070B54FF4BD617748FFF7C7FF802160485E
:10283000FFF7C3FF002413E0601CC5B2C4EBC40063
:1028400000EB40006F4901EB8003C5EBC50000EBD6
:10285000400001EB80065E6168A0D864601CC4B2D1
:10286000112CE9D3C4EBC40000EB4000654901EB37
:1028700080030020586161A0D8640020624908608C
:1028800060486249086070BD0021614A11700020F3
:1028900004E000215F4A1154411CC8B20428F8D357
:1028A00000215D4A11705D4A11705D4A11605D4AF8
:1028B0001160704700205C4908603C4908705B4922
:1028C00008705B4908605B4908705B4908705B49A8
:1028D00008603B4908603B49086037490860354952
:1028E000087057490870704710B5FFF775FDFFF77E
:1028F000E1FFFFF7C9FFFFF793FFFFF767FF00F066
:102900002FFF01F05AF801F0C6FEFFF73BFFFFF77B
:102910000DFFFFF762FD10BD47480078012808D180
:1029200022480078FF2804D220480078401C1F4924
:10293000087070474349364A1278885C3549095C0B
:10294000404A515C01EBC001344A1170704710B528
:10295000002439480078012827D1FFF7B9FD044643
:102960001248007820B111480078401E0F490870C5
:102970000E480078C0B92D480078A8B9FFF7DAFFF3
:102980000B482649097850F821002549086023485A
:1029900000782149097888425ED021480068806B20
:1029A000401C1F4909684FE056E058E02D00002008
:1029B000341C00202C0000202400002020000020D7
:1029C0004000002028000020340C0020301400209B
:1029D00075432F4F532D49492053746174000000F3
:1029E00034140020301C002075432F4F532D4949CB
:1029F0002049646C65000000040A00203F000000CC
:102A000018000020B41C00205000002048000020C6
:102A1000370000203800002035000020360000205C
:102A20004C000020440000206400002034000020FE
:102A3000300000203D0000203C0000201400002059
:102A400060000020C4F500088863FE480068401C50
:102A5000FC490860FFF758FD2046FFF73DFD10BD1B
:102A600010B50024F8480078012811D1FFF730FD97
:102A70000446F648007840B9F5480078FF2804D2AB
:102A8000F3480078401CF24908702046FFF724FD07
:102A900010BD10B50024FFF71BFD0446EB4800787D
:102AA000F8B9EB480078E0B9FFF744FFE948EA4994
:102AB000097850F82100E9490860E7480078E849BA
:102AC000097888420DD0E5480068806B401CE349D6
:102AD00009688863DB480068401CDA490860FFF732
:102AE0000EFD2046FFF7F8FC10BD10B50024D648B7
:102AF0000078012821D1FFF7EBFC0446D348007889
:102B0000C0B9D348007888B1D1480078401ED04978
:102B100008700846007828B92046FFF7DDFCFFF76B
:102B2000B8FF0AE02046FFF7D7FC06E02046FFF793
:102B3000D3FC02E02046FFF7CFFC10BD10B5C24821
:102B4000007890B9FFF7F6FEC3480078C4490870D2
:102B5000C048C149097850F82100C04908600846BA
:102B60000068C0490860FFF7BAFC10BD10B500242A
:102B7000022002F01DFCFFF7ABFC04460020BA491E
:102B800008602046FFF7A8FC642002F011FCFFF764
:102B90009FFC0446B4480068B44908600120B44969
:102BA00008702046FFF798FC10BD70B50026FFF7AF
:102BB00068FCFFF78DFC0646AE480068401CAD4936
:102BC00008603046FFF788FC9F480078012853D101
:102BD000A948007820B1012804D0022809D103E0D7
:102BE00001250BE0002509E001250120A24908701C
:102BF00004E001250020A049087000BF00BF05B90E
:102C000070BD9E48046833E0FFF762FC0646E06A48
:102C100050B3E06A401EE062E06A28BB94F83000DE
:102C200000F0370040B114F8300F00F0C8002070F9
:102C300001206070303C02E0002084F8310094F8FC
:102C4000300000F0080078B93434A0788C49097855
:102C500008438B49087020788A49085C61780843EA
:102C600014F83419874A505464693046FFF734FC2D
:102C700094F832001F28C7D100BFC1E747F21720E0
:102C80007047704710B590F8342001F10B039B5C3E
:102C900090F83540A34301F10B04A35423469B5CF9
:102CA00023B98B7A90F83640A3438B7210BD2DE97F
:102CB000F04F05460F4690469946A87A72490E5C39
:102CC00005F10B00805D11F800B00BEBC60000F0C1
:102CD000FF0A604850F82A4000202034E060276056
:102CE000207C20EA0800207484F81190207C203C8D
:102CF00000F0080068B994F8360061490978084383
:102D00005F4908705F48805D94F8351008435D495D
:102D1000885529462046FFF7B5FF5046BDE8F08F9D
:102D200010B5504A1268D0614E4A126892F8343099
:102D300000F10B02D25C4B4B1B6893F835301A4301
:102D4000484B1B6893F8344000F10B031A55827A04
:102D5000444B1B6893F836301A438272414A12681A
:102D600092F83410474A525C3E4B1B6893F835305A
:102D70009A43444B5A541A46525C42B9394A126833
:102D800092F836303E4A12789A433D4B1A7010BD85
:102D9000014600228A72002005E0002301F10B02A7
:102DA0001354421CD0B20428F7D3704705E011F841
:102DB000013B00F8013B531E9AB2002AF7D170473D
:102DC0002DE9F84F05460F4690469946DDE90AABD6
:102DD00000200090FFF77CFB00902C480468002C3A
:102DE0007ED0183454F8040C284908600098FFF786
:102DF00073FB44F8187CA57600202076607660612D
:102E000044F814BC44F80CAC44F8108C0C9824F82A
:102E1000080C24F8069C0020E077E810207705F0E5
:102E20000700E076217F01208840A077E17E012025
:102E30008840607700206060E060A0602062A0624F
:102E4000606225E0140000203C0000202D000020DE
:102E500034000020341C0020360000204C000020EC
:102E60003500002044000020400000202400002005
:102E70002C0000206400002054000020500000209E
:102E80003700002038000020C4F50008480000206A
:102E9000E0622063AFF29C406063183C002606E0CD
:102EA000002104F1500040F82610701CC6B2002E1C
:102EB000F6D02046FFF7E4FAFFF70AFB00901D4822
:102EC00040F825400098FFF707FB2046FFF786FAF9
:102ED000FFF7FEFA0090184800686061002000E0EB
:102EE00023E0A0611448006810B1134800688461B1
:102EF000114804603434A0781049097808430F4918
:102F0000087020780E49085C6178084314F8341979
:102F10000B4A50540B480078401C0A49087000982E
:102F2000FFF7DAFA0020BDE8F88F0098FFF7D4FA2F
:102F30004220F8E7341C0020500000203700002019
:102F4000380000203D0000202DE9F05F04460F46C8
:102F500091461E464FF0000B24B96E2030700020C1
:102F6000BDE8F09F2078052803D0012030700020B4
:102F7000F6E709F0800ABAF1000F04D029F08009C1
:102F80004FF0010801E04FF0000800203070FFF71B
:102F90009FFA8346B9F1000F2CD0B9F1010F3BD055
:102FA000B9F1020F03D0B9F1030F46D111E0208926
:102FB00000EA0705BD4206D1B8F1010F05D120890D
:102FC000A843208101E0702030705846FFF784FA52
:102FD0003AE0208900EA070535B1B8F1010F05D1C3
:102FE0002089A843208101E0702030705846FFF707
:102FF00073FA29E0208927EA0005BD4206D1B8F11D
:10300000010F05D120892843208101E07020307014
:103010005846FFF761FA17E0208927EA000535B125
:10302000B8F1010F05D120892843208101E07020EB
:1030300030705846FFF750FA06E05846FFF74CFA52
:1030400000256F20307000BF00BF284688E72DE9BB
:10305000F04106460D460027F948007820B11020BF
:1030600028700020BDE8F081FFF732FA0746F548E6
:10307000046884B100684068F24908600520207047
:10308000268100206060F0A0E0603846FFF724FA57
:103090000020287004E03846FFF71EFA72202870DE
:1030A0002046DFE730B501464A6808682AB9CC688F
:1030B000606028B10025456002E0106000B1426008
:1030C0008B6800255D6230BD2DE9F04106468846DB
:1030D0001746B468002044F82C0F24F8048C20799B
:1030E00000F0DF002071677120792C3C88B93434FE
:1030F000A078D64909780843D44908702078D44983
:10310000085C6178084314F83419D14A50540125F9
:1031100000E000253046FFF7C5FF2846BDE8F081F6
:103120002DE9F0470446894615464FF0000A24B9B8
:103130006E2028702046BDE8F087C148007818B19D
:103140000F2028702046F6E72078052803D00120BC
:1031500028702046EFE7FFF7BBF98246606808B1A8
:10316000012700E00027B9F1000F03D0B9F1010FEA
:103170003DD119E08FB9B4A0E06000202070B148C3
:103180000068606000202081AE4804605046FFF770
:10319000A3F900202870002605E05046FFF79CF9AF
:1031A00049202870264629E0D4F8048006E002224F
:1031B00000214046FFF788FFD8F80080B8F1000FE3
:1031C000F5D1A1A0E060002020709E4800686060FA
:1031D000002020819B4804605046FFF77DF9012FB5
:1031E00001D1FFF756FC00202870002606E050466B
:1031F000FFF772F907202870264600BF00BF30464F
:1032000099E72DE9F04105460E461446002725B9F9
:103210006E2020700020BDE8F0811EB90C202070C7
:103220000020F8E78648007818B1112020700020AF
:10323000F1E7FFF74DF907462878052806D038460C
:10324000FFF74AF9012020700020E4E7E8683060C9
:103250003068FFF78FF980463846FFF73DF90020C8
:1032600020704046D7E72DE9F04105460E4614464A
:1032700000271DB96E202070BDE8F08116B90C2022
:103280002070F9E76E48007810B112202070F3E743
:10329000FFF71EF907462878052805D03846FFF7BE
:1032A0001BF901202070E7E7EE603846FFF714F9BC
:1032B0000020207000BFDFE7F0B51446059E654F83
:1032C0003F6897F8307047F02007DFF888C1DCF8D6
:1032D00000C08CF830700027DFF878C1DCF800C03F
:1032E0008CF831705B4F3F68FE625A4F3F687962DD
:1032F0000C828B74574F3F688F6047680F600027C0
:103300004F60C860456805B169604160514F3F68D2
:1033100097F834204E4FBF5CDFF838C1DCF800C0AE
:103320009CF835C027EA0C07DFF824C10CF80270BE
:103330006746BF5C5FB9474F3F6897F836C0434F59
:103340003F7827EA0C07DFF804C18CF80070F0BD65
:103350002DE9F04F89B005460F4691469A46129ED8
:10336000002002902DB96E203070002009B0BDE819
:10337000F08F3348007818B1022030700020F5E754
:103380003548007818B10D2030700020EEE728781D
:10339000052803D0012030700020E7E709F0800BFA
:1033A000BBF1000F04D009F07F094FF0010801E0E4
:1033B0004FF00008FFF78CF80290B9F1000F59D0D8
:1033C000B9F1010F79D0B9F1020F03D0B9F1030FB0
:1033D00072D120E0288900EA0704BC420FD1B8F17D
:1033E000010F02D12889A04328811A48006804856A
:1033F0000298FFF771F8002030702046B6E74B4680
:103400003A4604A92846CDF800A0FFF755FF0298D8
:10341000FFF762F879E0288900EA0704F4B1B8F10F
:10342000010F02D12889A04328810A480068048539
:103430000298FFF751F800203070204696E7000010
:103440002D0000201C0000203F000000370000205D
:103450003800002044000020340000204B463A464B
:1034600004A92846CDF800A0FFF726FF0298FFF731
:1034700033F84AE0288927EA0004BC420FD1B8F1AA
:10348000010F02D1288920432881C948006804859A
:103490000298FFF721F800203070204666E74B467F
:1034A0003A4604A92846CDF800A0FFF705FF029888
:1034B000FFF712F829E000E01FE0288927EA00045E
:1034C0007CB1B8F1010F02D1288920432881B84886
:1034D000006804850298FEF7FFFF00203070204648
:1034E00044E74B463A4604A92846CDF800A0FFF72A
:1034F000E3FE0298FEF7F0FF07E00298FEF7ECFF0C
:1035000000246F203070204630E700BFFFF7C1FA7B
:10351000FEF7DEFF0290A648006890F8310020B365
:10352000A348006890F8310003900020A049096882
:1035300081F8310004A8FFF7B5FD00209C49096817
:1035400081F830000298FEF7C7FF00240398012895
:1035500005D0022802D10E20307003E000BF0A20FF
:10356000307000BF00BF204600E791480068048D1E
:10357000B8F1010F1ED1B9F1000F0ED0B9F1010F52
:103580000CD0B9F1020F03D0B9F1030F0AD100E05A
:1035900000BF2889A04328810BE000BF2889204371
:1035A000288106E00298FEF797FF6F203070002018
:1035B000DCE600BF0298FEF78FFF00203070204647
:1035C000D4E670B50025FEF783FF0546784800680D
:1035D000048D2846FEF780FF204670BD2DE9FC5F74
:1035E0000446894692461E460020009024B96E206B
:1035F00030700020BDE8FC9F2078052803D0012012
:1036000030700020F6E7FEF763FF0090BAF1000F7C
:1036100003D0BAF1010F0AD104E0208920EA0900A1
:1036200020810BE0208940EA0900208106E0009813
:10363000FEF752FF712030700020DBE700BF4FF033
:10364000000B656859E0A87C50B301283BD00228E4
:1036500002D0032848D112E02089298A00EA010714
:10366000288AB8420AD1002239462846FFF72CFDA5
:103670008046B8F1010F01D14FF0010B3BE02089EA
:10368000298A00EA010757B1002239462846FFF788
:103690001BFD8046B8F1010F01D14FF0010B2AE06C
:1036A000288A218920EA0107288AB8420AD1002203
:1036B00039462846FFF708FD8046B8F1010F01D1D1
:1036C0004FF0010B17E0288A218920EA010757B142
:1036D000002239462846FFF7F7FC8046B8F1010F73
:1036E00001D14FF0010B06E00098FEF7F5FE6F20C8
:1036F000307000207EE700BF2D68002DA3D1009818
:10370000FEF7EAFEBBF1010F01D1FFF7C2F9FEF7A8
:10371000DFFE0090208901900098FEF7DDFE00207A
:103720003070019866E72DE9F04104460D46002708
:1037300024B96E2028700020BDE8F081207805288B
:1037400003D0012028700020F6E7FEF7C1FE0746EF
:1037500026893846FEF7C0FE002028703046EBE789
:103760002DE9F041A0211348FFF727F800250EE0CE
:10377000681C86B20F4800EB051400EB061700200A
:1037800020706760AFF24030E060681C85B2092DA0
:10379000EED3084800EB0514002020706060AFF203
:1037A0005830E060034804490860BDE8F08100003B
:1037B00044000020940B00201C0000202DE9FC5F39
:1037C00005460F4691461E460020009025B962200E
:1037D00030700020BDE8FC9F05F0030018B16220A6
:1037E00030700020F6E7022F03D25B2030700020FB
:1037F000F0E7B9F1040F03D25C2030700020E9E754
:10380000FEF766FE00907F480468006820B17D489E
:10381000006840687B4908600098FEF75DFE1CB9AF
:103820005A2030700020D5E7AA46A846781E01909D
:103830004FF0000B05E0C844CAF80080C2460BF107
:10384000010B01988345F6D30020CAF800002560DB
:1038500065602761E760C4F8089030702046B9E7DA
:103860002DE9F04104460D46002724B96020287058
:103870000020BDE8F081FEF72BFE0746206960B10D
:103880006668306860602069401E20613846FEF737
:1038900023FE002028703046EBE73846FEF71CFE7A
:1038A0005D2028700020E4E72DE9F04106460D4632
:1038B0001446002726B9602020700020BDE8F08162
:1038C0001DB90C2020700020F8E74F48007818B18F
:1038D000112020700020F1E7FEF7FAFD074670691D
:1038E00028602868FEF746FE80463846FEF7F4FD5D
:1038F000002020704046E1E72DE9F04105460E46E4
:10390000144600271DB960202070BDE8F08116B96B
:103910000C202070F9E73C48007810B1122020708C
:10392000F3E7FEF7D5FD07466E613846FEF7D4FD96
:103930000020207000BFE8E770B504460D46002661
:103940000CB9602070BD0DB95F20FBE7FEF7C0FD2C
:103950000646D4E90310884204D33046FEF7BCFD86
:103960005E20EFE76068286065602069401C206188
:103970003046FEF7B1FD0020E4E770B505460C4681
:1039800000260DB9602070BD0CB96120FBE7FEF781
:103990009FFD06462868206068686060A868A0608F
:1039A000E868E060286920613046FEF795FDD4E9BB
:1039B0000301401A60610020E5E770B578211348E3
:1039C000FEF7FBFE00240EE004EB44000F4901EB80
:1039D000C005601C00EB400001EBC00068600CA05B
:1039E0006861601C84B2042CEED304EB44000749E8
:1039F00001EBC0050020686005A068610846014928
:103A0000086070BD580000202D0000209C2200207E
:103A10003F0000002DE9F04104460D46002724B97F
:103A2000042028700020BDE8F0812078042803D00D
:103A3000012028700020F6E7FE48007818B1022027
:103A400028700020EFE7FEF743FD074620890612A5
:103A5000207AFF2822D1208900F47F40208120890C
:103A6000F549096891F8321008432081F24800684E
:103A70006060FF2E0BD0F048006890F83200B04232
:103A800005DC3846FEF728FD7820287004E038462B
:103A9000FEF722FD002028700120C4E73846FEF71B
:103AA0001BFD0020287000BFBDE72DE9F041044652
:103AB0000E460027FF2C06D01F2C04DB2A20307076
:103AC0000020BDE8F081DB48007818B1102030708C
:103AD0000020F6E7FEF7FCFC0746FF2C0ED0D74887
:103AE00050F8240030B13846FEF7F6FC282030703C
:103AF0000020E6E70120D14941F82400D0480568BC
:103B000065B9FF2C03D00020CC4941F82400384689
:103B1000FEF7E2FC042030702846D2E7C84800686F
:103B20004068C74908603846FEF7D6FC0420287074
:103B3000FF2040EA0420288100206860C1A028619D
:103B40002846FFF725F9002030702846B9E730B540
:103B500090F83420BC4B9B5C90F83540A343BA4CA2
:103B6000A35423469B5C33B990F83640B74B1B787F
:103B7000A343B64C237000F8321FB54B1970C1F344
:103B8000C203837001F00703437084780123A340CC
:103B9000037144780123A340C3700379AB4C2478AC
:103BA0002343AA4C23708378A74CE35CC478234357
:103BB00084783238A44D2B55A04B43F8210030BDFA
:103BC0002DE9F84F04468A4615460020009024B996
:103BD000042028702046BDE8F88F2078042803D000
:103BE000012028702046F6E79248007818B10F208F
:103BF00028702046EFE7FEF76BFC0090A07A10B12A
:103C00004FF0010801E04FF00008BAF1000F03D0B7
:103C1000BAF1010F60D123E0B8F1000F19D189A0EA
:103C2000206120890612FF2E03D00020834941F82D
:103C300026000020207082480068606000202081FB
:103C40007F4804600098FEF747FC0020287000279A
:103C500005E00098FEF740FC49202870274642E026
:103C600020890612FF2E0ED094F808B0D4F80490E4
:103C7000B9F1000F07D099F83200B04203D159468C
:103C80004846FFF764FF05E002231022002120468A
:103C9000FFF70DF8A07A0028F6D16AA020612089EC
:103CA0000612FF2E03D00020644941F826000020B0
:103CB00020706348006860600020208160480460D4
:103CC0000098FEF709FCB8F1010F01D1FEF7E1FE03
:103CD00000202870002706E00098FEF7FDFB072073
:103CE0002870274600BF00BF384674E72DE9F74F1C
:103CF00082B0054617460020019025B9042038708F
:103D000005B0BDE8F08F2878042802D00120387073
:103D1000F6E74848007810B102203870F0E74D48C7
:103D2000007810B10D203870EAE7FEF7D1FB019062
:103D300028894FEA2029287AFF2822D1288900F4EF
:103D40007F40288128893C49096891F8321008434E
:103D50002881394800686860B9F1FF0F0BD03648F8
:103D6000006890F83200484505DC0198FEF7B4FB86
:103D70007820387004E00198FEF7AEFB0020387020
:103D8000BEE7B9F1FF0F67D095F808B06C6894F8FA
:103D90003200484560DD2848006890F832005845F8
:103DA0005ADA94F83480284810F8080094F835104E
:103DB0000840B0B1244810F8080094F83510884342
:103DC000214901F80800084610F8080030B994F8B5
:103DD00036101E48007888431C4908704FF0010ACD
:103DE00019E0E669AEB194F8348006F10B0010F8E2
:103DF000080094F83510884306F10B0101F808001B
:103E0000084610F8080020B9B07A94F836108843B4
:103E1000B0724FF0000A04F8329F2078C010A070F2
:103E2000207800F007006070A178012088402071A0
:103E3000617812E02D00002044000020341C002096
:103E4000180000203F00000038000020370000204C
:103E500035000020340000202CE001208840E07074
:103E6000323CBAF1010F10D13434A0788549097879
:103E700008438449087020788349085C61780843C6
:103E800014F83419804A505411E0E6697EB1B07AD2
:103E90003434A1780843B072217806F10B00405CFD
:103EA0006178084314F8342906F10B0188547748E7
:103EB00040F829407648006890F8300040F0100043
:103EC0007349096881F8300000207149096881F858
:103ED00031006F4903980968C8622846FEF720FF41
:103EE0000198FEF7F9FAFEF7D4FDFEF7F1FA01901A
:103EF0006748006890F8310020B1012809D00228F5
:103F000006D102E0002038700BE00E20387008E087
:103F100000BF29465E480068FEF7B4FE0A203870EC
:103F200000BF00BF00205A49096881F83000584995
:103F3000096881F8310056490968C8610198FEF79F
:103F4000CBFA00BFDCE62DE9F041044600275148DA
:103F5000007810B10520BDE8F0810CB90420FAE723
:103F60002078042801D00120F5E7FEF7B1FA0746D2
:103F700020890512267A464960680968884204D07B
:103F80003846FEF7A9FA6420E5E7FF2D0ED0404839
:103F9000006890F83200A84204D131463C480068DD
:103FA000FFF7D5FD0120394941F82500A07A18B363
:103FB0000023102219462046FEF779FE0646208986
:103FC00000F47F4020812089304320812F4850F821
:103FD00026006060FF2D08D0AE4206DC3846FEF7B2
:103FE0007BFAFEF756FD7820B5E73846FEF774FAFF
:103FF000FEF74FFD0020AEE7208940F0FF00208152
:10400000002060603846FEF767FA0020A3E72DE93C
:10401000F04705460C464FF000091E48007810B1E5
:104020000620BDE8F0870DB90420FAE70CB9092095
:10403000F7E72878042801D00120F2E7FEF748FAD4
:10404000814628890012E071287AA071A079FF28A2
:1040500002D10120607101E000206071A87A207116
:1040600005F10B082646002705E018F8010B06F8B5
:10407000010B781CC7B2042FF7D34846FEF72CFA81
:104080000020CEE73700002038000020341C00203C
:10409000440000202D0000202DE9F04106460D4689
:1040A0004FF0000826B9042028700020BDE8F081F8
:1040B0003078022803D0012028700020F6E7FEF7B0
:1040C00007FA80467468E08A78B12169081D20618A
:1040D0000F68E08A401EE082A1682069884201D111
:1040E000606820610020287002E01F2028700027EF
:1040F0004046FEF7F1F93846D8E72DE9F04106468B
:104100000F464FF00008F948007810B10020BDE8D4
:10411000F081FEF7DDF98046F5480468006820B1BB
:10412000F34800684068F24908604046FEF7D4F959
:10413000FCB1FEF7CDF98046EE480568D5B10068C0
:104140000068EC4908604046FEF7C6F96E6006EB71
:104150008700A860EE602E61AF820020E882022016
:104160002070002020816560E3A020612046FEF7DA
:104170000FFE08E0DE4800686060DD4804604046ED
:10418000FEF7AAF900242046C1E72DE9F0470446CE
:10419000894615464FF0000A24B9042028702046AD
:1041A000BDE8F0872078022803D00120287020463F
:1041B000F6E7CE48007818B10F2028702046EFE7C8
:1041C000FEF786F98246A07A10B14FF0010801E0AF
:1041D0004FF00008B9F1000F03D0B9F1010F49D138
:1041E00021E0B8F1000F17D1C3A020616668C14873
:1041F00000683060BF48066000202070BC4800683E
:10420000606000202081BA4804605046FEF764F9DF
:1042100000202870002705E05046FEF75DF9492090
:10422000287027462DE005E00223042200212046C5
:10423000FEF73DFDA07A0028F6D1AFA020616668A8
:10424000AC4800683060AB48066000202070A84889
:104250000068606000202081A54804605046FEF799
:104260003BF9B8F1010F01D1FEF713FC00202870D3
:10427000002706E05046FEF72FF907202870274652
:1042800000BF00BF38468BE770B5054600260DB964
:10429000042070BD2878022801D00120F9E7FEF73C
:1042A00017F906466C686068E0606068206100206D
:1042B000E0823046FEF710F90020EAE72DE9F047EA
:1042C0000646884615464FF0000926B90420287096
:1042D0000020BDE8F0873078022803D00120287044
:1042E0000020F6E78148007818B1022028700020ED
:1042F000EFE78248007818B10D2028700020E8E729
:10430000FEF7E6F881467468E08A98B12169081DD5
:1043100020610F68E08A401EE082A168206988421F
:1043200001D1606820614846FEF7D6F80020287069
:104330003846CEE77248006890F8300040F004003C
:104340006F49096881F8300000206D49096881F8DB
:1043500031006B480068C0F82C803046FEF7E0FC66
:104360004846FEF7B9F8FEF794FBFEF7B1F8814630
:104370006348006890F8310020B101280DD0022870
:104380000AD105E05E480068076A002028700DE049
:1043900000270E20287009E000BF31465848006809
:1043A000FEF770FC00270A20287000BF00BF002025
:1043B0005349096881F830005149096881F8310092
:1043C0004F490968C8614E49096808624846FEF7C6
:1043D00083F838467DE72DE9F04104460F4615463F
:1043E0004FF0000824B9042028700020BDE8F081B7
:1043F0002078022803D0012028700020F6E7FEF77D
:1044000067F88046A07A20B300267FB1012F0CD137
:1044100007E00223042200212046FEF748FC701C1E
:10442000C6B2A07A0028F4D109E000BF022304221A
:1044300000212046FEF73BFC701CC6B200BF00BF47
:104440004046FEF749F8FEF724FB0E202870304660
:10445000CCE74046FEF740F80020287000BFC5E7D3
:104460002DE9F04105460E46002715B90420BDE8A8
:10447000F0812878022801D00120F8E7FEF728F81B
:104480000746A87A60B10023042231462846FEF789
:104490000EFC3846FEF720F8FEF7FBFA0020E6E7B0
:1044A0006C68E08AA18A884204DB3846FEF714F87B
:1044B0001E20DCE7E168081DE0600E60E08A401C19
:1044C000E082D4E90210884201D16068E060384699
:1044D000FEF702F80020CAE72DE9F04105460E4636
:1044E00000277DB90420BDE8F08100002D000020E8
:1044F000180000205C0000203F0000003400002075
:10450000440000202878022801D00120EBE7FDF7C5
:10451000DFFF0746A87A60B100230422314628460F
:10452000FEF7C5FB3846FDF7D7FFFEF7B2FA0020CD
:10453000D9E76C68E08AA18A884204DB3846FDF737
:10454000CBFF1E20CFE761682069884201D1A068B7
:1045500020612069001F206120690660E08A401CFC
:10456000E0823846FDF7B8FF0020BCE72DE9F041B6
:1045700005460F4616464FF0000815B90420BDE861
:10458000F0812878022801D00120F8E7FDF7A0FF8C
:104590008046A87AE8B106F0010050B105E000239A
:1045A000042239462846FEF782FBA87A0028F6D175
:1045B00005E00023042239462846FEF778FB4046F2
:1045C000FDF78AFF06F0040008B9FEF762FA002042
:1045D000D5E76C68E08AA18A884204DB4046FDF793
:1045E0007BFF1E20CBE706F0020058B1616820690E
:1045F000884201D1A06820612069001F20612069E4
:10460000076009E0E168081DE0600F60D4E902106E
:10461000884201D16068E060E08A401CE082404648
:10462000FDF75AFF0020AAE72DE9F04705460C46A2
:104630004FF0000A15B90420BDE8F0870CB9092035
:10464000FAE72878022801D00120F5E7FDF740FFBE
:104650008246A87A207305F10B0804F108090027A7
:1046600005E018F8010B09F8010B781CC7B2042FFC
:10467000F7D36E68F08A18B130690068206001E0F5
:1046800000202060F08AA080B08AE0805046FDF7CC
:1046900023FF0020D0E72DE9F04160211048FEF70C
:1046A0008CF800240DE0601C86B204EB44000C4939
:1046B00001EBC00506EB460001EBC0072F60601C54
:1046C00084B2032CEFD304EB4400054901EBC00591
:1046D00000202860084603490860BDE8F08100001A
:1046E000142300205C00002070B5044600260CB99D
:1046F000002070BD2078032801D00020F9E7FDF7E5
:10470000E7FE0646258915B12089401E20813046E6
:10471000FDF7E2FE2846ECE770B505460026E348C3
:10472000007808B1002070BDFDF7D2FE0646E048D3
:104730000468006820B1DE4800684068DC49086011
:104740003046FDF7C9FE4CB10320207025810020C2
:104750006060D8A020612046FEF71AFB2046E2E701
:104760002DE9F0470446884615464FF0000924B964
:10477000042028702046BDE8F0872078032803D065
:10478000012028702046F6E7C848007818B10F20AD
:1047900028702046EFE7FDF79BFE8146A07A08B11E
:1047A000012700E00027B8F1000F03D0B8F1010F96
:1047B0003AD119E08FB9BFA0206100202070BC4819
:1047C0000068606000202081B94804604846FDF719
:1047D00083FE00202870002605E04846FDF77CFE99
:1047E00049202870264626E005E002230122002108
:1047F0002046FEF75CFAA07A0028F6D1ADA0206131
:1048000000202070AA480068606000202081A8482D
:1048100004604846FDF760FE012F01D1FEF739F92B
:1048200000202870002606E04846FDF755FE0720C8
:104830002870264600BF00BF30469CE72DE9F041B6
:1048400005460E46144600271DB904202070BDE819
:10485000F0812878032802D001202070F7E79348E0
:10486000007810B102202070F1E79348007810B171
:104870000D202070EBE7FDF72BFE0746288940B19D
:104880002889401E28813846FDF726FE002020702A
:10489000DDE78A48006890F8300040F00100874961
:1048A000096881F8300000208449096881F83100E6
:1048B00082480068C6622846FEF732FA3846FDF79D
:1048C0000BFEFEF7E6F8FDF703FE07467B4800689F
:1048D00090F8310020B1012809D0022806D102E069
:1048E000002020700BE00E20207008E000BF294659
:1048F00072480068FEF7C6F90A20207000BF00BFAA
:1049000000206E49096881F830006C49096881F817
:1049100031006A490968C8613846FDF7DDFD00BF0E
:1049200095E72DE9F04104460F4615464FF0000883
:1049300024B9042028700020BDE8F08120780328E5
:1049400003D0012028700020F6E7FDF7C1FD804666
:10495000A07A20B300267FB1012F0CD107E00223FB
:10496000012200212046FEF7A2F9701CC6B2A07AEF
:104970000028F4D109E000BF0223012200212046D3
:10498000FEF795F9701CC6B200BF00BF4046FDF7A8
:10499000A3FDFEF77EF80E2028703046CCE7404697
:1049A000FDF79AFD0020287000BFC5E770B50446EA
:1049B00000250CB9042070BD2078032801D0012007
:1049C000F9E7FDF785FD0546A07A60B100230122D5
:1049D00019462046FEF76BF92846FDF77DFDFEF7E8
:1049E00058F80020E7E720894FF6FF71884207D288
:1049F0002089401C20812846FDF76EFD0020DAE763
:104A00002846FDF769FD3320D5E72DE9F047044638
:104A10000D464FF0000914B90420BDE8F0870DB928
:104A20000920FAE72078032801D00120F5E7FDF7F7
:104A30004FFD8146A07AA87104F10B0705F1020829
:104A4000002605E017F8010B08F8010B701CC6B230
:104A5000042EF7D3208928804846FDF73DFD00202D
:104A6000DBE72DE9F04104460E46154600271CB948
:104A700004202870BDE8F0812078032802D00120AE
:104A80002870F7E7FDF724FD0746002028702089ED
:104A900008B1268105E0A07A08B9268101E0492005
:104AA00028703846FDF718FD00BFE3E72D00002011
:104AB000180000203F0000003400002044000020C7
:104AC0002DE9FF5F81460F4600200090B9F11F0FCE
:104AD00006DBB9F1FF0F03D02A2004B0BDE8F09F38
:104AE0001F2F01DB2A20F8E7FDF7F2FC0090F848C1
:104AF00050F8270020B10098FDF7EEFC2820ECE7E5
:104B0000B9F1FF0F03D1F348006890F83290F048F4
:104B100050F8294024B90098FDF7DEFC2920DCE795
:104B2000012C04D10098FDF7D7FC4320D5E74FEACC
:104B3000E70807F007000390012000FA08F000F0F2
:104B4000FF0A01210398814001F0FF0B0020E0499A
:104B500041F82900084640F8274014F8346FA0783F
:104B600002906078343C0190DB48815D01980140FF
:104B7000E1B1D948805D01998843D74988550846F5
:104B8000805D28B9D548007802998843D3490870D8
:104B9000D248007840EA0A00D0490870CE4810F8A0
:104BA000080040EA0B00CC4901F80800E569E5B1CE
:104BB00005F10B00805D0199884305F10B018855D3
:104BC0000846805D18B9A87A02998843A872A87A25
:104BD00040EA0A00A87205F10B0010F8080040EA4C
:104BE0000B0005F10B0101F8080084F8327084F81D
:104BF0003480039884F8330084F836A084F835B004
:104C00000098FDF769FCB6480078012801D1FDF74E
:104C100040FF002061E72DE9FE4F06460F46904613
:104C20001C464FF000091F2C02DD2A20BDE8FE8F34
:104C3000FDF74EFC8146AB48007820B14846FDF7B1
:104C40004BFC3C20F2E7A24850F8240060BB012056
:104C50009F4941F824004846FDF73EFC00234246A8
:104C600039463046FDF7BFFB824600200090019098
:104C700003460246514602902046FEF7A1F805463B
:104C800035B99748007801280CD1FDF702FF09E0FB
:104C9000FDF71EFC814600208D4941F8240048465E
:104CA000FDF71AFC2846C1E74846FDF715FC282009
:104CB000BCE702F0010343B102F002032BB102E0B2
:104CC000491E002308C00029FAD170472DE9F04F92
:104CD00085B081468A4693461C46DDE90F78129DD1
:104CE000002003901F2C03DD2A2005B0BDE8F08FC3
:104CF000FDF7EEFB03907B48007820B10398FDF7A9
:104D0000EBFB3C20F1E7724850F8240088BB0120FF
:104D10006F4941F824000398FDF7DEFB2A4641461F
:104D20003846FFF7C6FF2B465A4651464846FDF720
:104D30005AFB04901198CDE9008002953A4620462E
:104D40000E9B0499FEF73CF8064636B96448007895
:104D500001280CD1FDF79DFE09E0FDF7B9FB03909A
:104D600000205B4941F824000398FDF7B5FB30466D
:104D7000BBE7FFE70398FDF7AFFB2820B5E72DE978
:104D8000F041054600275748007810B14020BDE8A3
:104D9000F0811F2D01D13E20F9E71F2D03DBFF2DF0
:104DA00001D02A20F3E7FDF793FB0746FF2D03D13F
:104DB0004848006890F83250454850F8254024B9DA
:104DC0003846FDF789FB4320E1E7012C04D1384642
:104DD000FDF782FB3D20DAE714F8340F3E49085C0A
:104DE0006178884321783C4A505414F834091146BC
:104DF000085C30B994F83610384800788843374951
:104E00000870E06918B12046E169FDF73BFF666A6A
:104E100016B13046FEF746F90020E06284F8300013
:104E200084F8310030480078FF2804D22E480078FA
:104E3000401C2D4908703846FDF74EFBFDF721FF59
:104E4000FDF746FB07462848007820B12648007841
:104E5000401E254908702046FDF7C1FA2348007816
:104E6000401E224908700020194941F82500A06918
:104E700030B90020616988611D496069086005E0FA
:104E8000D4E905014861D4E9051088611948006832
:104E900060611848046018A0E0643846FDF71CFB08
:104EA0000F480078012801D1FDF7F3FD00206EE7DF
:104EB0002DE9F041044600271F2C02D13E20BDE819
:104EC000F0811F2C1ADBFF2C18D02A20F7E70000F6
:104ED000341C00204400002038000020370000204F
:104EE0003C0000202D000020340000203D00002068
:104EF00050000020480000203F000000FF2C0BD194
:104F0000FDF7E6FA0746F948006890F8376038463A
:104F1000FDF7E2FA3046D2E7FDF7DAFA0746F44841
:104F200050F8245025B93846FDF7D6FA4320C6E795
:104F3000012D04D13846FDF7CFFA3D20BFE73F20D1
:104F400085F837003846FDF7C7FA0020B7E72DE9A6
:104F5000F04705460E4614464FF000081F2D06DDAB
:104F6000FF2D04D02A2020700020BDE8F0871EB954
:104F70000C2020700020F8E7DE48007818B11120DE
:104F800020700020F1E7FDF7A3FA8046FF2D03D142
:104F9000D648006890F83250D54850F8257037B997
:104FA0004046FDF799FA432020700020DDE7012FED
:104FB00006D14046FDF790FA432020700020D4E748
:104FC000F86C30603068FDF7D5FA81464046FDF751
:104FD00083FA002020704846C7E72DE9F0410546D6
:104FE0000F4614464FF000081F2D05DDFF2D03D09E
:104FF0002A202070BDE8F08117B90C202070F9E755
:10500000BC48007810B112202070F3E7FDF760FA79
:105010008046FF2D03D1B548006890F83250B4485F
:1050200050F825602EB94046FDF756FA432020700F
:10503000E0E7012E05D14046FDF74EFA43202070EF
:10504000D8E7F7644046FDF747FA0020207000BF1C
:10505000D0E770B5054600261F2D01DB2A2070BD64
:10506000FDF736FA0646A24850F8254024B93046E6
:10507000FDF732FA4620F2E7012C04D13046FDF765
:105080002BFA4320EBE794F8300000F0080060B3FF
:1050900014F8300F00F0F700207014F83009F8B958
:1050A000E06AC8B93434A078934909780843924932
:1050B000087020789149085C6178084314F8341925
:1050C0008E4A50543046FDF707FA8D480078012883
:1050D00009D1FDF7DEFC06E03046FDF7FDF902E000
:1050E0003046FDF7F9F90020B9E73046FDF7F4F94D
:1050F0004420B4E72DE9F04706460C464FF0000A7D
:105100001F2E04DDFF2E02D02A20BDE8F0870CB947
:105110000920FAE7002020606060FDF7D9F9824697
:10512000FF2E03D17148006890F83260704850F843
:10513000265025B95046FDF7CFF94320E5E7012D6C
:1051400004D15046FDF7C8F94320DEE7287C00F083
:10515000010020B95046FDF7BFF94520D5E70027EB
:10516000D5F80C90D5F808805046FDF7B5F900E069
:105170007F1C58F8041B0029FAD02760A9EB070010
:1051800060600020C1E72DE9F04105464FF00008BE
:105190001F2D02D14720BDE8F0811F2D03DBFF2D1D
:1051A00001D02A20F7E7FDF793F98046FF2D05D1BE
:1051B0004E48006890F83250012608E04B480068DD
:1051C00090F83200A84201D1012600E000264848AC
:1051D00050F8254024B94046FDF77EF94820DAE72B
:1051E000012C04D14046FDF777F94320D3E794F82A
:1051F00034704248C05D94F8351088433F49C85523
:105200000846C05D30B994F836103B4800788843B2
:105210003949087094F8300040F0080084F83000F4
:105220004046FDF759F9012E01D1FDF732FC00206F
:10523000B1E72DE9F04104460E4600271F2C04DD9E
:10524000FF2C02D02A20BDE8F0810EB90920FAE730
:10525000FDF73EF90746FF2C03D12448006890F87B
:105260003240234850F8245025B93846FDF734F928
:105270002920E8E7012D04D13846FDF72DF9432018
:10528000E1E7542229463046FDF790FD3846FDF708
:1052900023F90020D7E72DE9F04704460E461546CE
:1052A0004FF000091F2C06DBFF2C04D02A202870A9
:1052B0000020BDE8F0871EB1082028700020F8E724
:1052C000FDF706F98146FF2C02D10848076802E085
:1052D000074850F8247007F1500050F826804846DF
:1052E000FDF7FAF8002028704046E2E7440000206D
:1052F000341C00202D000020370000203800002042
:105300003C00002070B504460026FDF7E1F8064693
:105310002448007830B1962020703046FDF7DCF844
:10532000012070BD1F4805780078401C1D49087099
:105330003046FDF7D1F8002020702846F1E72DE92E
:10534000F04704460E4690461D464FF000091F2CBC
:1053500005DBFF2C03D02A202870BDE8F08716B1AA
:1053600008202870F9E7FDF7B3F88146FF2C02D139
:105370000D48076802E00D4850F8247007F150000E
:1053800040F826804846FDF7A7F80020287000BFA7
:10539000E3E710B504480068FDF723F8FF20FFF7A6
:1053A000EEFC10BD6000002044000020341C0020F2
:1053B00070B5054600266C48007800B170BD6B489A
:1053C000007800B1FAE71DB3FDF782F80646684899
:1053D000006890F834406748005D6549096891F8B5
:1053E00035108843634908550846005D40B9604858
:1053F000006890F836106048007888435E4908706D
:105400005B480068C5623046FDF766F8FDF741FB72
:1054100000BFD3E72DE9F04107460D4616461C466E
:105420005148007810B15520BDE8F0814F48007810
:1054300008B13220F8E727B91DB916B90CB95420C4
:10544000F2E73B2D01D95120EEE73B2E01D9522046
:10545000EAE7B4F57A7F01D35320E5E74FF47A7099
:1054600060434FF47A71B0FBF1F14FF4616078431F
:10547000C5EB051200EB8200304400EB4002C2EBAA
:10548000C01001EBC0084046FFF792FF0020CBE7B9
:1054900070B5054600261F2D01DB2A2070BDFDF7E3
:1054A00017F80646354850F8254024B93046FDF730
:1054B00013F84320F2E7012C04D13046FDF70CF835
:1054C0004320EBE7E06A20B93046FDF705F85020AD
:1054D000E4E70020E06294F8300000F0370040B1CB
:1054E00014F8300F20F03700207001206070303C3D
:1054F00002E0002084F8310094F8300000F0080049
:10550000A8B93434A0781C49097808431A490870AE
:1055100020781849085C6178084314F83419154A52
:1055200050543046FCF7D8FFFDF7B3FA02E030469E
:10553000FCF7D2FF0020B1E770B50025FCF7C8FFEB
:1055400005460F4804682846FCF7C6FF204670BD94
:1055500070B504460025FCF7BBFF0546084804600B
:105560002846FCF7B9FF70BD2D0000203400002054
:10557000440000203800002037000020341C0020A8
:1055800064000020704700BFFEE700BFFEE700BFD9
:10559000FEE700BFFEE77047704710B5FCF798FFC5
:1055A000044609480068401C07490860074800781D
:1055B000401C064908702046FCF78EFFFDF7F5FAFF
:1055C000FDF7C5F910BD0000300000202D000020BF
:1055D0000CB50020019000906C48006840F48030C9
:1055E0006A49086000BF6948006800F40030009014
:1055F0000198401C0190009818B90198B0F5A06F6F
:10560000F1D16248006800F4003010B10120009030
:1056100001E0002000900098012843D15C48006818
:1056200040F010005A4908600846006820F0030066
:1056300008600846006840F002000860534840686F
:10564000524948600846406848600846406840F44F
:10565000806048600846406820F47C104860084636
:10566000406840F4E81048600846006840F08070E8
:10567000086000BF4548006800F000700028F9D0BD
:105680004248406820F003004049486008464068AE
:1056900040F00200486000BF3C48406800F00C0049
:1056A0000828F9D10CBD10B5FFF792FF10BD10B559
:1056B0003648006840F001003449086008464068F8
:1056C000344908403149486008460068324908407A
:1056D0002E4908600846006820F4802008600846CB
:1056E000406820F4FE0048604FF41F008860FFF718
:1056F000DAFF4FF000602949086010BD10B50021A5
:1057000000200022214B5B6803F00C0121B1042929
:1057100006D0082928D107E0214B224C236027E03E
:105720001F4B204C236023E0184B5B6803F4701080
:10573000164B5B6803F48032022303EB904022B9DE
:10574000194B4343174C23600DE0104B5B6803F487
:10575000003323B1144B4343124C236003E0104B3E
:105760004343104C236003E00D4B0E4C236000BFFD
:1057700000BF064B5B68C3F303130C4CE15C094BA1
:105780001B68CB40074C236010BD00000010024096
:10579000002002400000FFF8FFFFF6FE08ED00E0E9
:1057A00000127A006800002000093D006C00002013
:1057B0000648804706480047FEE7FEE7FEE7FEE7AB
:1057C000FEE7FEE7FEE7FEE7FEE7FEE7AF5600086E
:1057D000310100087FB504460D46164600200190B1
:1057E000029003900090012101FA04F0FBF78FFE74
:1057F000062C1CD2DFE804F003070B0F13171C2044
:105800008DF8000016E01D208DF8000012E01E202B
:105810008DF800000EE032208DF800000AE03620FE
:105820008DF8000006E037208DF8000002E000202F
:1058300004B070BD00BF4FF4A060FAF783FC0120F4
:105840008DF801008DF802008DF803006846FAF724
:105850007EFCA10201F18040FBF7B0FE01A8FCF73D
:10586000ADFAADF80850ADF804600020ADF80A00BC
:10587000ADF80600A10201F1804001A9FBF772FF1B
:10588000A10201F180400021FCF7C8FBA10201F157
:1058900080402021FCF73BFDA10201F18040012165
:1058A000FCF782FDA10201F1804001221146FCF7C4
:1058B000D0FA0120BCE770B504460D46A9B2A20299
:1058C00002F18040FCF740FD70BD10B50446A10216
:1058D00001F180400121FCF7A1FA10BD10B504468A
:1058E000A10201F180400021FCF798FAA10201F128
:1058F00080400121FCF76CFDA10201F180400021F4
:10590000FCF722FD10BD10B501218807FCF74FFD03
:1059100028B101218807FCF75BFD00F09EFF10BD58
:1059200010B501211E48FCF742FD28B101211C4899
:10593000FCF74EFD00F0A0FF10BD10B50121194885
:10594000FCF735FD28B101211648FCF741FD00F0B8
:10595000A2FF10BD10B501211348FCF728FD28B1A6
:1059600001211148FCF734FD00F0A4FF10BD10B573
:1059700001210E48FCF71BFD28B101210B48FCF763
:1059800027FD00F053FE10BD10B501210848FCF7BB
:105990000EFD18B101210648FCF71AFD10BD0000EC
:1059A0000004004000080040000C004000100040CF
:1059B00000140040F8B505460C461646072D01DBDD
:1059C0000020F8BD102C01DB0020FAE7032E01DBDC
:1059D0000020F6E7042101FA05F00121FBF78AFD1A
:1059E000022D0CD10D2C01D00E2C08D10120FBF77B
:1059F000B8FB0020FBF7EBFC0020FAF71CFC0120B1
:105A0000A04080B2ADF8000026B1012E06D0022ED3
:105A10000CD107E004208DF8030009E010208DF878
:105A2000030005E014208DF8030001E00020C8E722
:105A300000BF03208DF80200FE490A1502FB051085
:105A40006946FBF735FA022D06D10D2C01D00E2C3C
:105A500002D10020FBF785FB0120B2E72DE9FF47CB
:105A600080460F4600200390019002900090B8F10C
:105A7000070F02DB04B0BDE8F087102F01DB002028
:105A8000F8E7042101FA08F141F001000121FBF7D8
:105A900031FDB8F1020F0CD10D2F01D00E2F08D11E
:105AA0000120FBF75EFB0020FBF791FC0020FAF7DA
:105AB000C2FB0120B84080B2ADF80C0004208DF884
:105AC0000F0003208DF80E00DA490A1502FB0810BA
:105AD00003A9FBF7EDF9B8F1020F06D10D2F01D0A4
