:020000040800F2
:10000000A8FE0020214700089145000893450008FC
:100010009545000897450008994500080000000034
:100020000000000000000000000000009B450008E8
:100030009D450008000000006B1F00089F45000858
:100040003B4700083B4700083B4700083B47000888
:100050003B4700083B4700087B4B00089D4B0008CE
:10006000BF4B0008E14B0008034C00083B47000869
:100070003B4700083B4700083B4700083B47000858
:100080003B4700083B4700083B4700083B47000848
:10009000B14F00083B4700083B470008254C0008CB
:1000A0003B4700083B4700083B4700083B47000828
:1000B0004348000865480008874800083B47000897
:1000C0003B4700083B4700083B4700083B47000808
:1000D0003B4700086D52000893520008B5520008D3
:1000E0009F4C00083B4700083B4700083B4700087F
:1000F0003B4700083B4700083B4700083B470008D8
:100100003B4700083B470008A94800083B47000858
:100110001D5300083B470008CB480008ED48000885
:100120003B4700083B4700083B4700083B470008A7
:10013000DFF80CD00BF092FD00480047CDB100086D
:10014000A8FE00202849084328490860704770B578
:100150000F23C47801780122F4B1244C2468457837
:1001600004F4E064C4F5E064240AC4F10406E34046
:100170008478B5401C402C4301F1E021230181F833
:100180000034007800F01F018A404009800000F12F
:10019000E020C0F8002170BD01F01F008240480936
:1001A000800000F1E020C0F8802170BD104A1140AD
:1001B00001430E48001F016070470C4A121D0029C0
:1001C000116801D0014300E08143116070474FF096
:1001D000E0210428086903D020F00400086170477A
:1001E00040F00400FAE700000000FA050CED00E022
:1001F00080FFFF1F10B5012000F0FBFEBDE810409E
:10020000002000F0F6BE1F49086070471D49091F15
:10021000086070471B498431086070471A4A11888A
:1002200021F46071014311807047174A118821F051
:100230007F01014311807047134A08B52C3A1044DE
:100240000090016008BD104908B52C3908440090A1
:10025000008808BD0B489C300068C0B270470A484F
:100260000830018841F00101018070470548A03045
:100270000068C0B2704704480830018841F00201AC
:100280000180704704860D422C6C0040FE4910B579
:1002900088424FF0010101D14C0601E04FF080642B
:1002A000204600F09DFE2046BDE81040002100F0F1
:1002B00097BE10B50368002223F0020303600368B1
:1002C00043F0010303604FF6FF7300E0521C4468E3
:1002D000E40701D19A42F9D14268D2073ED08A7927
:1002E000012A02683CD022F080020260CA79012A09
:1002F000026838D022F0400202600A7A012A0268BD
:1003000034D022F0200202604A7A012A026830D0FA
:1003100022F0100202608A7A012A02682CD022F0B0
:1003200008020260CA7A012A026828D022F0040278
:1003300002608A78CC78920742EA04620C7942EA39
:1003400004424C79098842EA0452491E0A43C261B8
:10035000016821F001010160002114E0002010BDBE
:1003600042F08002C1E742F04002C5E742F02002BD
:10037000C9E742F01002CDE742F00802D1E742F0AF
:100380000402D5E7491C4268D20701D09942F9D14D
:100390004068C007E2D1012010BDF0B5827A01218A
:1003A0009140BA4A136843F001031360B74B1C3302
:1003B0001C688C431C60B54D067BB54C0C35A6B94A
:1003C0002E688E432E604688C78846EA0746877A9D
:1003D00004EBC707C7F840660688878846EA0746E1
:1003E000877A04EBC707C7F84466067B012E12D153
:1003F0002E680E432E60867A056804EBC6064FEA27
:100400003545C6F84056867A456804EBC6044FEA7F
:100410003545C4F844569D4CC57A241D002D2568E9
:1004200006D00D432560994C0589143415B104E0BC
:100430008D43F7E725688D4325600589012D02D19D
:1004400025680D432560407B012802D118680843C8
:100450001860106820F001001060F0BD002181716B
:10046000C171017241728172C1728170C1700321C8
:1004700001710221417101210180704783490A689D
:1004800042F001020A600A6843F60E739A430A605A
:100490000A6842EA00200860086820F0010008604D
:1004A00070470029016802D041F4803101E021F455
:1004B0008031016070470029016813D041F080014C
:1004C0000160D0F8841141F48071C0F88411D0F833
:1004D000941141F48071C0F89411D0F8A41141F442
:1004E000807112E021F080010160D0F8841121F4C4
:1004F0008071C0F88411D0F8941121F48071C0F893
:100500009411D0F8A41121F48071C0F8A41170479F
:1005100030B50246002093685B0108D49068000162
:1005200001D5012003E09068C00037D5022002EB1E
:100530000012D2F8803103F00103C2F880310B7A47
:1005400073B3D2F880414D681C434B7A43EAC5032C
:100550001C43C2F880418B7A03F00F038B72D2F8F0
:10056000843123F00F03C2F88431D2F884318C7ABD
:100570002343C2F88431CB7ACC6843EA0423C2F81F
:100580008831CB7B096943EA0121C2F88C11D2F88A
:10059000801141F00101C2F8801130BD042030BD4E
:1005A000D2F880314C7A23430C8843EA4453C2F892
:1005B0008031D0E7002221B1012905D0022906D1DE
:1005C00012E08268334801E08268334802403349D0
:1005D000501A8A4214D00ADCA2B16FF08060101861
:1005E0000FD002280CD10FE082682D48EEE7B0F55D
:1005F000007F09D02B49401803D0B0F5003F03D04D
:1006000000207047022070470120704741B1012946
:100610000AD0022903D1816841F40001816070474A
:10062000816841F08001F9E7816841F40041F5E714
:1006300010B500EB0113D3F8B04114F004041472A8
:10064000D3F8B04145D0E408C2F80440D3F8B04133
:1006500004F002045472D3F8B44104F00F0494720D
:10066000D3F8B441240AD474D3F8B841D472D3F87F
:10067000B841240A1473D3F8B841240C5473D3F846
:10068000B841240E94730FE00064004000660040FF
:10069000006000400300000400030008000100089F
:1006A000000003100001FFF7D3F8BC41D473D3F866
:1006B000BC41240A1474D3F8BC41240C5474D3F8FC
:1006C000BC311B0E937439B1016941F02001016105
:1006D00010BD640D1460B9E7C16841F02001C1602C
:1006E00010BD21B1016941F0200101617047C1686D
:1006F00041F02001C16070470246002029B1012964
:1007000002D1106900F003007047D068FAE70023B7
:100710004FF6FF7221B1012917D0022924D03AE007
:10072000016821F0020141F00101016000E0521E68
:10073000416801F00301012901D0002AF7D1406886
:1007400000F00300012823D124E0016821F0030117
:10075000016000E0521E4168890701D0002AF9D1EA
:100760004068800714D115E0016821F0010141F0D3
:100770000201016000E0521E416801F003010229FC
:1007800001D0002AF7D1406800F00300022801D010
:10079000002300E00123184670470268002122F080
:1007A000010242F002020260406800F003000228E9
:1007B00000D101210846704703684FF6FF710022FF
:1007C00023F00203036000E0491E43689B0701D544
:1007D0000029F9D14068800700D4012210467047F3
:1007E0008069C0F30210000170478069000E7047F5
:1007F0008069C0F307407047002A426901D00A436C
:1008000000E08A43426170470246002011F4700FF5
:1008100003D0926904E001207047CB0104D55268EF
:100820000A401103F7D170470B0101D59268F7E731
:100830008B0101D5D268F3E71269F1E7534A91427F
:1008400002D1002181617047C1F313028B0101D5F0
:10085000C26070474B0101D502617047090101D5A3
:1008600082607047426070470246002053690B4225
:100870004AD0B1F5807F3BD013DC08292ED007DCAD
:10088000012926D0022927D004293DD1D0682BE0A8
:10089000102925D0202926D0402935D110691021D2
:1008A00030E0B1F5004F2BD00BDCB1F5007F22D04A
:1008B000B1F5806F22D0B1F5006F25D1906970211C
:1008C00020E0B1F5803F11D0B1F5003F1CD1506858
:1008D000E5E790682E4915E0D06802E0D068DEE7D1
:1008E000106903210EE0106908210BE05068FBE756
:1008F0009069012106E09069022103E0906900E01F
:100900005068042100F03BB8704730B5082310242C
:100910000422B1F5007F1DD010DC202929D007DC8E
:10092000012921D0042922D0082900D1C46030BD7A
:10093000402920D0B1F5807FF9D10BE00025B1F539
:10094000004F06D008DCB1F5806F03D0B1F5006F21
:10095000EDD18561426030BDB1F5803F0DD0B1F57C
:10096000003FF8D1446030BD0949816030BDC360AB
:1009700030BD036130BD046130BD436030BD02460F
:1009800000200A4200D00120704700007000F030C3
:1009900001010100374900200860091D0860091D98
:1009A0000860091D086033493348143108607047F6
:1009B00030B530498379026853B30B6893430B60B9
:1009C0000A1D13680468A343136002790A4413687C
:1009D000046823431360274A083213680468A3435A
:1009E0001360131D1C680568AC431C604479102C0F
:1009F00005D021440A68006802430A6030BD1168CE
:100A0000046821431160196800680143196030BD12
:100A10000079084401689143016030BD0021016004
:100A200001710C22427181717047124910310A68BC
:100A300002430A60704701460E4A002014321268D1
:100A40000A4200D0012070470A49143108607047FB
:100A5000084A014600201268064B0A4014331B68FE
:100A60000B4202D0002A00D0012070470149143106
:100A70000860704700040140FFFF0F00914910B566
:100A8000884206D10121042000F0A1FA00210420AF
:100A90003BE08D49884206D10121082000F097FAF9
:100AA0000021082031E08949884206D10121102027
:100AB00000F08DFA0021102027E08549884206D1F8
:100AC0000121202000F083FA002120201DE081492F
:100AD000884206D10121402000F079FA002140200F
:100AE00013E07D49884206D10121802000F06FFA91
:100AF0000021802009E0794988420AD1841501212A
:100B0000204600F064FA00212046BDE8104000F0C5
:100B10005EBA10BD10B50121084600F058FA002158
:100B2000BDE81040012000F052BAF0B5CA780025A7
:100B300002F00F03D20601D58A7813430A784FF0EA
:100B40000F0E12F0FF0F4FF001021DD0D0F8004041
:100B50000F8802FA05F63740B74211D14FEA850CEB
:100B60000EFA0CF724EA070703FA0CF43C43CF789B
:100B7000282F02D0482F02D002E0466100E0066133
:100B80006D1C082DE4D304600C88FF2C1ED944682A
:100B90005FF0000606F1080702FA07F50F882F40FC
:100BA000AF420FD14FEA860C0EFA0CF7BC4303FAA2
:100BB0000CF73C43CF78282F00D14561CF78482FE0
:100BC00000D10561761C082EE4D34460F0BD4FF6D9
:100BD000FF710180022181700421C17070470246BB
:100BE000002092680A4200D001207047806880B2DD
:100BF000704702460020D2680A4200D001207047A8
:100C0000C06880B2704701617047416170470AB1A6
:100C10000161704741617047C160704741F48032A3
:100C20008261816182618169806970472C4B10B556
:100C30001A684FF68074224042EA00100843186098
:100C400010BD2849C8617047F0B5254C002801DA6D
:100C5000E36900E06368420D120185B2C0F30157F9
:100C60009540C0F30346032F05D0C2020AD50322E4
:100C7000B240934307E023F07062636823F070632F
:100C8000636002E0AB4343F0706201B12A43002885
:100C900001DAE261F0BD6260F0BD10B58A0721F0B3
:100CA00003040F49130F21440F228C689A40944388
:100CB0008C608A68984002438A6010BD0949C1F877
:100CC000DC00704700080140000C014000100140AA
:100CD0000014014000180140001C014000200140A8
:100CE000000001400000204210B501210C07204601
:100CF00000F076F92046BDE81040002100F070B900
:100D00002149086270472049086170471F4A1168ED
:100D100021F0E0010143116070471B49C1F8A000B8
:100D200070471A4B1A6822F0030202431A601848EF
:100D3000026842F004020260012905D020BF016868
:100D400021F004010160704730BFF8E70F480168E7
:100D500041F004010160016841F0020101600C48AA
:100D6000016841F00401016030BF7047074A014645
:100D7000002052680A4200D00120704703490A68E7
:100D800042EA80000860704700000E420070004098
:100D900010ED00E0A448016841F0010101604168E4
:100DA000A24A114041600168A14A114001600168F6
:100DB00021F480210160416821F4FE0141604FF47B
:100DC0001F018160704798490A6822F480320A60E6
:100DD0000A6822F480220A60B0F5803F07D0B0F59F
:100DE000802F03D1086840F4A0200860704708688D
:100DF00040F48030F9E70246002053098A49012B6C
:100E00000AD0022B0AD0496A02F01F020123934044
:100E10000B4200D0012070470968F5E7096AF3E743
:100E200018B500204FF4A06400903120FFF7E3FFD5
:100E30000099491C0091A14201D00028F5D0312031
:100E4000FFF7D9FF002800D0012018BD76490A68B5
:100E500022F0F80242EAC000086070477549086055
:100E60007047714A5368084323F47C131843506059
:100E700070477049086670476B4A516821F003015A
:100E80000143516070476848406800F00C007047AB
:100E9000654A516821F0F001014351607047624A90
:100EA000516821F4E0610143516070475E494A682E
:100EB00022F4605242EAC000486070475A4A002952
:100EC000517A01D0014300E0814351727047594982
:100ED000C1F8D8007047544A516821F44041014399
:100EE000516070475049002281F8202081F820206D
:100EF000012802D0042802D1052081F82000704783
:100F00004D490860704748490A6A02430A627047BF
:100F1000494944390860704730B543494A6812F07E
:100F20000C03464A03D0042B01D0082B21D00260C9
:100F30004A680F23424C03EA1212A35C0268DA40AB
:100F400042604B68072505EA1323E35C22FA03F3AA
:100F500083604B6805EAD323E35CDA40C2604968EA
:100F6000032303EA9131231F595CB2FBF1F10161C4
:100F700030BD4A684B6802F470124FF0020413F45B
:100F8000803F04EB924202D04B689B0301D52D4B6E
:100F900000E02A4B5A43CAE7234A0029516901D08D
:100FA000014300E08143516170471F4A0029916964
:100FB00001D0014300E08143916170471A4A002942
:100FC000D16901D0014300E08143D1617047164AE5
:100FD0000029D16801D0014300E08143D16070470E
:100FE000114A0029116901D0014300E081431161D8
:100FF000704711494039086070470E49C86470470E
:101000000949C87170470848416A41F080714162DE
:101010007047054A0146002092680A4200D001202C
:101020007047014988727047001002400000FFF8C5
:10103000FFFFF6FE000042428004424200127A00A6
:101040000400002000093D00F94910B5884202D192
:101050000121C41486E0B0F1804F09D0F5498842DF
:101060000DD101210220FFF7BBFF0021022064E027
:1010700001210846FFF7B4FF002101205DE0EE49A1
:10108000884206D101210420FFF7AAFF0021042095
:1010900053E0EA49884206D101210820FFF7A0FF6A
:1010A0000021082049E0E649884206D101211020AC
:1010B000FFF796FF002110203FE0E249884206D169
:1010C00001212020FFF78CFF0021202035E0DE49A0
:1010D000884202D10121441444E0DC49884202D113
:1010E0000121CC043EE0DA49884202D101210C05FD
:1010F00038E0D849884202D101214C0532E0D64976
:10110000884206D101214020FFF76AFF00214020DC
:1011100013E0D249884206D101218020FFF760FF09
:101120000021802009E0CE4988420AD1841501219E
:101130002046FFF755FF00212046BDE81040FFF78D
:101140004FBFC849884202D101210C040AE0C649B8
:10115000884202D101214C0404E0C44988420AD1EA
:1011600001218C042046FFF732FF2046BDE81040E5
:101170000021FFF72CBF10BD30B50288AC4BB24C3C
:1011800098420DD0A0420BD0B0F1804F08D0A94DAD
:10119000A84205D0A84DA84202D0A84DA84203D12C
:1011A00022F070054A882A43A54DA84206D0A54DD5
:1011B000A84203D022F44075CA882A4302808A8854
:1011C00082850A88028598420AD0A04208D0A54AA2
:1011D000904205D0A44A904202D0A44A904201D144
:1011E000097A01860121818230BD30B5028C22F05E
:1011F00001020284028C8388048B22F0020224F014
:1012000073050C882C430D8915434A882A43884D61
:10121000A8420BD08C4DA84208D0924DA84205D0D0
:10122000914DA84202D0914DA8420DD122F008055F
:101230004A8923F440732A4322F004058A882A430A
:101240008D891D43CB892B4383800483C988818684
:10125000028430BD70B5028C22F010020284028C30
:101260008488038B0D8823F4E6464FF6FF7303EA68
:10127000052535430E8922F0200203EA061616439F
:101280004A8803EA02123243694EB04202D06E4EDF
:10129000B04215D122F080064A8924F4406403EA62
:1012A0000212324322F040068A8803EA02123243D5
:1012B0008E8903EA86062643CC8903EA84043443F4
:1012C00084800583C9880187028470BD70B5028C53
:1012D00022F480720284028C8488838B0D8823F030
:1012E00073031D4322F400730E894FF6FF7202EA66
:1012F00006261E434B8802EA032333434C4EB0427A
:1013000002D0514EB04215D123F400664B8924F42B
:10131000405402EA0323334323F480668B8802EAB5
:10132000032333438E8902EA06162643CC8902EA58
:101330000414344384808583C9888187038470BD05
:1013400070B5028C22F480520284048C8288838BD4
:101350000D8823F4E6464FF6FF7303EA052535436F
:1013600024F400560C8903EA043434434E8803EA1B
:10137000063626432E4CA04202D0334CA04205D163
:1013800022F480448A8903EA821222438280858380
:10139000C988A0F84010068470BD828B22F4406298
:1013A0008283828B4FF6FF7303EA01210A43828313
:1013B0007047828B22F00C028283828B0A438283E5
:1013C0007047028B22F440620283028B4FF6FF7358
:1013D00003EA01210A4302837047F0B5048C24F02C
:1013E00010040484078B048C4FF6FF7527F47347B1
:1013F00005EA03333B4305EA02221A430C4B05EA94
:10140000011698420ED0104B98420BD0B0F1804F8D
:1014100008D0084B984205D0074B984202D0074BA2
:10142000984225D124F02001314341F0100124E0FD
:10143000002C01400004004000080040000C004067
:10144000001000400014004000340140004C0140F6
:10145000005001400054014000180040001C0040B2
:10146000002000400040014000440140004801408D
:1014700024F0A0030B4343F0100102830184F0BD6C
:10148000028B22F00C020283028B0A430283704714
:1014900070B5048C24F001040484058B048C4FF691
:1014A000FF7606EA0313134325F0F305F94A2B43AD
:1014B00090420ED0F84A90420BD0B0F1804F08D045
:1014C000F64A904205D0F64A904202D0F54A904240
:1014D00002D124F0020201E024F00A020A4342F0A1
:1014E00001010383018470BD2DE9F05F0D460446C0
:1014F0000888E84FDFF8A0C3DFF8A0834988AA88EE
:101500002B894FF0804960B3042832D04FF6FF7E1C
:10151000082836D0208C9B4620F480502084A38B52
:10152000268C704600EA022223F473431A4300EA31
:101530000B3010430EEA013EBC420BD0644509D08B
:101540004C4507D0444505D0D54A944202D0D54BEE
:101550009C4245D126F4005141EA0E0141F48051EC
:1015600043E02046FFF794FFE9882046BDE8F05F9E
:1015700086E72046FFF731FFE9882046BDE8F05FA7
:101580001FE7208C20F480702084B4F81CA0208CED
:101590000EEA031313432AF0F30A0EEA012B43EA7F
:1015A0000A03BC420BD0644509D04C4507D04445E2
:1015B00005D0BB4A944202D0BA4A944204D120F4E6
:1015C000007040EA0B0002E020F42060084340F481
:1015D0008070A3832084E9882046BDE8F05FE8E6B8
:1015E00026F402420A4342F48051A083204621841B
:1015F000E988BDE8F05FD0E62DE9F0410C46002611
:1016000049880746012501B90226A288012A00D18E
:101610000225208823890028384610D0FFF7DDFEF8
:10162000E1883846FFF7CDFE23892A463146384601
:10163000FFF72EFFE1883846BDE8F04120E7FFF7CD
:1016400027FFE1883846FFF71BFF23892A463146EA
:101650003846FFF7C2FEE1883846BDE8F041B0E603
:1016600010B50A884B88CC881A438B8823431A43C9
:101670000B891A434B8989891A430A43A0F84420ED
:1016800010BD4FF6FF71818000210180C180418033
:10169000017270470021018041808180C1800181F9
:1016A00041818181C18170470021018041800122F7
:1016B0008280C1800181704700210180418081804A
:1016C000C18001814181818170470029018802D058
:1016D00041F0010101E021F0010101807047002982
:1016E00030F8441F02D041F4004101E0C1F30E0183
:1016F00001807047002A828901D00A4300E08A43B2
:1017000082817047818270471143A0F8481070476A
:10171000002A828901D00A4300E08A43828170470F
:10172000018921F0070101817047028922F07002CE
:101730000A430281704700B50346FFF7F6FF188998
:1017400040F00700188100BD70B516460D466029AF
:1017500004464FF0010231460AD0FFF799FE2946B0
:101760002046FFF7E2FF208940F00700208170BD8E
:10177000FFF733FEF3E730B504894FF6FF7505EA4E
:1017800003231343E4B20B432343038130BD10B55D
:101790000446FFF7F0FF208940F07700208110BD5C
:1017A00010B50446FFF7E7FF208940F48040208110
:1017B00010BD018582827047028822F070020A43C0
:1017C0000280704770B50589048B068C25F00705EB
:1017D0000D434FF6FC410C4040F201110C434FF613
:1017E000FF7101EA031126F02206114331430581FE
:1017F0000483018470BD028B22F070020A430283CD
:101800007047028B4FF6FF7322F4E04203EA012196
:10181000114301837047828B22F070020A43828356
:101820007047828B4FF6FF7322F4E04203EA0121F6
:101830001143818370470029018802D041F0800163
:1018400001E021F08001018070470029818802D0E9
:1018500041F0040101E021F004018180704700297A
:10186000818802D041F0080101E021F00801818067
:1018700070470029818802D041F0010101E021F088
:10188000010181807047028B22F008020A43028323
:1018900070470000002C014000340140000400406B
:1018A00000080040000C0040028B4FF6FF7322F44A
:1018B000006203EA012111430183E9E7828B22F0F0
:1018C00008020A438283E3E7828B4FF6FF7322F418
:1018D000006203EA012111438183D9E7028B22F0E0
:1018E00004020A430283D3E7028B4FF6FF7322F40C
:1018F000806203EA012111430183C9E7828B22F050
:1019000004020A438283C3E7828B4FF6FF7322F4FB
:10191000806203EA012111438183B9E7028B22F03F
:1019200080020A430283B3E7028B4FF6FF73C2F3D0
:101930000E0203EA012111430183A9E7828B22F001
:1019400080020A438283A3E7828B4FF6FF73C2F3C0
:101950000E0203EA01211143818399E7028C22F0F0
:1019600002020A43028493E7028C22F008020A432F
:1019700002848DE7028C4FF6FF7322F0200203EA07
:1019800001111143018483E7028C4FF6FF7322F0AB
:10199000800203EA01111143018479E7028C4FF6BA
:1019A000FF7322F4007203EA0121114301846FE7FF
:1019B000028C4FF6FF7322F4006203EA0121114307
:1019C000018465E7028C4FF6FF7322F4005203EAAC
:1019D0000131114301845BE710B50123048C8B4076
:1019E0009C430484038C8A401343038410BD10B5C8
:1019F0000423048C8B409C430484038C8A4013434F
:101A0000038410BD30B50124058C00F118038C400F
:101A1000A543058489B108290FD0091FC1F34E00E1
:101A20001844016821F4E041016001684FF6FF733A
:101A300003EA02221143016030BD03EB510001684B
:101A400021F0700101600168F4E70029018802D0EB
:101A500041F0020101E021F00201018018E70029B4
:101A6000018802D041F0040101E021F0040101806D
:101A70000EE70029818802D041F0800101E021F0C9
:101A80008001818004E7028822F008020280028837
:101A90000A430280FCE6828822F0700282808288FB
:101AA0000A438280F4E6028922F007020281028959
:101AB0000A430281ECE6028922F080020281028957
:101AC0000A430281E4E68184E2E68185E0E68186DC
:101AD000DEE60187DCE68187DAE6A0F84010D7E68B
:101AE000028822F44072028002880A430280CFE614
:101AF000808ECDE6008FCBE6808FC9E6B0F840003F
:101B0000C6E6808CC4E6008DC2E602460020128A3A
:101B10000A4200D00120BBE6C9430182B8E6024672
:101B20000020138A92890B4202EA010202D0002AA5
:101B300000D00120ACE6C9430182A9E6C44910B532
:101B400088420AD101218C032046FFF740FA204643
:101B5000BDE810400021FFF73ABABE49884202D1E1
:101B600001214C0410E0BC49884202D101218C04BF
:101B70000AE0BA49884202D10121CC0404E0B84904
:101B800088420AD101210C052046FFF729FA204698
:101B9000BDE810400021FFF723BA10BD30B5044660
:101BA000008A85B00D464CF6FF710840E988014374
:101BB0002182A1894EF6F3100140A8882A8910439A
:101BC0006A890A431043A081A08A4FF6FF4108406A
:101BD000A9890143A1826846FFF79EF99C48844287
:101BE00001D1039800E00298A189090400EBC0012B
:101BF00001EB0010296801D5490000E08900B0FB25
:101C0000F1F06422B0FBF2F109010B096FF0180545
:101C10006B4300EB8300A3891D044FF0320306D50C
:101C200003EBC000B0FBF2F000F0070005E003EBAF
:101C30000010B0FBF2F000F00F000843208105B067
:101C400030BD4FF41651016000218180C1800181B7
:101C50000C2242818181704710B5038A4FF2FF0246
:101C600013400A884C8822438C88C9880C4322433D
:101C70001A43028210BD0021018041808180C18011
:101C800070470029818902D041F4005101E021F41C
:101C900000518181704710B5C1F3421301F01F0458
:101CA0000121A140012B07D0022B07D01430002ABC
:101CB000026805D00A4304E00C30F8E71030F6E77C
:101CC0008A43026010BD002A828A01D00A4300E0E4
:101CD0008A4382827047028A22F00F020282028ABD
:101CE0000A4302827047828922F4006282818289DB
:101CF0000A43828170470029818902D041F00201A4
:101D000001E021F0020181817047028A22F0200265
:101D10000282028A0A43028270470029018A02D0A5
:101D200041F4804101E021F4804101827047C1F318
:101D30000801818070478088C0F30800704781895E
:101D400041F0010181817047028BD2B20283028B84
:101D500042EA012101837047028B02F47F42028331
:101D6000028B0A43028370470029818A02D041F026
:101D7000200101E021F02001818270470029818A41
:101D800002D041F0100101E021F010018182704782
:101D90000029818A02D041F0080101E021F0080108
:101DA000818270470029818902D041F4004101E01D
:101DB000C1F30E01818170470029818A02D041F46C
:101DC000006101E021F4006181827047828A22F083
:101DD00004028282828A0A43828270470029818AB1
:101DE00002D041F0020101E021F00201818270473E
:101DF0000246002012880A4200D001207047C943E1
:101E00000180704730B501F01F0201240025C1F3A5
:101E1000421304FA02F2012B0FD0022B0FD0838A57
:101E20004FEA11210088134204FA01F400EA040089
:101E300001D000B10125284630BD8389F0E7038A2F
:101E4000EEE70A0A01219140C94301807047000072
:101E5000003801400044004000480040004C004071
:101E60000050004070477047704770477047704798
:101E700070474FF080731360131F1860A2F10800C1
:101E8000284B0360001F4FF012330360001F4FF018
:101E900003330360001F4FF002330360001F5B1029
:101EA0000360001F0160001F4FF011310160001F2F
:101EB00019010160001F4FF009310160001FD900B6
:101EC0000160001F4FF007310160001F4FF0063125
:101ED0000160001F4FF005310160980042F83C0D91
:101EE0001046704770477047704700B585B0684628
:101EF000FFF712F8019805B000BDF6E710B5FFF73F
:101F0000F4FF4FF47A71B0FBF1F14FF0E020491E7D
:101F10004161016941F005010161016941F002017E
:101F2000016110BDD3430008EFF3108072B6704713
:101F300080F3108870471D484FF0FF0101700020AA
:101F400080F309881A48012101701A484FF0805126
:101F5000016062B6FEE717484FF08051016070479C
:101F600014484FF080510160704772B6EFF309805A
:101F700028B1203880E8F00F0F490968086000B5E3
:101F80000E4880475DF804EB0D480E490A78027050
:101F900009480D490A680260106890E8F00F203087
:101FA00080F309884EF0040E62B6704722ED00E01F
:101FB0001B00002004ED00E03C000020E51E0008AE
:101FC00018000020190000204400002001004FF0FC
:101FD000000006D002E0401CC0B2491C0A78002A6A
:101FE000F9D1704770B50E460500144605D036B1DC
:101FF000F848807828B111200DE004200BE00C2077
:1020000009E02878012809D0022807D0032805D044
:10201000042803D001201070002070BDFFF784FF5A
:10202000034628693060FFF7D1FF05461846FFF7E1
:102030007FFF00202070284670BD70B50E46050059
:10204000144605D036B1E348807828B112200DE05F
:1020500004200BE00C2009E02878012808D0022891
:1020600006D0032804D0042802D00120107070BDCF
:10207000FFF75AFF2E61FFF75BFF0020207070BD55
:102080007CB5D54D00246946204602F098F858B931
:1020900055F8240040B1012806D0D0E9021201EB26
:1020A0008201416401998164641CE4B21F2CEAD965
:1020B0007CBDC84C02E0C82002F0A2F9607800287C
:1020C000F9D0642160690025B0FBF1F0606118B9B6
:1020D0002570FF2002F0B0F8FFF726FF6169642247
:1020E00051436162FFF724FFFFF71EFF616A6562DB
:1020F000A161FFF71DFFD4E90510B0FBF1F0C0F1BD
:1021000064002070FFF7B4FEFFF7BAFF642002F00E
:1021100077F9E9E7AF4C00BFFFF706FF616A491C9A
:102120006162FFF705FFFFF7A1FEF5E7002203E07C
:10213000491E00F8012B89B20029F9D1704770B50A
:1021400086B0FFF78FFE00F09AFAA24800242146DD
:10215000847100F120025454491CC9B20429FAD3F5
:10216000047144710463846200F058FA00F031FA9B
:1021700000F069FD00F05BFE01F0C5FB4FF4007656
:102180009648CDE90106944A03254FF6FF701F23B8
:10219000121F00210090AFF28300CDE9034501F04A
:1021A00047FE05AA8EA11F2001F094FF9048CDE9BB
:1021B00001068A4A4FF6FE701E23121F002100906E
:1021C000AFF21110CDE9034501F032FE05AA89A155
:1021D0001E2001F07FFF06B0BDE87040FFF743BE50
:1021E0007C49C879012804D18878FF2801D2401C95
:1021F0008870704770B5774CE079012822D1FFF7DD
:1022000093FE0546A07820B1401E10F0FF00A0709C
:1022100013D1E07888B900F041FA6F48617950F83D
:10222000210020632279914207D0816B491C816390
:10223000E068401CE060FFF793FE2846BDE8704070
:10224000FFF776BE70BD10B5624CE07901280CD165
:10225000FFF76AFEA17821B9E178FF2901D2491C74
:10226000E170BDE81040FFF763BE10BD70B5FFF729
:102270005BFE584C0546A07898B9E07888B900F024
:102280000DFA5549607951F8201021632279904266
:1022900007D0886B401C8863E068401CE060FFF753
:1022A0005AFE2846BDE87040FFF742BE10B5494CC3
:1022B000E079012813D1FFF737FEA17831B9E17831
:1022C00021B1491E11F0FF01E17003D0BDE81040BB
:1022D000FFF72EBEFFF72CFEBDE81040C6E710BD8D
:1022E00010B53C4CE07900280CD100F0D7F96079AA
:1022F0003949207151F820002063A062BDE81040E8
:10230000FFF719BE10BD10B5022002F079F8FFF7F3
:102310000BFE304C00216162FFF70AFE642002F0E0
:102320006FF8FFF701FE616A616101216170BDE82C
:102330001040FFF7FDBD2DE9F041FFF7D5FDFFF798
:10234000F3FD244DA96B491CA963FFF7F1FDE87962
:1023500001283CD1687A0126002720B1012836D017
:10236000022802D06F726C6B2DE06E72FBE700BF2B
:10237000FFF7DAFDE16A19B3491EE16220D194F852
:10238000301011F0370F06D001F0C80184F830107A
:1023900084F8316001E084F8317094F83010090756
:1023A0000ED494F83610AA791143A971094994F80A
:1023B0003420203194F835C08B5C43EA0C038B54F5
:1023C0006469FFF7B5FD94F832001F28D0D1BDE84D
:1023D000F081000014000020941B002094130020C2
:1023E00075432F4F532D49492049646C6500000007
:1023F000940B002075432F4F532D4949205374618E
:102400007400000047F217207047704710B590F82D
:10241000342090F835408B18DA7AA243DA7204D16E
:102420008A7A90F8360082438A7210BDF0B50E4663
:102430000146847A9F480027045D0D19ED7A405DBE
:1024400000EBC400C5B29C4850F82500C762066284
:1024500090F83060964380F8306080F83130320771
:102460000BD4964A90F836309679334393712032E4
:1024700090F83560135D33431355FFF7C7FF2846C7
:10248000F0BD30B58D4900F10B028B6A43F81C0F8B
:102490001C7E5B7EA55C1D43A5548A6A837A92F8F4
:1024A00036402343837292F8340001F1200492F8FD
:1024B0003550235CAB43235404D192F836208879FD
:1024C0009043887130BD0022827211464318491C26
:1024D000C9B2DA720429F9D3704705E011F8013B5B
:1024E000521E00F8013B92B2002AF7D170472DE945
:1024F000F05F9846DDE90ABA91460D460746FFF7B8
:1025000013FD6E4EF46A002C5FD061691834F162DD
:10251000FFF70EFD44F8185CA77600252576657652
:10252000656144F80CBC44E905A90C9824F8080C32
:1025300024F8068CE577FA08227707F007010120D6
:1025400000FA02F2E176A277884060776560E56084
:10255000A5602562A562656259A0E562C4E90C50D8
:102560000020183C04EB8001401C0D6510F0FF00BA
:10257000F8D02046FFF7B7FCFFF7D6FC4E4941F8EC
:102580002740FFF7D5FC2046FFF76EFCFFF7CCFC99
:102590000146706BC4E9050500B18461746394F869
:1025A0003600B2791043B071444A14F8340F203227
:1025B0006478135C23431354307A401C307208460D
:1025C000FFF7B6FC0020BDE8F09FFFF7B1FC42200A
:1025D000F9E710B54FF4C8713A48FFF7A7FD00209E
:1025E00038490346421C00EB800094B201EB8000A6
:1025F00004EB840401EB84040370446032A404619E
:1026000090B21328EED300EB800001EB80002EA2E5
:102610000370436002612948016110BD264800B57E
:102620004FF4BD618030FFF781FD80212248FFF724
:102630007DFD214A00208032411C0B46C9B2C0EB0F
:10264000C00000EB4000C1EBC10102EB800001EBD8
:10265000410102EB810141611BA1C164D8B2112883
:10266000EAD3C0EBC00000EB400002EB800016A3F1
:102670000021C36441611148C262416300BD0F483B
:10268000002181638170C170C1610172C171C1603B
:102690004162816141614170817270470749054A19
:1026A00001F120038879105C1B5CD25C02EBC00056
:1026B0004871704738C10008941B002014000020A6
:1026C0003F000000040A00203F0000002DE9F04117
:1026D0000D4606001F46144607D03078052806D060
:1026E000012018700020BDE8F0816E20F9E714F099
:1026F000800002D022F08004012080460020387043
:10270000FFF712FC0246702104B3012C24D0022CE6
:1027100008D0032C12D0FFF70BFC00246F20387078
:102720002046E0E7308900EA0504AC420AD01DE00B
:10273000A04319E01046FFF7FBFBF1E7308910EAF0
:10274000050413D0B8F1000FF4D0F1E7308925EA81
:102750000004AC4204D009E0308935EA000405D019
:10276000B8F1000FE6D020433081E3E73970E1E7AC
:1027700070B50646F9480D46007818B1102008706B
:10278000002070BDFFF7D0FBF5490C6864B16268AA
:102790000A600521217026810026F2A16660E160B1
:1027A000FFF7C6FB2E7003E0FFF7C2FB7220287014
:1027B000204670BDD0E9001200232AB1116001B19A
:1027C0004A60806843627047C26800295160F8D04F
:1027D0004B60F6E710B5034680680024C4620185AB
:1027E00090F8301011F0DF0180F8301080F83120BF
:1027F00004D01846FFF7DEFF204610BDDA4990F8F6
:1028000036200C7822430A7010F8342FD7494078CC
:102810008C5C04438C540124EBE72DE9F05F88467F
:102820000400154605D0CD48007820B10F20107067
:1028300021E06E20FBE72078052801D00120F6E793
:10284000FFF772FB666881460EB1012700E00027A2
:10285000DFF80CA34FF0000BB8F1000F06D0B8F171
:10286000010F21D0FFF764FB072003E037B1FFF72A
:102870005FFB492028702046BDE8F09FB9A0E060CA
:1028800084F800B0DAF800106160A4F808B05E4681
:102890004846CAF80040FFF74BFB19E0022200212E
:1028A0003046FFF797FF3668002EF7D1ADA0E06005
:1028B00084F800B0DAF800106160A4F808B05E4651
:1028C0004846CAF80040FFF733FB0FB1FFF7CEFCD4
:1028D0002E700020D0E72DE9F0410E460500144689
:1028E00005D036B19D48007830B1112002E06E204D
:1028F00000E00C2010700AE0FFF716FB074628786E
:10290000052806D03846FFF713FB01202070002071
:10291000E9E6E8683060FFF759FB05463846FFF7FF
:1029200007FB002020702846DDE670B50E46050046
:10293000144606D03EB18948007830B1122010709C
:1029400070BD6E20FBE70C20F9E7FFF7EDFA297860
:10295000052903D0FFF7ECFA012003E0EE60FFF752
:10296000E7FA0020207070BDF0B5814D059F2C68FE
:1029700094F8306046F0200684F83060002684F831
:102980003160E76261620A828B748C604268C86061
:10299000C1E90026426802B1516041602868734B6A
:1029A00090F8342090F83540995CA143995405D1B2
:1029B00090F836206C48017891430170F0BD2DE904
:1029C000F04F89B09A46129D91460F46040004D0FC
:1029D0006248007818B1022099E06E2097E06548BF
:1029E000007808B10D2092E02078052801D0012060
:1029F0008DE019F0800F03D009F07F09012600E077
:102A00000026FFF791FA02905FEA09004FF0000BF1
:102A100025D0012839D0022808D0B9F1030F13D0EE
:102A20000298FFF785FA00206F215EE0208900EA16
:102A30000708B8452FD116B120EA080020814C487C
:102A40000068A0F8288017E0208900EA07015FEA03
:102A5000010820D066B120EA0800208108E0218921
:102A600027EA0108B84516D116B141EA08012181CB
:102A70003F490968A1F828800298FFF759FA85F8BC
:102A800000B0404609B0BDE8F08F218927EA010077
:102A90005FEA0008E8D14B463A4603A92046CDF844
:102AA00000A0FFF761FF0298FFF742FAFFF7DEFB95
:102AB000FFF73AFADFF8B8808446D8F8000090F8BB
:102AC0003170A7B180F831B05C4603A8FFF772FE01
:102AD000D8F8000080F830406046FFF729FA00205F
:102AE000022F01D00A2100E00E212970CAE7078DCC
:102AF000B6B15FEA090010D001280ED0022809D033
:102B0000B9F1030F06D06046FFF712FA6F20287064
:102B10000020B7E72089B84301E0208938432081AD
:102B20006046FFF705FA85F800B03846AAE710B509
:102B3000FFF7FAF90E4909680C8DFFF7F9F92046FD
:102B400010BD2DE9F04117460D4604001E4613D076
:102B50002078052812D0012018702FE016000020E0
:102B6000500000203F0000001A0000203400002028
:102B70003C000020170000206E20EDE7FFF7D4F99D
:102B800080462FB1012F06D0FFF7D2F9712014E053
:102B90002089A84301E02089284320810027656817
:102BA00029E0A87CA0B1012819D0022808D0032868
:102BB0000AD04046FFF7BCF96F203070002092E544
:102BC0002189288A014007E02189288A014009E0FB
:102BD000288A218920EA0101884204D00AE0298A52
:102BE0002089814331B100222846FFF7F3FD0128F7
:102BF00000D101272D68002DD3D14046FFF798F969
:102C0000012F01D1FFF732FBFFF78EF92489FFF77F
:102C10008FF900203070204665E570B505000C4640
:102C200006D02878052805D001200870002070BD46
:102C30006E20FAE7FFF778F92D89FFF779F9002080
:102C40002070284670BD10B5A0210F48FFF76EFA1E
:102C500000200D4A0346411C02EB00108CB202EB2F
:102C6000041403704460AFF20414C46088B20928ED
:102C7000F1D302EB00100370AFF218114360C16092
:102C80000248026010BD0000FC210020500000201E
:102C90002DE9F041040090460E461F464FF06200B9
:102CA00001D0A10701D018701AE0022E01D25B20DA
:102CB000F9E7B8F1040F01D25C20F4E7FFF734F92B
:102CC00001466A4805680DB16A6802600846FFF768
:102CD0002FF91DB1731E214600220AE05A203870D8
:102CE0000020BDE8F08100BF01EB0800086001464C
:102CF000521C9A42F8D3002008602E61EE602C60CE
:102D0000C5E9014838702846EBE770B504000D4668
:102D100010D0FFF709F90146206970B16668401EBE
:102D20003268626020610846FFF702F900202870CF
:102D3000304670BD6020087004E00846FFF7F8F8E0
:102D40005D202870002070BD2DE9F0410D46060081
:102D5000144607D045B14648007838B111201070AC
:102D60000020BEE76020FAE70C20F8E7FFF7DCF868
:102D7000074670692860FFF729F905463846FFF7CE
:102D8000D7F8002020702846ABE770B50D46060046
:102D9000144606D03DB13648007830B1122010708C
:102DA00070BD6020FBE70C20F9E7FFF7BDF8756107
:102DB000FFF7BEF80020207070BD70B50D4604000E
:102DC0000AD05DB1FFF7B0F8D4E903128A4207D305
:102DD000FFF7AEF85E2070BD602070BD5F2070BD53
:102DE0006168296065602169491C2161FFF7A0F8CD
:102DF000002070BD70B50C46050014D0ACB1FFF7D3
:102E000093F82968216069686160A968A160E96830
:102E1000E16029692161FFF78BF8D4E90301401AC9
:102E20006061002070BD602070BD612070BD10B574
:102E300078211048FFF77AF90E49002000EB400294
:102E400001EBC20202F118035360401C0AA380B2D6
:102E500053610428F2D300EB400001EBC0000022D4
:102E6000426005A242610148016010BD540000208B
:102E7000160000209C2200203F0000002DE9F041B8
:102E800005000C4605D02878042804D001200870DD
:102E900015E00420FBE7FB48007808B10220F6E7C4
:102EA000FFF742F8034628894FF00006010AC243A3
:102EB00012F0FF0F06D01846FFF73AF826700020F0
:102EC000BDE8F08100F47F42EF482A81006890F865
:102ED00032703A432A816860FF2909D090F83200A5
:102EE000884205D81846FFF723F87820207003E0C1
:102EF0001846FFF71DF826700120E1E72DE9F041A3
:102F000004460E46FF2803D01F2C01D32A2003E0DD
:102F1000DC48007810B1102008700DE0FFF704F8CD
:102F20000146DA48FF2C0CD050F8242032B1084674
:102F3000FEF7FEFF282030700020C1E7012240F894
:102F40002420D34A4FF00008042715689DB1686813
:102F500010600846FEF7ECFFFF2040EA04202F70C7
:102F60002881CCA0C5F80480286144462846FFF794
:102F7000AAFA347007E0FF2C01D040F824800846FC
:102F8000FEF7D6FF377028469AE7F0B590F8343050
:102F9000C14D90F83540EA5CA243C04CEA5404D1DC
:102FA00090F8363022789A432270BD4A80F8321069
:102FB000C1F3C206117001F00707012380F83460E5
:102FC00003FA06F280F8337080F83620BB4080F8B0
:102FD000353027783A432270AA5D1A43AA55AB4A86
:102FE00042F82100F0BD2DE9F0478846040015465F
:102FF00005D02078042804D00120107024E004209B
:10300000FBE7A048007808B10F20F6E7FEF78CFF39
:103010000746A07A08B1012600E000265FEA080012
:10302000DFF868A2DFF868924FF0000806D00128A8
:1030300024D03846FEF77CFF072004E03EB1384636
:10304000FEF776FF492028702046BDE8F08791A062
:1030500020612089000AFF2801D04AF8208084F8E6
:103060000080D9F800106160A4F808804646384610
:10307000C9F80040FEF75CFF2E702FE02089020A9D
:10308000FF2A0FD0C1B2606860B190F8323093422D
:1030900008D1FFF77AFF05E0022310220021204625
:1030A000FFF7C4F9A07A0028F6D17AA02061208920
:1030B000000AFF2801D04AF8208084F80080D9F85F
:1030C00000206260A4F808803846C9F80040FEF786
:1030D0002FFF0EB1FFF7CAF885F800800020B4E793
:1030E0002DE9F74F1446050008D028784FF0010865
:1030F000042805D082F80080BDE8FE8F042008E097
:103100006048007808B1022003E06648007810B1FA
:103110000D201070F0E7FEF707FF29890646080A20
:10312000CA43DFF8649112F0FF0F1ED0FF2872D05F
:103130006B68C9B293F8322082427FD9D9F8002057
:1031400092F832208A4279D293F83420DFF848A1ED
:1031500093F83570DFF844B11AF80210394228D0DC
:10316000B9430AF802101BD021E001F47F422A8102
:10317000D9F8001091F832301A432A816960FF288B
:1031800008D091F83210814204D83046FEF7D0FEC4
:10319000782003E03046FEF7CBFE00202070ABE73E
:1031A00093F836709BF80020BA438BF80020012773
:1031B0000FE0D96961B101EB020C9CF80B20BA4316
:1031C0008CF80B2004D18A7A93F83670BA438A724D
:1031D0000027C10883F8320000F0070C08FA01F25A
:1031E00083F8341083F833C0D2B208FA0CF883F8AD
:1031F000362008F0FF0C83F835C06FB19BF80080D3
:1032000042EA08028BF800201AF8017047EA0C071E
:103210000AF801700FE011E0D96961B111F80A7F75
:10322000174301F8017B93F8342093F835C0575CBD
:1032300047EA0C075754154941F82030D9F80000E7
:10324000002710F8301F41F0100100F804194771F1
:10325000019901602846FFF714F93046FEF768FE31
:10326000FFF704F8FEF760FE0646D9F8000090F874
:103270003110C9B1022919D02946FFF7C7F80A2031
:1032800015E00000160000203C000020941B0020E8
:10329000240000203F000000340000201A0000201D
:1032A0001800002017000020277001E00E20207079
:1032B000D9F8000080F8307080F83170C76130466E
:1032C000BDE8FE4FFEF734BE2DE9F0410446444808
:1032D000007808B10520F3E524B12078042803D054
:1032E0000120EDE50420EBE5FEF71EFE06462089F1
:1032F0006268050AC1B23B480068824204D0304689
:10330000FEF716FE6420DBE5374FFF2D08D090F85E
:103310003220AA4201D1FFF738FE012047F82500EC
:10332000A07AF8B10023102219462046FFF77EF854
:10333000218901F47F410143218157F82010616008
:10334000FF2D08D0A84206D83046FEF7F1FDFEF763
:103350008DFF7820B4E53046FEF7EAFDFEF786FFE4
:103360000020ADE5208940F0FF0020810020606052
:103370003046FEF7DDFDF3E770B5054618480C460C
:10338000007808B1062070BD2DB134B1287804282A
:1033900005D0012070BD042070BD092070BDFEF76E
:1033A000C3FD01462889000AE071287AA071FF2830
:1033B00013D000206071A87A2071002015F10B0550
:1033C000401C15F8012BC0B204F8012B0428F7D3D8
:1033D0000846FEF7ADFD002070BD0120EAE70000C1
:1033E000160000203C000020941B002070B5050052
:1033F0000C4606D02878022805D00120087000204D
:1034000070BD0420FAE7FEF78FFD6A680146D08A96
:1034100070B11369181D10611D68D38A5B1ED382B9
:103420009368984201D1506810610020207002E03A
:103430001F20207000250846FEF77AFD284670BD43
:103440002DE9F0410746FE488846007810B100207B
:10345000BDE8F081FEF768FDFA4E34680CB1616892
:103460003160FEF765FD14B3FEF75EFDF6490D68A9
:10347000BDB12A680A60FEF75BFD07EB8800C5E96D
:103480000170EF602F61A5F814800020E88202210E
:1034900021702081EDA0656020612046FFF713F8C0
:1034A00005E0316861603460FEF742FD002420468B
:1034B000CEE72DE9F04788460400154605D0207870
:1034C000022804D00120107024E00420FBE7DC482F
:1034D000007808B10F20F6E7FEF726FD0746A07A30
:1034E00008B1012600E000265FEA0800DFF85883F3
:1034F000DFF850A34FF0000906D001282AD0384643
:10350000FEF716FD072004E03EB13846FEF710FD39
:10351000492028702046BDE8F087CCA02061616872
:10352000D8F800204E460A60C8F8001084F80090D1
:10353000DAF800106160A4F808903846CAF8004034
:10354000FEF7F6FC2E7022E0022304220021204622
:10355000FEF76CFFA07A0028F6D1BCA0206160685D
:10356000D8F800200260C8F8000084F80090DAF86B
:1035700000206260A4F80890C8463846CAF80040A7
:10358000FEF7D6FC0EB1FEF771FE85F80080002034
:10359000C1E710B5040004D02078022803D0012030
:1035A00010BD042010BDFEF7BFFC014660684268F4
:1035B000C26002610022C2820846FEF7B9FC002008
:1035C00010BD2DE9F04789460600144604D0307836
:1035D000022803D001200AE0042008E0984800787F
:1035E00008B1022003E09A48007818B10D2010704D
:1035F000002090E7FEF798FC074670680025C18A16
:1036000081B10269111D01611668C28A521EC2820F
:103610008268914201D1416801613846FEF788FC19
:10362000257035E0DFF82C82D8F8000010F8301F44
:1036300041F004010170457040F8049C3046FEF7EB
:1036400020FF3846FEF774FCFEF710FEFEF76CFC18
:103650000746D8F8000090F8311039B1022908D097
:103660003146FEF7D3FE00260A2004E0066A2570E4
:1036700002E000260E202070D8F8000080F83050BC
:1036800080F8315040F81C5F45603846FEF750FC2A
:10369000304640E72DE9F0410F460500164605D0BB
:1036A00029780120022903D010702AE00420FBE7CA
:1036B000FEF73AFC8046A87AF0B10024012F0FD023
:1036C0000223042200212846FEF7B0FE01244046D2
:1036D000FEF72EFCFEF7CAFD0E2030702046B7E63E
:1036E0000223042200212846FEF7A0FE641CA87ACB
:1036F000E4B20028F4D1EAE74046FEF719FC0020C6
:1037000030700020A4E670B50E46040004D0207886
:10371000022803D0012070BD042070BDFEF704FC18
:103720000546A07A58B10023042231462046FEF710
:103730007DFE2846FEF7FCFBFEF798FD19E0606869
:10374000C18A828A914204D32846FEF7F1FB1E20EB
:1037500070BDC1680A1DC2600E60C18A491CC18269
:10376000D0E902128A4201D14168C1602846FEF7C1
:10377000DFFB002070BD70B50E46040004D0207839
:10378000022803D0012070BD042070BDFEF7CCFBE1
:103790000546A07A58B10023042231462046FEF7A0
:1037A00045FE2846FEF7C4FBFEF760FD18E06068A2
:1037B000C18A828A914204D32846FEF7B9FB1E20B3
:1037C00070BD42680169914201D181680161091FA0
:1037D00001610E60C18A491CC1822846FEF7A8FB20
:1037E000002070BD2DE9F04114460D46070004D0BD
:1037F0003878022803D001202AE6042028E6FEF7C4
:1038000093FB0646B87AD0B1E00709D00023042222
:1038100029463846FEF70AFEB87A0028F6D105E0B8
:103820000023042229463846FEF700FE3046FEF704
:103830007FFB600701D4FEF719FD002008E60BE0CE
:103840001600002024000020580000203F00000047
:10385000170000203C0000207B68D88A998A8842A3
:1038600004D33046FEF764FB1E20F1E5A00709D51E
:1038700059681869884201D198681861001F186159
:10388000056009E0D868011DD9600560D3E902012F
:10389000814201D15868D860D88A401CD88230460D
:1038A000FEF746FBC9E770B50C46050005D034B1FC
:1038B0002878022805D0012070BD042070BD0920A1
:1038C00070BDFEF731FB0346A87A207305F10B00AB
:1038D00004F108025FF00001491C10F8016BC9B245
:1038E00002F8016B0429F7D36868C18A09B101693C
:1038F00009682160C18AA180808AE0801846FEF7AD
:1039000017FB002070BD10B560210D48FEF70EFCBE
:103910000B4A0020411C8BB200EB400003EB430339
:1039200002EBC30342F8303088B20328F2D300EB35
:103930004000002142F830100248026010BD000033
:10394000142300205800002070B5050002D028780C
:10395000032801D0002070BDFEF7E6FA2C890CB1D7
:10396000611E2981FEF7E4FA204670BD70B5054658
:10397000BE48007808B1002070BDFEF7D5FABC49FA
:103980000C680CB162680A60FEF7D2FA4CB10320F1
:103990002070258100206060B6A020612046FEF7DF
:1039A00092FD204670BD2DE9F0478846040015467B
:1039B00005D02078032804D00120107022E00420D4
:1039C000FBE7AA48007808B10F20F6E7FEF7ACFA4B
:1039D0000746A07A08B1012600E000265FEA080049
:1039E000DFF88C924FF0000806D0012824D038462A
:1039F000FEF79EFA072004E03EB13846FEF798FA3B
:103A0000492028702046BDE8F0879AA0206184F8FC
:103A10000080D9F800106160A4F808804646384656
:103A2000C9F80040FEF784FA2E701BE00223012241
:103A300000212046FEF7FAFCA07A0028F6D18DA0DE
:103A4000206184F80080D9F800206260A4F8088022
:103A50003846C9F80040FEF76BFA0EB1FEF706FCD7
:103A600085F800800020CEE72DE9F0478946060062
:103A7000144604D03078032803D001200AE0042043
:103A800008E07A48007808B1022003E07A4800781C
:103A900010B10D201070B6E7FEF746FA07463089E0
:103AA000002530B1401E30813846FEF741FA2570BE
:103AB000A9E7DFF8C881D8F8000010F8301F41F0FE
:103AC00001010170457040F8049C3046FEF7D9FCB6
:103AD0003846FEF72DFAFEF7C9FBFEF725FA074632
:103AE000D8F8000090F8311031B1022906D03146E3
:103AF000FEF78CFC0A2002E0257001E00E20207009
:103B0000D8F8000080F8305080F83150C561384650
:103B1000BDE8F047FEF70CBA2DE9F0410F4605006D
:103B2000164605D029780120032903D010702BE018
:103B30000420FBE7FEF7F8F98046A87AF8B10024E4
:103B4000012F10D00223012200212846FEF76EFC2F
:103B500001244046FEF7ECF9FEF788FB0E2030709A
:103B60002046BDE8F0810223012200212846FEF70D
:103B70005DFC641CA87AE4B20028F4D1E9E7404671
:103B8000FEF7D6F9002030700020EAE770B5040097
:103B900004D02078032803D0012070BD042070BD1C
:103BA000FEF7C2F90546A07A58B100230122194652
:103BB0002046FEF73BFC2846FEF7BAF9FEF756FB17
:103BC00009E020894FF6FF71884206D2401C20810F
:103BD0002846FEF7ADF9002070BD2846FEF7A8F98B
:103BE000332070BD70B50D46040005D035B1207886
:103BF000032805D0012070BD042070BD092070BDD0
:103C0000FEF792F90346A07AA871A81C04F10B01F3
:103C10005FF00002521C11F8016BD2B200F8016B88
:103C2000042AF7D3208928801846FEF781F900205E
:103C300070BD70B50E460400154605D020780328E7
:103C400004D00120107070BD0420FBE7FEF76CF972
:103C500000212970218939B9A17A29B14921297016
:103C6000BDE87040FEF764B92681F9E71600002030
:103C7000240000203F000000170000203C0000202E
:103C80002DE9F05F0C4605461F2801D3FF2D01D119
:103C90001F2C02D32A20BDE8F09FFEF745F9074606
:103CA000FE4850F8241021B13846FEF741F928208B
:103CB000F1E7FF2D03D1FA49096891F8325050F825
:103CC000252022B3012A27D04FF0000C40F825C050
:103CD00040F82420E108012392F834C0DFF8C4E35F
:103CE00003FA01F604F0070A92F835501EF80C00AA
:103CF00003FA0AF392F83690F6B2DBB2284222D0E9
:103D0000A843DFF8A4B30EF80C000AD00FE0384641
:103D1000FEF70EF92920BEE73846FEF709F94320E1
:103D2000B9E79BF8000020EA09008BF800009BF837
:103D3000008048EA06088BF800801EF8018048EAF7
:103D400003080EF80180D06998B100EB0C0898F8D0
:103D50000BC03CEA050C88F80BC003D1857A25EA34
:103D600009058572857A354385720844C57A1D43F5
:103D7000C57202F8324F3846917082F801A0167170
:103D8000D370FEF7D5F8C9480078012801D1FEF7B5
:103D90006DFA00207FE72DE9FE431C4615460F46CD
:103DA00080461F2B02D92A20BDE8FE83FEF7BCF80F
:103DB000BF49097819B1FEF7BBF83C20F4E7B74ECC
:103DC00056F8241019B1FEF7B3F82820ECE70121CA
:103DD00046F82410FEF7ACF800232A463946404640
:103DE000FEF747F800250146009501952B462A4627
:103DF00020460295FEF77BFB070007D0FEF794F8FC
:103E000046F82450FEF794F83846CDE7A7480078E6
:103E10000128F9D1FEF72AFAF6E7D30707D092076F
:103E200005D50022002902D004C0491EFAE77047D8
:103E30002DE9FF4F83B01C46DDE91386DDE91197BC
:103E400092468B461F2B03D92A2007B0BDE8F08F7E
:103E5000FEF76AF89649097819B1FEF769F83C202F
:103E6000F3E78E4D55F8241019B1FEF761F82820BC
:103E7000EBE7012145F82410FEF75AF8324639469F
:103E80004846FFF7CAFF3346524659460398FDF7A6
:103E9000F0FF0097CDE9018601464A462046109B77
:103EA000FEF725FB060008D0FEF73EF8002145F896
:103EB0002410FEF73DF83046C7E77C48007801281B
:103EC000F9D1FEF7D3F9F6E72DE9F0470546784832
:103ED000007810B14020BDE8F0871F2D04D005D335
:103EE000FF2D03D02A20F6E73E20F4E7FEF71CF86A
:103EF0000746FF2D03D16A48006890F83250DFF87A
:103F00009C9159F825405CB1012C0ED094F83400F6
:103F1000644A94F83530115C994311540AD00FE08B
:103F20003846FEF705F84320D5E73846FEF700F897
:103F30003D20D0E75C4894F8362001789143017029
:103F4000E16911B12046FEF761FA606A08B1FEF737
:103F500031FC4FF00008C4F82C80564E84F83080B5
:103F600084F831803078FF2801D2401C3070384608
:103F7000FDF7DEFFFEF749FAFDF7D6FF074630787A
:103F800008B1401E30702046FDF76FFF4A4908789F
:103F9000401E087049F82580A169404691B16069CA
:103FA0004861D4E9050181614448016861610460A8
:103FB00043A0E0643846FDF7BBFF3C480078012889
:103FC00006D007E0616988613E4960690860EBE7F7
:103FD000FEF74CF900207EE710B504461F2804D0F8
:103FE0000FD3FF2803D02A2010BD3E2010BDFDF7BF
:103FF0009BFF2B49096891F83740FDF799FF204650
:1040000010BDFDF791FF0146244850F8240048B147
:1040100001280CD03F2280F837200846FDF788FFA2
:10402000002010BD0846FDF783FF432010BD084661
:10403000FDF77EFF3D2010BD2DE9F0410E460546FF
:1040400014461F2803D9FF2D01D02A2006E026B1EF
:104050001748007820B1112000E00C20107037E0E4
:10406000FDF762FF0746FF2D03D10D48006890F869
:1040700032500A4850F82500432570B1012823D05A
:10408000C06C3060FDF7A2FF05463846FDF750FFD3
:10409000002020702846BDE8F08115E0941B002028
:1040A0003C000020340000201A0000201B000020EB
:1040B00016000020170000201C00002040000020F7
:1040C0003F000000480000203846FDF731FF257012
:1040D0000020E0E770B50E46054614461F2803D9B8
:1040E000FF2D01D02A2004E02EB1BE48007820B177
:1040F0001220107070BD0C20FBE7FDF715FF014684
:10410000FF2D03D1B848006890F83250B74850F8F6
:104110002500432540B1012806D0C6640846FDF7B6
:1041200007FF0020207070BD0846FDF701FF2570D5
:1041300070BD10B504461F2801D32A2010BDFDF71D
:10414000F3FE0146A94850F8240058B101280ED0CA
:1041500090F8302013072DD512F0F70280F83020A8
:104160000AD00BE00846FDF7E3FE462010BD0846E6
:10417000FDF7DEFE432010BDC26A22B10846FDF7FE
:10418000D7FE002010BD9A4A90F8363014782343A9
:10419000137010F8343F974A4078D45C0443D454E9
:1041A0000846FDF7C5FE944800780128E9D1FEF7DE
:1041B0005DF8E6E70846FDF7BBFE442010BD2DE99B
:1041C000F0410C4605461F2803D9FF2D01D02A20B7
:1041D00061E744B1002020606060FDF7A5FE014664
:1041E000FF2D02D005E0092055E77F48006890F8D0
:1041F00032507E4850F8250058B1012809D0027C81
:10420000D2070BD0D0E9027600250846FDF790FED4
:104210000AE00846FDF78CFE43203CE70846FDF720
:1042200087FE452037E76D1C01CF0028FBD0701BAF
:10423000C4E9005000202EE770B504461F2804D0C2
:1042400005D3FF2C03D02A2070BD472070BDFDF799
:104250006BFE03466448FF2C006805D090F83200DE
:10426000A04204D1012503E090F83240FAE700258E
:104270005E4850F8240058B101280ED090F8342040
:104280005C4C90F83560A15CB143A1540AD00FE0BA
:104290001846FDF74DFE482070BD1846FDF748FE54
:1042A000432070BD524990F836400A78A2430A7004
:1042B00010F8301F41F0080101701846FDF738FE74
:1042C0000DB1FDF7D3FF002070BD70B50D4604465B
:1042D0001F2803D9FF2C01D02A2070BD2DB1FDF776
:1042E00023FE0646FF2C02D005E0092070BD3E48A3
:1042F000006890F832403D4850F8241051B101292F
:104300000DD054222846FEF7E8F83046FDF710FE9F
:10431000002070BD3046FDF70BFE292070BD3046F1
:10432000FDF706FE432070BD70B5154604461F28F4
:1043300003D3FF2C01D02A2001E019B1082010700E
:10434000002070BDFDF7F0FD0146FF2C0AD0274884
:1043500050F82400046D0846FDF7EAFD002028709F
:10436000204670BD20480068F4E710B50446FDF70C
:10437000DBFD22490A782AB196212170FDF7D8FD8C
:10438000012010BD01220A70FDF7D2FD002020702F
:1043900010BD70B51D46164604461F2803D3FF2CDA
:1043A00001D02A2001E011B10820187070BDFDF77E
:1043B000BBFD0146FF2C09D00C4850F824000665CF
:1043C0000846FDF7B5FD0020287070BD064800685E
:1043D000F5E7054810B50068FDF749FDBDE8104058
:1043E000FF2071E5160000203C000020941B0020F7
:1043F0001A000020340000201B0000201E000020B6
:1044000070B504465B480078002821D15A480078EE
:1044100000281DD1002C1BD0FDF786FD0346574810
:10442000574D016891F8340091F835602A5CB24329
:104430002A5405D1534891F836500278AA430270A5
:104440001846CC62FDF774FDBDE87040FDF70EBF65
:1044500070BD70B5474C24780CB1552070BD464CEA
:1044600024780CB1322070BD00B919B13B2902D9B2
:10447000512070BD1AB13B2A02D9522070BD2BB118
:104480004FF47A74A34203D3532070BD542070BDFF
:104490004FF47A756B43B3FBF4F34FF461646043FC
:1044A000C1EB011100EB8100104400EB4001C1EBB6
:1044B000C01003EBC000FFF7A3FF002070BD10B5D4
:1044C00004461F2801D32A2010BDFDF72DFD01460B
:1044D0002D4850F8240090B1012810D0C26A9AB13A
:1044E0000023C36290F8302012F0370F11D022F071
:1044F000370280F83020012280F831200BE0084696
:10450000FDF716FD432010BD0846FDF711FD5020B4
:1045100010BD80F8313090F83020120712D4194ABB
:1045200090F8363014782343137010F8343F144A4F
:104530004078D45C0443D4540846FDF7F9FCFDF7F9
:1045400095FE02E00846FDF7F3FC002010BD10B513
:10455000FDF7EAFC0D490C68FDF7EAFC204610BDAA
:1045600010B50446FDF7E0FC08490C60BDE81040BA
:10457000FDF7DEBC16000020170000203C000020E4
:10458000340000201A000020941B00204C00002062
:104590007047FEE7FEE7FEE7FEE77047704710B59D
:1045A000FDF7C2FC07490A68521C0A60064A1178E6
:1045B000491C1170FDF7BCFCFDF7BDFEBDE81040C5
:1045C000FDF718BE30000020160000200CB50021B9
:1045D0004B4801910091026842F4803202604FF42E
:1045E000A063026802F400320092019A521C019208
:1045F000009A12B9019A9A42F3D10268920333D514
:10460000012100913F490A6842F010020A600A68DD
:1046100022F003020A600A6842F002020A6041685E
:10462000416041684160416841F480614160416896
:1046300021F47C114160416841F4E8114160016856
:1046400041F08071016001688901FCD5416821F069
:1046500003014160416841F0020141604168C1F3DA
:1046600081010229FAD10CBD00910CBD244810B57E
:10467000016841F0010101604168234A1140416035
:104680000168224A11400160016821F48021016023
:10469000416821F4FE0141604FF41F018160FFF782
:1046A00095FF1B494FF00060086010BD144910B51C
:1046B0004868184A10F00C03174803D0042B01D0A7
:1046C000082B0AD002604968134AC1F30311121D76
:1046D000515C0268CA40026010BD4A684B6802F42F
:1046E00070124FF0020413F4803F04EB924202D0A8
:1046F0004B689B0301D5094B00E0064B5A43E1E7A9
:1047000000100240002002400000FFF8FFFFF6FE0C
:1047100008ED00E000127A005C00002000093D0076
:104720000648804706480047FEE7FEE7FEE7FEE74B
:10473000FEE7FEE7FEE7FEE7FEE7FEE76D46000860
:10474000310100082DE9FF41002501240E460746EE
:10475000904600950195029504FA07F021460395CD
:10476000FCF72CFC062F49D2DFE807F00305404296
:1047700044461C2000E01D208DF80C004FF4A06082
:10478000FBF7E0FC8DF80D408DF80E408DF80F40E2
:1047900003A8FBF7DCFC4FF0804000EB87242046A9
:1047A000FCF752FC6846FCF76CFFADF80460ADF80E
:1047B0000080ADF80650ADF8025069462046FCF77F
:1047C000DBFC00212046FDF736F820462021FDF7CE
:1047D00062F901212046FDF79FF90122204611468A
:1047E000FCF788FF012004B0BDE8F0811E20C3E77C
:1047F0003220C1E73620BFE73720BDE70020F2E7CF
:104800004FF0804289B202EB8020FDF75EB94FF095
:10481000804101EB80200121FCF757BF10B54FF01C
:10482000804101EB802400212046FCF74EFF20460A
:104830000121FDF780F92046BDE810400021FDF779
:1048400044B910B501218C072046FDF768F900280E
:1048500007D001212046FDF76EF9BDE8104000F0B9
:10486000C9BF10BD10B5294C01212046FDF757F9ED
:10487000002807D001212046FDF75DF9BDE8104072
:1048800000F0C7BF10BD10B5214C01212046FDF737
:1048900046F9002807D001212046FDF74CF9BDE874
:1048A000104000F0C5BF10BD10B51A4C01212046C4
:1048B000FDF735F9002807D001212046FDF73BF927
:1048C000BDE8104000F0C3BF10BD10B5124C01216F
:1048D0002046FDF724F9002807D001212046FDF7E6
:1048E0002AF9BDE8104000F0ACBE10BD10B50B4C6D
:1048F00001212046FDF713F9002805D02046BDE828
:1049000010400121FDF717B910BD00000004004060
:1049100000080040000C004000100040001400405F
:10492000F8B517460C460546072821D2102C1FD291
:10493000032F1DD2042606FA05F00121FCF735FBF2
:10494000022D0CD10D2C01D00E2C08D10120FCF72A
:10495000D7F90020FCF7C6FA0020FBF757FC01202E
:10496000A040ADF800002FB1012F06D0022F06D0D5
:104970000020F8BD8DF8036004E0102000E0142052
:104980008DF8030003208DF80200EC48694600EB27
:104990008520FCF7CAF8022D06D10D2C01D00E2C73
:1049A00002D10020FCF7ACF90120F8BD2DE9FF4150
:1049B0004FF000080C460546CDF80880CDF8008081
:1049C000CDF80480CDF80C8007286ED2102C6CD264
:1049D000042606FA05F040F001000121FCF7E5FA93
:1049E000022D0CD10D2C01D00E2C08D10120FCF78A
:1049F00087F90020FCF776FA0020FBF707FC012777
:104A000007FA04F0ADF808008DF80B6003208DF86C
:104A10000A00CA4802A900EB8520FCF786F8022D9F
:104A200006D10D2C01D00E2C02D10020FCF768F924
:104A30004FF4A060FBF786FB072D36D2DFE805F0C8
:104A40000406080A0C0E100000260AE0012608E001
:104A5000022606E0032604E0042602E0052600E024
:104A60000626102C72D2DFE804F0080C1014181C73
:104A70002125292E33383D42474C062001240025AC
:104A800043E00720022401253FE0082004240225FA
:104A90003BE009200824032537E00A2010240425E0
:104AA00033E01720202405252FE04FE01720402475
:104AB00006252AE017208024072526E017204FF43A
:104AC0008074082521E017204FF4007409251CE0AC
:104AD00028204FF480640A2517E028204FF4006452
:104AE0000B2512E028204FF480540C250DE02820DF
:104AF0004FF400540D2508E028204FF480440E2583
:104B000003E028204FF400440F258DF80C008DF8A9
:104B10000D708DF80E708DF80F7003A8FBF717FB62
:104B20002046FBF7A3FF29463046FCF7B6F88DF880
:104B3000048010208DF8050000948DF806706846FA
:104B4000FBF736FF012004B0BDE8F0810020FAE752
:104B500001228A4091B2794A10B502EB8020FCF71D
:104B60003EF8002800D0012010BD01238B4099B2EF
:104B7000724B03EB8020FCF74AB810B50120FBF71D
:104B800067FF002809D00120FBF770FF6C48006820
:104B9000002802D0BDE81040004710BD10B502202B
:104BA000FBF756FF002809D00220FBF75FFF64489F
:104BB0004068002802D0BDE81040004710BD10B585
:104BC0000420FBF745FF002809D00420FBF74EFF27
:104BD0005B488068002802D0BDE81040004710BD47
:104BE00010B50820FBF734FF002809D00820FBF798
:104BF0003DFF5348C068002802D0BDE81040004780
:104C000010BD10B51020FBF723FF002809D010209D
:104C1000FBF72CFF4A480069002802D0BDE810408D
:104C2000004710BD70B52020FBF712FF444C28B19F
:104C30002020FBF71BFF606900B180474020FBF795
:104C400007FF28B14020FBF711FFA06900B18047A2
:104C50008020FBF7FDFE28B18020FBF707FFE0690D
:104C600000B180474FF480752846FBF7F1FE28B16C
:104C70002846FBF7FBFE206A00B180474FF4007521
:104C80002846FBF7E5FE002808D02846FBF7EEFE95
:104C9000606A002802D0BDE87040004770BD70B562
:104CA0004FF480652846FBF7D3FE254C28B12846F3
:104CB000FBF7DCFEA06A00B180474FF40065284690
:104CC000FBF7C6FE28B12846FBF7D0FEE06A00B12C
:104CD00080474FF480552846FBF7BAFE28B1284696
:104CE000FBF7C4FE206B00B180474FF40055284607
:104CF000FBF7AEFE28B12846FBF7B8FE606B00B1AB
:104D000080474FF480452846FBF7A2FE28B128468D
:104D1000FBF7ACFEA06B00B180474FF4004528467E
:104D2000FBF796FE002808D02846FBF79FFEE06BB5
:104D3000002802D0BDE87040004770BD0008014067
:104D4000742300202DE9FF4F89B01F46DDE917A429
:104D5000DDE91A98DDF858B01646A0B99EB10420D6
:104D600000FA04F100FA09F0014341F009000121C1
:104D7000FCF71BF901214806FCF720F9032C06D0AB
:104D8000012C08D064B100200DB0BDE8F08F0121E6
:104D90004FF4EB1002E001214FF4EA10FBF754FF4F
:104DA000012505FA08F0ADF81C0048208DF81F0019
:104DB0004846DFF828924FF003088DF81E8009EB73
:104DC000802007A9FBF7B1FE199905FA01F0ADF8AB
:104DD0001C0018208DF81F008DF81E8009EB842020
:104DE00007A9FBF7A2FE4FF4A060FBF7ABF9142074
:104DF0008DF8200000248DF821408DF822408DF898
:104E0000235008A8FBF7A3F9DFF8D4914846FBF735
:104E10003DFA04A8FBF722FB8DF816408DF81740E9
:104E20004FF002088DF814808DF815500A9841F261
:104E30007071B1FBF0F08DF818508DF812408DF8BC
:104E400019408DF813408DF81A40ADF810008DF818
:104E50001B4004A94846FBF72CFA46F040004001ED
:104E60008DF80A40ADF800004FF47E668DF80B40D7
:104E70008DF80C50ADF80460ADF80240ADF8064076
:104E8000ADF808408DF80D506846FBF786FAEFB391
:104E900047F0400040018DF80A50ADF800008DF851
:104EA0000B408DF80C50ADF80460ADF80240ADF841
:104EB0000640ADF808408DF80D506846FBF76DFAD6
:104EC000BBF1000F35D04BF0400040018DF80A8057
:104ED000ADF800008DF80B408DF80C50ADF8046073
:104EE000ADF80240ADF80640ADF808408DF80D5021
:104EF0006846FBF752FABAF1000F1AD003208DF87A
:104F00000A008DF80B408DF80C5000E011E04AF0DB
:104F100040004001ADF80000ADF80460ADF802407B
:104F2000ADF80640ADF808408DF80D506846FBF727
:104F300034FA012202214846FBF75EFC012023E7F8
:104F400070B5284B186000205860187258729A7219
:104F50000A5C1C18401CE2720828F9D3204E214933
:104F60003046FBF7D5FA0546042813D0002406E0A6
:104F70000022012311461046FFF76BFA641C2946F4
:104F80003046FBF717FB012802D00A2CF0D301E0D2
:104F90000A2C01D3002070BD012070BD0122022126
:104FA0000F48FBF729BC002202210D48FBF724BC67
:104FB0000EB50C4A002114320948FBF739FB0948A9
:104FC0002730A0F108014A1ECDE900218B1E029076
:104FD000CA1EC91F133802F09CFD0EBD0008014017
:104FE00000640040B423002010B501211348FBF7F2
:104FF0002BFE012010BD4FF0E022136923F00403C3
:105000001361C3080E48B0FBF1F01169584341F039
:10501000020111615061106940F00100106101202E
:105020007047012080F3138806480168064A01F49E
:10503000E06111430160BFF34F8FFEE700023000D3
:1050400040420F000CED00E00400FA052DE9F04F9E
:1050500087B09846DDE9107B16468A46050006D0E3
:10506000012D09D0022D0AD0032D72D11FE001219C
:105070008803FBF79AFF06E00121480401E00121C3
:105080008804FBF79BFF4FF0040909FA06F109FABF
:1050900007F0014341F001000121FBF786FF4DB10C
:1050A000012D07D0022D05D0032D52D102E00121A0
:1050B000C804E6E7012404FA08F0ADF8100018204F
:1050C0008DF813000320DFF878828DF8120008EBCA
:1050D000862004A9FBF729FD04FA0BF0ADF81000B7
:1050E0008DF8139008EB872004A9FBF71EFD002024
:1050F000ADF80400CDF800A0ADF80600ADF808004A
:10510000ADF80C000C208F4FDFF83C82DFF83C92AA
:10511000DFF83CA2ADF80A0035B1012D0ED0022D0A
:1051200018D0032D43D120E069463846FCF736FD00
:1051300001213846FCF7A5FD252620E069464646B4
:105140004046FCF72BFD01213046FCF79AFD262650
:1051500015E02CE069464E464846FCF71FFD01214C
:105160003046FCF78EFD272609E069465646504634
:10517000FCF714FD01213046FCF783FD34264FF483
:10518000A060FAF7DFFF8DF814608DF815408DF8F8
:1051900016408DF8174005A8FAF7D9FF40F22551BF
:1051A0004DB1012D0AD0022D0ED0032D0FD00020BD
:1051B00007B0BDE8F08F0122384601E001224046E9
:1051C000FCF769FD0120F3E701224846F8E70122D8
:1051D0005046F5E710B538B1012810D0022819D093
:1051E000032822D0002010BD564C2046FCF79FFD1E
:1051F00080212046FCF7FCFD0028F9D01FE0524C2E
:105200002046FCF794FD80212046FCF7F1FD0028A4
:10521000F9D014E04D4C2046FCF789FD8021204652
:10522000FCF7E6FD0028F9D009E0494C2046FCF7E0
:105230007EFD80212046FCF7DBFD0028F9D001200F
:1052400010BD10B538B1012807D0022807D00328B7
:1052500007D0002010BD3B4804E03B4802E03B483B
:1052600000E03B48FCF767FDC0B210BD70B5354D9E
:1052700040F2255421462846FCF7C4FD002807D0FB
:1052800003F06EF821462846BDE87040FCF7D9BD12
:1052900070BD70B52C4D40F2255421462846FCF7D0
:1052A000B1FD08B103F08BF821462846BDE87040F7
:1052B000FCF7C7BD2DE9F041244C40F225552946A5
:1052C0002046FCF79FFD002826D02046FCF733FD42
:1052D000204AC0B21388190414D45E044FF00001B0
:1052E00004D50A280DD143F4004013E00D280FD057
:1052F000194FC3F30D065B1CB85598B21080642893
:1053000000D9118029462046BDE8F041FCF799BD3F
:1053100043F480401080F5E7BDE8F08170B50C4D96
:1053200040F2255421462846FCF76CFD002805D0A4
:1053300021462846BDE87040FCF783BD70BD0000E3
:10534000000801400038014000440040004800408F
:10535000004C004074000020A42400202DE9F047F8
:10536000894606461F4690460621012006F028F988
:10537000040002D026B106F081FE0020BDE8F087CF
:10538000214D286820B1204606F078FE2C6800E008
:105390002C60A67084F8039084F804806771012261
:1053A00039464046FFF7BCFAE07848B10122627006
:1053B00061792079FFF7D9FB022020702046DDE7D4
:1053C0000022F4E770B50446C278007961790125BE
:1053D0002AB100226270FFF7C8FB257070BD2A4613
:1053E000F8E710B50446C2780079617902B101226C
:1053F0006270FFF7BAFB0220207010BD0078012810
:1054000000D0002070470000780000202DE9F04710
:10541000894605461F46904607210120DDF820A059
:1054200006F0CEF8041E04D00A2D04D306F026FEA2
:105430000020BDE8F087334E56F8250028B12046FD
:1054400006F01CFE56F8254001E046F82540A57000
:1054500084F8039084F80480677184F806A0012220
:1054600051463846FFF75CFAE078012218B1227005
:10547000207918B103E002202070F9E70022627061
:10548000A1796079FFF771FB2046D2E770B5044639
:10549000C37800224079A179012513B1012B06D0F0
:1054A00003E023790BB1012B04D02A4602E02379D3
:1054B000002BFAD16270FFF758FB257070BD70B5F4
:1054C0000446C57800226379A179012015B1012D28
:1054D0000ED003E025790DB1012D01D0627001E0FD
:1054E000607002461846FFF740FB0220207070BD36
:1054F0002579002DF4D0F1E70078012800D00020B4
:10550000704700006C2500202DE9FF5F0546DDE9AE
:1055100012A81E4614210120DDF83CB0DDF84490AD
:1055200006F04EF8041E04D0082D05D306F0A6FDA3
:10553000002004B0BDE8F09F664F57F8250028B161
:10554000204606F09BFD57F8254001E047F825402E
:105550002571019860710298A071A6600E98207361
:1055600084F80DB008224FF47A715846FFF7EAF834
:105570001098A07384F80F90012249461098FFF705
:10558000CFF984F810A084F81180012241465046DA
:10559000FFF7C6F90220207000226270A07900B1E6
:1055A0000122A270E17BA07BFFF7DFFA617C207C07
:1055B0000122FFF7DAFA4848B0FBF6F1607BFFF70B
:1055C0001FF92046B5E78279837BC17B22B1002297
:1055D00082701846FFF7C9BA0122F9E710B50446F0
:1055E000FFF7F1FF3C49A068B1FBF0F1607BFFF7EA
:1055F00007F9607BFFF70BF9617C207C0022FFF745
:10560000B4FA0120207010BD8279837BC17B02B186
:10561000012282701846FFF7A8BA10B50446FFF7BA
:10562000F3FF607BFFF7FAF8617C207C0122FFF733
:105630009CFA0220207010BD0078012800D00020C4
:10564000704770B50024234D264600BF55F824004E
:10565000FFF7F2FF50B355F824004179012902D039
:10566000022932D110E04178491CC9B2417055F885
:105670002400027B914202D1FFF7C6FF25E0642996
:1056800023D3FFF7A0FF20E041780522491CC9B2CF
:10569000417055F82400037BB3FBF2F28A4206D333
:1056A000C670417C3246007CFFF75FFA0DE014299A
:1056B0000BD80122C270417C007CFFF756FA55F8E6
:1056C00024004178142900D14670641CE4B2082CEF
:1056D000BCD370BD942500200024F4002DE9F047D0
:1056E000894605461F4690461421012005F068FFB3
:1056F000041E04D0042D04D306F0C0FC0020BDE835
:10570000F0875A4E56F8250028B1204606F0B6FC20
:1057100056F8254001E046F82540257484F811909C
:1057200084F81280E774012239464046FFF7F8F802
:1057300008224FF47A714846FFF704F80020A06071
:10574000E0602070607060600246E17CA07CFFF742
:105750000CFA2046D3E710B504460078022809D099
:10576000231D480007C31146607CFFF749F801205C
:10577000207010BD002010BD10B50178012901D0A6
:10578000002010BD02210170407CFFF740F801208D
:1057900010BD10B504460078022801D0002010BDCD
:1057A000607CFFF73BF8002060700246E17CA07C43
:1057B000FFF7DBF901202070606810BD10B50446CA
:1057C0000078022814D1607820B10020607018B1F0
:1057D000012202E00120F9E70022E17CA07CFFF732
:1057E000C4F96068401E606002D12046FFF7D1FF17
:1057F000207810BD10B51D4C2068002808D0FFF798
:10580000DDFF022804D02068BDE8104000F05ABA3D
:1058100010BD10B5154C6068002808D0FFF7CEFF0A
:10582000022804D06068BDE8104000F04BBA10BDFB
:1058300010B50E4CA068002808D0FFF7BFFF022863
:1058400004D0A068BDE8104000F03CBA10BD10B50F
:10585000064CE068002808D0FFF7B0FF022804D00B
:10586000E068BDE8104000F02DBA10BDB42500205E
:105870002DE9F74F82B0002504980C46002865D02A
:10588000E068012862D9206900285FD006F06CF832
:10589000FC4905F0A3FE06F0C2F80F460646024694
:1058A0000B460020F84905F0F0FF06F0A5FA824605
:1058B0008946E06806F06EF832463B4605F0E5FFA3
:1058C00081F0004106F098FA52464B4605F068FF19
:1058D00080468B46D4E900010090081A06F05AF879
:1058E00042465B4605F0D1FF80468B4652464B460A
:1058F00005F059FF81468A46009806F04BF84A4663
:10590000534605F0A9FE81468A461CE0E84306F0AE
:1059100030F832463B4605F0B8FF06F06DFA4246D5
:105920005B4605F040FF4A46534605F039FF06F056
:105930005DF8029940004843D449B1FBF0F1049866
:1059400040F825106D1CE068A842DFD805B0BDE81E
:10595000F08F2DE9F05F8B46DDE90AA905461F4669
:1059600090467021012005F02BFE041E05D0042D69
:1059700005D300BF06F082FB0020BDE8F09FC44EB7
:1059800056F8250028B1204606F078FB56F8254049
:1059900001E046F8254035B1012D07D0022D2ED06B
:1059A000032D7ED12EE00021084601E001210846AA
:1059B000DDE90C23FFF792FEA06484F8405084F8E0
:1059C000418084F84270012239464046FEF7A8FF24
:1059D00084F843A084F84490012249465046FEF7DB
:1059E0009FFFAC4805EB850100EBC10000F11401FD
:1059F000C4E9131084F86CB0A06D30B10BE0022143
:105A00000846D5E703210846D2E7022104F15400F5
:105A100000F083F9F0B3206E28B9022104F15C0094
:105A200000F07BF9B0B3606E30B9E06C808980B271
:105A300000F06CF9606668B3024694F86C00E16CA3
:105A4000FFF716FFA06E30B9206D808980B200F09C
:105A50005DF9A066F0B1024694F86C00216DFFF785
:105A600007FF002020756075A061E0612062606220
:105A700084F82800E06220636063A063E063207024
:105A80006060A060E0602061002294F8421094F809
:105A9000410000E005E0FFF768F8607D18B10122E1
:105AA00002E0204666E7002294F8441094F8430090
:105AB000FFF75BF8204660E770B5002102780B46DF
:105AC000012A03D000F15C02147810E000F15402C6
:105AD000FAE75568466855F83150B54205D3506825
