:020000040800F2
:1000000038430020ED1100081112000813120008F7
:10001000171200081B1200081F1200080000000041
:100020000000000000000000000000002312000893
:100030002512000800000000FF61000827120008D8
:10004000071200080712000807120008071200082C
:10005000071200080712000807120008071200081C
:10006000071200080712000807120008071200080C
:1000700007120008071200080712000807120008FC
:1000800007120008071200080712000807120008EC
:1000900007120008071200080712000807120008DC
:1000A00007120008071200080712000807120008CC
:1000B000FF0F0008071200080712000807120008C7
:1000C00007120008071200080712000807120008AC
:1000D0000712000807120008810400080712000830
:1000E000071200080712000807120008071200088C
:1000F000071200080712000807120008071200087C
:10010000071200080712000807120008071200086B
:10011000071200080712000807120008071200085B
:10012000071200080712000807120008071200084B
:10013000DFF80CD007F038F9004800474501000807
:100140003843002010B503F02EFD06F0C9F9482011
:1001500000F00EF81423044A0021044805F077FB50
:1001600003F049FE002010BD30270020FB65000889
:1001700010B54FF0E022126922F004024FF0E023A4
:100180001A61C31700EB5373C3F3C7032E4C2370DC
:10019000C31700EB5373D9104FF47A725143012205
:1001A0002A4B1A804FF0E022126942F002024FF00F
:1001B000E0231A611A465161126942F001021A6184
:1001C00010BD70B5034600224FF0E02675691E4E43
:1001D000367803FB06F400BF4FF0E026B16910E06B
:1001E0004FF0E026B06988420BD0884202D20E1A46
:1001F000324402E02E1A0E4432440146A24200D399
:1002000000E0EDE700BF70BD70B50446104800780F
:10021000012811D10D480088844206DB0B48008874
:1002200094FBF0F5284605F0DFFE0848008894FBB3
:10023000F0F100FB114084B24FF47A7104FB01F03D
:10024000FFF7BFFF70BD000000000020020000208B
:10025000C2000020014600BF704770B504460D463D
:1002600000BF4021FD4802F087FD0128F9D1E1B22D
:10027000FA4802F013FD00BF4021F84802F07CFD6F
:100280000128F9D1204670BD00BFF54A128802F05E
:100290000402002AF9D0C2B2F24B1A80704710B59E
:1002A00040F22551EE4802F07DFD90B3EC4802F09B
:1002B000F9FCED490870ED480078AA280BD15521CA
:1002C000E74802F0EBFC00BF8021E54802F054FD56
:1002D0000028F9D018E0E5480078FE2804D10A216A
:1002E000E14806F018FB0FE0E0480078BB2803D196
:1002F000DB4806F0B5F907E0DC480078CC2803D1EC
:100300000A21D94806F007FBD9480078401CD84993
:10031000087010BD2DE9FF5F144698460F9E4FF000
:10032000060B5521009802F0B9FC00BF802100980F
:1003300002F022FD0028F9D00F21009802F0AEFC57
:1003400000BF8021009802F017FD0028F9D0642535
:100350000021009802F0A2FC00BF8021009802F06A
:100360000BFD0028F9D000BF0BEB060081B200980E
:1003700002F094FC00BF8021009802F0FDFC0028F0
:10038000F9D005EB0B008519DDE9000102F086FCD0
:1003900000BF8021009802F0EFFC0028F9D00198FE
:1003A0000544A246E01704EB1060C0F30F2100984B
:1003B00002F074FC00BF8021009802F0DDFC0028F0
:1003C000F9D02046E11704EB116105EB2125A24687
:1003D000E01704EB10600012A4EB002081B200983B
:1003E00002F05CFC00BF8021009802F0C5FC0028F0
:1003F000F9D02046E11704EB11610912A4EB0121A9
:100400000D444146009802F049FC00BF802100984D
:1004100002F0B2FC0028F9D045440E9F002E16DDF4
:100420004FF0000911E03978009802F037FC00BF66
:100430008021009802F0A0FC0028F9D0387805440B
:100440007F1C09F101001FFA80F9B145EBDBC5F310
:100450000721009802F022FC00BF8021009802F0E2
:100460008BFC0028F9D0E9B2009802F017FC00BF1D
:100470008021009802F080FC0028F9D0BDE8FF9FA1
:100480007CB5002540F22551744802F08BFC002811
:100490007ED0724802F006FCC4B27648007830B1D3
:1004A00001280ED002281BD0032809D13EE0552C8C
:1004B00006D101206F490870084680882044888052
:1004C0008AE00F2C07D102206A490870084680880C
:1004D0002044888003E000206649087088807BE023
:1004E0006448807950B96348048180882044614918
:1004F000888008468079401C887116E05D488079C4
:10050000012812D15B48007A04EB00205949088188
:100510000020594908710880564880882044554970
:100520008880002088710320087055E05148807948
:100530005049098988420FDA4E4881794E48401D5A
:1005400044544C4881790089801E814204DA49482C
:10055000808820444749888046488079401C454926
:100560008871084680790989884234D14148807968
:10057000414908803F488079401E491D0A5C3D483A
:100580008079801E085C02EB00203A49488000E038
:1005900023E0002088710870012037490871354830
:1005A000808834494988884207D10220324908713D
:1005B0003248006805F016F809E000200090012399
:1005C0004EF6EE62194601902448FFF7A3FE14216F
:1005D000284806F0A0F900BF00BF7CBDF0B595B07B
:1005E00004460025002620210DA806F094F92021BC
:1005F00003A806F090F901A802AB0BAA20A1009075
:1006000022A006F0A5F903AA23A124A006F0A0F9D0
:100610000BA9254806F08AF92349401A032190FBCB
:10062000F1F7202203A90DA806F05CF900BF10E045
:1006300003A8405D20280AD003A8405D3A2806D0D0
:1006400003A8405D30380DA98855701CC6B2681CDF
:10065000C5B2082DECDB00252CE000000044004072
:1006600000480040043801405C0100207E01002069
:100670000D000020F80000200C01002004000020E4
:100680002573202564202564000000004D61722040
:1006900020352032303230002573000030393A34B2
:1006A000383A303600000000E0780008002060553D
:1006B000681CC5B20A2DF9DD36480078207035482F
:1006C0004078607033488078A07032480079E070DC
:1006D0000198A0F5FA60002803DD0198A0F5FA6002
:1006E00002E00198A0F26C702071781C6071029891
:1006F000A0719DF835009DF8341001EB810100EBED
:100700004100E0719DF837009DF8361001EB810142
:1007100000EB410020729DF839009DF8381001EB84
:10072000810100EB4100607215B0F0BD38B50020CA
:1007300000906A4600211848006804F09BFE1748A4
:100740000079022825D10020144908710846407913
:1007500030B1012808D0022811D0032817D112E0A7
:100760000F4805F07DFF13E00C48C179807901EB5B
:10077000002084B221460A4805F0A3FF08E008489B
:1007800005F0EBFF04E0064806F034F800E000BF97
:1007900000BF38BD0E000020040000200C01002026
:1007A0000044004008B50121082001F0C9F92020CB
:1007B000ADF8000010208DF8030003208DF8020032
:1007C0006946044800F000FF2021024800F0ABFF1A
:1007D00008BD0000000C014008B50121082001F00F
:1007E000AFF98020ADF8000010208DF80300032041
:1007F0008DF8020069460D4800F0E6FE80210B48A6
:1008000000F091FF08BD00200949086009490870FF
:100810007047012006490860704710B50446002360
:1008200001221946184605F011FC10BD000C0140CC
:100830009C8121423400002000B587B001214FF493
:10084000017001F07DF94FF4004001F0DDF8402027
:10085000ADF8040000208DF8070001A9334800F02E
:10086000B3FE8020ADF8040000208DF8070001A938
:100870002E4800F0A9FE2E4802F0D8FA002002907F
:100880008DF80C008DF80D004FF4602004900020CE
:10089000059002208DF8180002A9254802F0EDFA13
:1008A0000121234802F015FB214802F034FB00BF70
:1008B0001F4802F035FB0028FAD11D4802F03AFB30
:1008C00000BF1B4802F03BFB0028FAD107B000BD77
:1008D00010B50446072301222146154802F065FBA6
:1008E0000121134802F035FB00BF0221104802F03D
:1008F000A1FC0028F9D00E4802F0BEFB10BD2DE986
:10090000F04107460C460025002608E03846FFF770
:10091000DFFF05440520FFF777FC701CC6B2A64236
:10092000F4DBB5FBF4F080B2BDE8F08100080140D3
:10093000002401402DE9F04104460D4617461E46AD
:10094000DDF818801C21204605F0E5FF2560676072
:10095000A660C4F80C80BDE8F0814FF07E51C16103
:10096000002180F824108162E749C16200214163BF
:10097000E6498163E649C163E649016470472DE9B0
:10098000FF5F04468946002003900290019000908A
:1009900000250026206960614946206806F05CF960
:1009A00020612169A06906F005F9A061206906F0BF
:1009B000AAFB074621F00041834606F04BFB824626
:1009C000D54850F82610504606F0D6FB01D200203C
:1009D000A061A06806F097FB074621F0004183461E
:1009E00006F038FB82464FF0505106F0C5FB0CD2A2
:1009F000CA4850F826104FF0804006F033F90746F9
:100A0000A16806F061F9054600E000252946A069C5
:100A100006F0B2FB01D2A56109E085F00047384637
:100A2000A16906F0A9FB02D285F00040A06121690E
:100A3000606806F017F90390A169A06806F012F942
:100A40000290D4E9040106F007F90746E16806F0D0
:100A500009F90190DDE9021006F0ACF807460199AA
:100A600006F0A8F800900021009806F07BFB03D860
:100A7000002004B0BDE8F09FA949009806F07CFB77
:100A800001D8A748F5E70098F3E72DE9FF5F044692
:100A9000894692464FF0000B00200390029050468A
:100AA00006F031FB07469F4A9F4B06F0F2F90246DB
:100AB0000B46CDE9000100209C4906F05CFA054692
:100AC00006F034FB0290029806F01DFB05464FF03D
:100AD0003332974B06F0DDF9074606F027FB6060DE
:100AE000484606F0D6FA07460022924B06F0D1F9A6
:100AF000054606F01BFB83465946606806F0E4F89D
:100B0000A060484606F0C5FA074600224FF07F5322
:100B100006F0BFF9054606F009FB039060680399EB
:100B200006F0A0F8E060BDE8FF9F10B50446206A1B
:100B300006F0D5FA8049087010BD0146486B401C8C
:100B40004863486B032803D10020486301207047A5
:100B50000020FCE72DE9F04104460D46266894F894
:100B60002400052879D094F82400052876D2DFE8FF
:100B700000F0031D375176002046FFF7DEFF30B14D
:100B80002946304606F0F8FA01D2FFF73CFE20462F
:100B9000FFF7D3FF48B12946304606F0E3FA04D800
:100BA000012084F82400FFF734FE94E02046FFF78C
:100BB000C4FF30B12946304606F0D4FA01D8FFF719
:100BC00028FE2046FFF7B9FF48B12946304606F017
:100BD000D3FA04D2022084F82400FFF714FE7AE04E
:100BE0002046FFF7AAFF30B12946304606F0C4FA86
:100BF00001D2FFF708FE2046FFF79FFF48B12946C4
:100C0000304606F0AFFA04D8032084F82400FFF73A
:100C100000FE60E02046FFF790FF30B129463046E5
:100C200006F0A0FA01D8FFF7F4FD206B401C20630A
:100C30002946A06A06F096FA00D2A5622046FFF780
:100C40007CFF48B12946304606F096FA04D20420CB
:100C500084F82400FFF7D7FD3DE03DE03AE0204670
:100C6000FFF76BFF30B12946304606F085FA01D216
:100C7000FFF7C9FD206B401C20632946E06A06F09F
:100C80007BFA00D2E5622046FFF757FF08B32946FA
:100C9000304606F067FA1CD8206B06F0E4F980466F
:100CA000E16905F0DFFF074606F019FA2063D4E991
:100CB0000A0105F0D1FF80464FF0804106F004F8AC
:100CC00007463A462046216BFFF7DFFE052084F8F1
:100CD000240000E000BF07E029462046FFF74FFE52
:100CE00020622046FFF721FF94F82400BDE8F08140
:100CF00070B504460D4629462046FFF740FE2062A7
:100D00002046FFF712FF70BD0000C8421B08000814
:100D100007080008130800084800002038000020D9
:100D2000000048436E861BF0F9210940000079401D
:100D30003333E33F0000E03F340000202DE9FE4F55
:100D400007460C4615461E46DDF830804FF0000978
:100D50002946404606F006FA1BD02946404605F0D3
:100D60007BFF21460190304605F076FF0090019907
:100D700005F0AAFF83462946384605F06DFF59461F
:100D8000029005F06FFF8246214605F013FF814671
:100D900000E0A1464846BDE8FE8FF8B507460D467F
:100DA000002400264FF472765F484168384606F00A
:100DB000E3F903D85C4800682860F8BD701E5A4A01
:100DC00002EBC0004168384606F0CCF905D8701E29
:100DD000554951F830002860EFE701240AE05248F5
:100DE00000EBC4004168384606F0C6F900D803E0BD
:100DF000601C84B2B442F2DB00BFB44205DB701E5B
:100E0000494951F830002860D7E7601E464901EB98
:100E1000C00040680090601E8C465CF83030084688
:100E200000EBC4004268084650F834103846FFF71B
:100E300085FF286000BFC0E72DE9F04104463B4D27
:100E40003B4E204606F00FF907463146284605F08E
:100E50003BFF8046394605F005FFBDE8F0812DE9EE
:100E6000F0470446204606F021F98146484606F040
:100E7000F1F88246214605F0F2FE80462D4905F044
:100E8000F1FE074606F012F90A2190FBF1F201FB90
:100E90001205484606F0DEF88246214605F0DFFEE0
:100EA0008046254905F0DEFE074606F0FFF80A21D8
:100EB00090FBF1F201FB120633462A4649461FA079
:100EC00006F044FCBDE8F0872DE9F14F84B0002026
:100ED0000390029001900498FFF7AEFF03900398EF
:100EE00006F011F906464FF06632184B05F0CEFFBA
:100EF00004460D46039806F006F90646144A154BBB
:100F000005F0C7FF804622462B4606F034F882469D
:100F100006F00CF9029001A90298FFF73EFF019834
:100F200005B0BDE8F08F000004790008333353406A
:100F300000F07F45000020410000C84276616C75DA
:100F4000653D25642E256425640D0A0066660A4009
:100F5000CDCCCCCCCCCC1240F8B5002400253D48FB
:100F6000FFF7FBFC3C4801683C48006805F022FEA6
:100F700006463B483B4B3C4A314600903548FFF71C
:100F8000D9FCF8BD10B508210620FFF7B8FC0446CF
:100F90002046FFF799FF35490860084601682D484B
:100FA000FFF7A6FE10BD10B52A4890F824000528CA
:100FB00005D000214FF0804001F056FA03E00121F6
:100FC000880701F051FA08210620FFF798FC044633
:100FD0002046FFF779FF25490860084601681D484B
:100FE000FFF7B8FD10BD10B508210620FFF787FCFC
:100FF00004462046FFF768FF1C49086010BD10B585
:101000000121880701F0F9FC18B30121880701F0DC
:1010100005FD17480078401C1549087015480088E0
:10102000401C144908801248007813490978884206
:1010300002DD0120114908600D480078C82808DD4C
:101040000D48007810B100200C49086000200849C4
:10105000087010BD98010020EC0000205C0000200A
:101060000008D64500002842004086445800002071
:101070007400002076000020340000209C81214272
:101080000146088870472DE9F04105460E4617468F
:10109000002407E036F81410284602F056FAAD1C7A
:1010A000601C84B2BC42F5DBBDE8F08130B503467C
:1010B0000C461546002207E01846FFF7E1FF24F82A
:1010C00012009B1C501C82B2AA42F5DB30BD2DE9F8
:1010D000F05F80468A461746B8F1006F02D3414858
:1010E000804501D3BDE8F09F02F0E7F8A8F1006B5E
:1010F0004FEA9B25CBF34809C9F50074A74200DCF1
:101100003C464DE04FF0006101EB85208A143649E2
:10111000FFF7CCFF00260BE009EB0600324931F85F
:1011200010004FF6FF71884200D003E0701C86B2B9
:10113000A642F1DB00BFA6421BDA4FF0006101EBD3
:10114000852002F0FFF8002608E03AF8160006EBCA
:101150000901254A22F81100701C86B2A642F4DB70
:101160004FF0006101EB85208A141F49FFF78BFFC8
:1011700004E0224651464046FFF785FFA74200D1D2
:101180000FE06D1C4FF000090AEB440AA044381B25
:1011900087B2B7F5007F02DD4FF4007400E03C46F3
:1011A000B0E700BF02F095F800BF9BE713B5044617
:1011B000012201A92046FFF78AFF1CBD70B5044635
:1011C0000D461646324629462046FFF76FFF70BD92
:1011D00070B504460D461646324629462046FFF7AE
:1011E00076FF70BD00000108DC0100200648804742
:1011F00006480047FEE7FEE7FEE7FEE7FEE7FEE7FC
:10120000FEE7FEE7FEE7FEE72B13000831010008CA
:10121000704700BFFEE700BFFEE700BFFEE700BF6C
:10122000FEE77047704710B504F0C8FF0446064853
:101230000078401C04490870204604F0C3FF02F007
:1012400011FE02F0E3FC10BDB90000200CB5002037
:10125000019000906C48006840F480306A49086052
:1012600000BF6948006800F4003000900198401CFD
:101270000190009818B90198B0F5A06FF1D16248BB
:10128000006800F4003010B10120009001E000205F
:1012900000900098012843D15C48006840F010009D
:1012A0005A4908600846006820F0030008600846B4
:1012B000006840F0020008605348406852494860A6
:1012C0000846406848600846406840F480604860CE
:1012D0000846406820F47C1048600846406840F4A6
:1012E000E81048600846006840F08070086000BF61
:1012F0004548006800F000700028F9D04248406876
:1013000020F00300404948600846406840F0020071
:10131000486000BF3C48406800F00C000828F9D144
:101320000CBD10B5FFF792FF10BD10B53648006830
:1013300040F00100344908600846406834490840DC
:101340003149486008460068324908402E49086023
:101350000846006820F4802008600846406820F4B1
:10136000FE0048604FF41F008860FFF7DAFF4FF07F
:1013700000602949086010BD10B50021002000223E
:10138000214B5B6803F00C0121B1042906D0082928
:1013900028D107E0214B224C236027E01F4B204C33
:1013A000236023E0184B5B6803F47010164B5B68F6
:1013B00003F48032022303EB904022B9194B4343DC
:1013C000174C23600DE0104B5B6803F4003323B12E
:1013D000144B4343124C236003E0104B4343104C27
:1013E000236003E00D4B0E4C236000BF00BF064B93
:1013F0005B68C3F303130C4CE15C094B1B68CB40E7
:10140000074C236010BD0000001002400020024085
:101410000000FFF8FFFFF6FE08ED00E000127A0082
:101420007800002000093D007C0000203149014384
:10143000314A1160704770B5002100230F22C47833
:1014400004B32D4C246804F4E064C4F5E064210A7C
:10145000C1F10403CA40447804FA03F184781440CB
:1014600021430901254C0678A155047804F01F0595
:101470000124AC4005786D11AD0005F1E025C5F8FB
:10148000004109E0047804F01F050124AC401C4D24
:101490000678761145F8264070BD1A4A0A40024384
:1014A000154B1B1F1A60704739B1134A121D126881
:1014B0000243114B1B1D1A6006E00F4A121D1268F1
:1014C00082430D4B1B1D1A607047042808D14FF052
:1014D000E021096941F004014FF0E022116107E0C9
:1014E0004FF0E021096921F004014FF0E022116181
:1014F000704700000000FA050CED00E000E400E099
:1015000080E100E080FFFF1F10B50446CC48844214
:1015100008D10121042000F02DFB0021042000F05F
:1015200029FB46E0C748844208D10121082000F089
:1015300021FB0021082000F01DFB3AE0C248844254
:1015400008D10121102000F015FB0021102000F02F
:1015500011FB2EE0BD48844208D10121202000F07B
:1015600009FB0021202000F005FB22E0B84884425E
:1015700008D10121402000F0FDFA0021402000F0B8
:10158000F9FA16E0B348844208D10121802000F026
:10159000F1FA0021802000F0EDFA0AE0AE48844222
:1015A00007D10121801500F0E5FA0021A01500F017
:1015B000E1FA10BD10B50121084600F0DBFA002168
:1015C000012000F0D7FA10BD2DE9F04102460025B8
:1015D0000026002000230024002791F803C00CF00F
:1015E0000F0591F803C00CF0100CBCF1000F03D0F4
:1015F00091F802C04CEA050591F800C0BCF1000F5B
:1016000031D0146800202BE04FF0010C0CFA00F3ED
:10161000B1F800C00CEA03069E4220D183004FF0CF
:101620000F0C0CFA03F7BC4305FA03FC4CEA040464
:1016300091F803C0BCF1280F06D14FF0010C0CFA51
:1016400000FCC2F814C00AE091F803C0BCF1480FD6
:1016500005D14FF0010C0CFA00FCC2F810C0401C80
:101660000828D1D31460B1F800C0BCF1FF0F34DDFD
:10167000546800202EE000F1080C4FF0010808FA31
:101680000CF3B1F800C00CEA03069E4221D183009E
:101690004FF00F0C0CFA03F7BC4305FA03FC4CEABD
:1016A000040491F803C0BCF1280F05D100F1080C27
:1016B00008FA0CF8C2F8148091F803C0BCF1480F86
:1016C00007D100F1080C4FF0010808FA0CF8C2F835
:1016D0001080401C0828CED35460BDE8F0814FF63E
:1016E000FF710180022181700421C17070470246A0
:1016F000002093680B400BB1012000E000207047F0
:101700000146886880B2704702460020D3680B40CB
:101710000BB1012000E0002070470146C86880B28C
:10172000704701617047416170470AB1016100E093
:1017300041617047C16070474FF480320A43826153
:101740008161826182698269704702460020434B51
:1017500018684FF68073184040EA021008433F4B68
:10176000186070473E49C8617047F0B50A460023CB
:1017700000240021002500F00046B6F1004F02D100
:10178000364EF16901E0354E7168C0F3034583B20E
:1017900000F44016B6F5401F08D121F070612F4EBD
:1017A000766826F070662D4F7E6012E000F4801699
:1017B000B6F5801F06D1032606FA05F4A14341F0D1
:1017C000706106E0460D360103FA06F6B14341F0BA
:1017D000706122B1460D360103FA06F6314300F07E
:1017E0000046B6F1004F02D11C4EF16101E01B4EE4
:1017F0007160F0BD30B500228B071C0F0F2303FA78
:1018000004F2164B08338C1053F824309343134CD6
:1018100008348D1044F8253023468C1053F82430BA
:101820008C07240F00FA04F423430C4C08348D1069
:1018300044F8253030BD0A49DC31086070470000AB
:1018400000080140000C014000100140001401405C
:1018500000180140001C0140002001400000014030
:1018600000002042DF48006840F00100DD490860C8
:1018700008464068DC490840DA4948600846006884
:10188000DA490840D74908600846006820F48020FB
:1018900008600846406820F4FE0048604FF41F00CE
:1018A00088607047CF49096821F48031CD4A1160C2
:1018B0001146096821F480211160B0F5803F03D002
:1018C000B0F5802F0ED106E0C649096841F4803199
:1018D000C44A116007E0C349096841F4A021C14A24
:1018E000116000E000BF00BF704710B50146002244
:1018F000002300204A11012A02D1BA4C236806E0D5
:10190000022A02D1B74C236A01E0B64C636A01F0A7
:101910001F02012494401C400CB1012000E0002073
:1019200010BD38B5002000900024002500BF3120F4
:10193000FFF7DBFF05460098401C00900098B0F5CB
:10194000A06F01D0002DF2D03120FFF7CEFF08B1FB
:10195000012400E00024204638BD01460020A14AB1
:10196000106820F0F80040EAC10010607047A049FC
:1019700008607047024600209A4B586820F47C109B
:1019800042EA01031843974B58607047984908662C
:10199000704701460020934A506820F00300084336
:1019A000506070478F48406800F00C007047014657
:1019B00000208C4A506820F0F000084350607047C7
:1019C00001460020874A506820F4E06008435060D8
:1019D000704701460020834A506820F4605040EA76
:1019E000C1005060704729B17E4A527A02437D4B54
:1019F0005A7204E07B4A527A82437A4B5A72704799
:101A00007B49D8310860704701460020754A50680C
:101A100020F440400843506070470021714A203252
:101A20001170704A82F82010012802D004280AD1CF
:101A300004E001216B4A2032117005E00521694A5A
:101A40002032117000E000BF00BF70476949086094
:101A500070476449096A0143624A116270476549E7
:101A600044390860704730B500210022002400236B
:101A70005C4D6D6805F00C0121B1042905D00829E1
:101A800023D105E05C4D056022E05B4D05601FE061
:101A9000544D6D6805F47012524D6D6805F4803434
:101AA000022505EB92421CB9544D554305600BE0ED
:101AB0004C4D6D6805F400351DB1504D5543056022
:101AC00002E04D4D5543056002E04B4D056000BFFF
:101AD00000BF444D6D6805F0F0010909484D6B5C8D
:101AE0000568DD4045603F4D6D6805F4E061090A19
:101AF000434D6B5C4568DD4085603A4D6D6805F48B
:101B00006051C90A3E4D6B5C4568DD40C560354D8E
:101B10006D6805F44041890B3A4D6B5CC568B5FBB7
:101B2000F3F5056130BD29B12E4A526902432D4BB0
:101B30005A6104E02B4A526982432A4B5A6170472A
:101B400029B1284A92690243264B9A6104E0254A4A
:101B500092698243234B9A61704729B1214AD26925
:101B60000243204BDA6104E01E4AD26982431D4BD6
:101B7000DA61704729B11B4AD2680243194BDA6017
:101B800004E0184AD2688243164BDA60704729B1E4
:101B9000144A12690243134B1A6104E0114A126994
:101BA0008243104B1A6170471249403908607047F0
:101BB0000F49C86470470B49C87170470948406AAB
:101BC00040F0807007494862704701460020054A8E
:101BD00092680A400AB1012000E0002070470149E4
:101BE00088727047001002400000FFF8FFFFF6FE09
:101BF000000042428004424200127A0000093D0087
:101C00008C0000209C00002010B50446FE48844251
:101C100008D10121C014FFF7ADFF0021E014FFF748
:101C2000A9FFC4E0B4F1804F08D101210846FFF7B5
:101C3000AEFF00210120FFF7AAFFB8E0F34884427D
:101C400008D101210220FFF7A2FF00210220FFF7A7
:101C50009EFFACE0EE48844208D101210420FFF74A
:101C600096FF00210420FFF792FFA0E0E94884429C
:101C700008D101210820FFF78AFF00210820FFF783
:101C800086FF94E0E448844208D101211020FFF748
:101C90007EFF00211020FFF77AFF88E0DF488442B2
:101CA00008D101212020FFF772FF00212020FFF73B
:101CB0006EFF7CE0DA48844208D101214014FFF72E
:101CC00059FF00216014FFF755FF70E0D5488442AA
:101CD00009D10121C804FFF74DFF00214FF4002076
:101CE000FFF748FF63E0D048844209D1012108058D
:101CF000FFF740FF00214FF48010FFF73BFF56E055
:101D0000CA48844209D101214805FFF733FF002169
:101D10004FF40010FFF72EFF49E0C548844208D178
:101D200001214020FFF733FF00214020FFF72FFF64
:101D30003DE0C048844208D101218020FFF727FF01
:101D400000218020FFF723FF31E0BB48844208D107
:101D500001218015FFF71BFF0021A015FFF717FFDA
:101D600025E0B648844209D101210804FFF702FFAB
:101D700000214FF48030FFF7FDFE18E0B0488442A8
:101D800009D101214804FFF7F5FE00214FF400308E
:101D9000FFF7F0FE0BE0AB48844208D10121880434
:101DA000FFF7E8FE00214FF48020FFF7E3FE10BDAF
:101DB00000220288944B98420ED0994B98420BD047
:101DC000B0F1804F08D0914B984205D0904B98428B
:101DD00002D0904B984204D14FF68F731A404B8833
:101DE0001A438D4B984207D08C4B984204D04FF643
:101DF000FF431A40CB881A4302808B8883850B8867
:101E00000385814B98420BD0854B984208D08B4B71
:101E1000984205D08A4B984202D08A4B984201D111
:101E20000B7A038601238382704770B50024002259
:101E30000023058C4FF6FE7635400584028C83889E
:101E4000048B4FF68F752C40B51E2C400D882C430B
:101E5000751E2A400D892A434D882A436A4DA8429F
:101E60000BD06F4DA84208D0744DA84205D0744DD8
:101E7000A84202D0734DA84213D14FF6F7752A40FD
:101E80004D892A434FF6FB752A408D882A434FF629
:101E9000FF652B404FF6FF552B408D892B43CD8995
:101EA0002B4383800483CD888586028470BD70B502
:101EB000002400220023058C4FF6EF763540058480
:101EC000028C8388048B48F6FF752C404FF6FF4543
:101ED0002C400D884FF6FF7606EA05252C434FF679
:101EE000DF752A400D8906EA05152A434D8806EA62
:101EF00005152A43444DA84202D0494DA8421DD1A0
:101F00004FF67F752A404D894FF6FF7606EA051594
:101F10002A434FF6BF752A408D8806EA05152A43E5
:101F20004FF6FF352B404FF2FF752B408D8906EAA7
:101F300085052B43CD8906EA85052B4383800483E1
:101F4000CD880587028470BD70B50024002200236F
:101F5000058C4FF6FF6635400584028C8388848BA0
:101F60004FF68F752C404FF6FC752C400D882C4396
:101F70004FF6FF552A400D894FF6FF7606EA0525F4
:101F80002A434D8806EA05252A431F4DA84202D060
:101F9000234DA8421DD14FF2FF752A404D894FF6BF
:101FA000FF7606EA05252A434FF6FF352A408D883D
:101FB00006EA05252A434EF6FF752B404DF6FF75C0
:101FC0002B408D8906EA05152B43CD8906EA0515B8
:101FD0002B4383808483CD888587028470BD70B550
:101FE000002200230024058C4EF6FF763540058440
:101FF000038C8488828B48F6FF752A404FF6FF4594
:102000002A400D8820E00000002C01400004004020
:1020100000080040000C0040001000400014004088
:1020200000340140004C0140005001400054014088
:1020300000180040001C004000200040004001400B
:1020400000440140004801404FF6FF7606EA0525AE
:102050002A434DF6FF752B400D8906EA05352B43C3
:102060004D8806EA05352B43FA4DA84202D0FA4DB9
:10207000A84208D14BF6FF752C408D894FF6FF76AC
:1020800006EA85152C4384808283CD88A0F84050D1
:10209000038470BD828B4FF2FF331A408283828BA0
:1020A0004FF6FF7303EA01231A4382837047F0B5AA
:1020B0000C461546002200210026078C4EF6FF7CB8
:1020C00007EA0C070784828B018C4FF6FF7707EA3B
:1020D000043640F6FF473A404FF6FF7707EA0527F8
:1020E0003A434FF6FF7707EA03373A43D94FB842EE
:1020F0000ED0D94FB8420BD0B0F1804F08D0D74F97
:10210000B84205D0D64FB84202D0D64FB84206D119
:102110004DF6FF77394046F48057394305E047F6DE
:10212000FF57394044F48057394382830184F0BD1E
:10213000828B4FF6F3731A408283828B0A43828329
:102140007047F0B50C461546002200210026078C8A
:102150004FF6FF6C07EA0C070784828B018C4FF661
:10216000FF7707EA04264FF60C773A404FF6FF77E1
:1021700007EA03172F433A43B64FB8420ED0B64F83
:10218000B8420BD0B0F1804F08D0B44FB84205D060
:10219000B34FB84202D0B34FB84206D14FF6FF5703
:1021A000394046F48077394305E04FF2FF57394014
:1021B00044F48077394382830184F0BD028B4FF26F
:1021C000FF331A400283028B4FF6FF7303EA0123A9
:1021D0001A4302837047F0B50C46154600220021D1
:1021E0000026078C4FF6EF7C07EA0C070784028B6A
:1021F000018C4FF6FF7707EA041640F6FF473A4096
:102200004FF6FF7707EA03373A434FF6FF7707EABF
:1022100005273A438F4FB8420ED08F4FB8420BD0AC
:10222000B0F1804F08D08D4FB84205D08C4FB842E6
:1022300002D08C4FB84206D14FF6DF77394046F0D6
:102240001007394305E04FF65F77394044F0100737
:10225000394302830184F0BD028B4FF6F3731A40B9
:102260000283028B0A4302837047F0B50C46154681
:1022700000220021068C4FF6FE773E400684028B3A
:10228000018C4FF60C7632407E1C06EA03162E4374
:102290003243704EB0420ED06F4EB0420BD0B0F110
:1022A000804F08D06D4EB04205D06D4EB04202D086
:1022B0006C4EB04206D14FF6FD76314044F0010637
:1022C000314305E04FF6F576314044F001063143E5
:1022D00002830184F0BD70B505460C465D48854219
:1022E0000ED05D4885420BD0B5F1804F08D05B48D9
:1022F000854205D05A48854202D05A48854200D1CD
:1023000000E000BF208850B92389A2886188284650
:10231000FFF7ABFFE1882846FFF79EFF25E0208806
:1023200004280AD12389A28861882846FFF753FF31
:10233000E1882846FFF742FF17E0208808280AD1E5
:102340002389A28861882846FFF7FBFEE18828469A
:10235000FFF7EEFE09E02389A28861882846FFF78F
:10236000A6FEE1882846FFF795FE70BD2DE9F041F5
:1023700005460C4600260127608808B9022600E0C1
:102380000026A088012801D1022700E0012720882B
:10239000A0B92389A28861882846FFF766FFE188F3
:1023A0002846FFF759FF23893A4631462846FFF76A
:1023B00012FFE1882846FFF701FF13E02389A28876
:1023C00061882846FFF707FFE1882846FFF7F6FEF9
:1023D00023893A4631462846FFF747FFE1882846D9
:1023E000FFF73AFFBDE8F0810A884B881A438B88D3
:1023F0001A43CB881A430B891A434B891A438B899A
:102400001A43A0F8442070474FF6FF7181800021E5
:102410000180C180418001727047002101804180AC
:102420008180C180018141818181C181704700210A
:1024300001804180012181800021C180018170479C
:102440000021018041808180C180018141818181A1
:1024500070470000002C014000340140000400409F
:1024600000080040000C004021B1028842F0010247
:10247000028004E002884FF6FE731A400280704723
:1024800031B1B0F8442042F40042A0F8442005E005
:10249000B0F84420C2F30E02A0F8442070471AB1ED
:1024A00083890B43838102E083898B438381704757
:1024B0008182704741EA0203A0F8483070471AB1A0
:1024C00083890B43838102E083898B438381704737
:1024D00001894FF6F8721140018170470A460021C8
:1024E00001894FF68F73194011430181704730B550
:1024F00004460D4629462046FFF7F0FF208940F0AC
:102500000700208130BD2DE9F04104460D461646F6
:102510001F46602D06D13B46012231462046FFF77B
:102520005AFE05E03B46012231462046FFF79DFE5C
:1025300029462046FFF7D2FF208940F0070020817E
:10254000BDE8F08130B50C4600210189C9B24FF6D3
:10255000FF7505EA0325154325432943018130BD55
:102560002DE9F04105460E4617469846002443469D
:102570003A4631462846FFF7E5FF2C894FF6F870BA
:10258000044044F007044FF68F70044044F0700498
:102590002C81BDE8F081F0B504460D4616461F4675
:1025A0003B46324629462046FFF7CCFF208940F4BF
:1025B00080402081F0BD0185828270470A4600215B
:1025C00001884FF68F731940114301807047F0B5B1
:1025D0000C4615461E460021002200230189028B6D
:1025E000038C4FF6F877394021434FF6FC473A40C9
:1025F00040F201173A434FF6DD773B404FF6FF7745
:1026000007EA06172F433B43018102830384F0BD91
:102610000A460021018B4FF68F7319401143018345
:1026200070470A460021018B48F6FF7319404FF6A8
:10263000FF7303EA02231943018370470A4600210E
:10264000818B4FF68F7319401143818370470A467F
:102650000021818B48F6FF7319404FF6FF7303EAA0
:10266000022319438183704721B1028842F080021E
:10267000028004E002884FF67F731A4002807047A0
:1026800021B1828842F00402828004E082884FF601
:10269000FB731A408280704721B1828842F00802A1
:1026A000828004E082884FF6F7731A408280704778
:1026B00021B1828842F00102828004E082884FF6D4
:1026C000FE731A40828070470A460021018B4FF644
:1026D000F77319401143018370470A460021018BAB
:1026E0004FF2FF7319404FF6FF7303EA02231943B9
:1026F000018370470A460021818B4FF6F77319401A
:102700001143818370470A460021818B4FF2FF738A
:1027100019404FF6FF7303EA022319438183704780
:102720000A460021018B4FF6FB73194011430183C8
:1027300070470A460021018B4FF6FF3319404FF6D0
:10274000FF7303EA02231943018370470A460021FD
:10275000818B4FF6FB7319401143818370470A4602
:102760000021818B4FF6FF3319404FF6FF7303EAC8
:1027700002231943818370470A460021018B4FF6DB
:102780007F7319401143018370470A460021018B72
:10279000C1F30E014FF6FF7303EA022319430183CD
:1027A00070470A460021818B4FF67F731940114311
:1027B000818370470A460021818BC1F30E014FF6D9
:1027C000FF7303EA02231943818370470A460021FD
:1027D000018C4FF6FD7319401143018470470A467E
:1027E0000021018C4FF6F7731940114301847047A3
:1027F0000A460021018C4FF6DF7319404FF6FF7334
:1028000003EA02131943018470470A460021018C30
:102810004FF67F7319404FF6FF7303EA0213194313
:10282000018470470A460021018C4FF6FF5319407E
:102830004FF6FF7303EA02231943018470470A46E7
:102840000021018C4FF2FF7319404FF6FF7303EA2A
:1028500002231943018470470A460021018C4DF67A
:10286000FF7319404FF6FF7303EA023319430184E3
:10287000704730B5002301248C40A3B2048C9C43E4
:102880000484048C02FA01F5ADB22C43048430BDFB
:1028900030B5002304248C40A3B2048C9C430484F0
:1028A000048C02FA01F5ADB22C43048430BD70B53E
:1028B0000346002000241846183001258D40ACB294
:1028C0001D8CA5431D8409B1082909D100EB6100C5
:1028D000056825F0700505600568154305600EE084
:1028E0000D1FC5F34E052844056825F4E045056035
:1028F00005684FF6FF7606EA02263543056070BD8F
:1029000021B1028842F00202028004E002884FF600
:10291000FD731A400280704721B1028842F0040220
:10292000028004E002884FF6FB731A400280704771
:1029300021B1828842F08002828004E082884FF6D2
:102940007F731A408280704702884FF6F7731A40EF
:10295000028002880A430280704782884FF68F7394
:102960001A40828082880A438280704702894FF62B
:10297000F8731A40028102890A4302817047028972
:102980004FF67F731A40028102890A430281704721
:1029900081847047818570478186704701877047C1
:1029A00081877047A0F84010704702884FF6FF43B8
:1029B0001A40028002880A43028070470146888ECE
:1029C00070470146088F70470146888F704701465F
:1029D000B1F8400070470146888C70470146088D69
:1029E000704702460020138A0B400BB1012000E023
:1029F00000207047CA430282704730B5024600206B
:102A000000230024158A05EA0103958905EA0104DB
:102A100013B10CB1012000E0002030BDCA43028296
:102A20007047000010B50446FB48844209D10121DB
:102A30008803FFF79FF800214FF48040FFF79AF8D2
:102A400032E0F648844209D101214804FFF79FF89B
:102A500000214FF40030FFF79AF825E0F048844257
:102A600009D101218804FFF792F800214FF480205A
:102A7000FFF78DF818E0EB48844209D10121C80422
:102A8000FFF785F800214FF40020FFF780F80BE0F6
:102A9000E548844208D101210805FFF778F80021B4
:102AA0004FF48010FFF773F810BD2DE9F04786B0A2
:102AB00005460E460024A24600BFA1460027B08965
:102AC00000B100BF2F462C8A4CF6FF700440F088FE
:102AD00004432C82AC894EF6F3100440B08831894F
:102AE0000843718908430443AC81AC8A4FF6FF4028
:102AF0000440B0890443AC8201A8FEF7B4FFC64885
:102B0000874202D1DDF810A001E0DDF80CA0A88911
:102B100000F4004040B10AEBCA0000EB0A10316833
:102B20004900B0FBF1F807E00AEBCA0000EB0A101D
:102B300031688900B0FBF1F86420B8FBF0F00401C3
:102B40002009642101FB1089A88900F4004040B1EC
:102B5000322000EBC900B0FBF1F000F007000443A5
:102B600008E0322000EB09106421B0FBF1F000F026
:102B70000F0004432C8106B0BDE8F0874FF41651D6
:102B8000016000218180C18001810C2141810021EF
:102B90008181704710B502460020108A4FF2FF0372
:102BA00018400B884C8823438C882343CC882343CC
:102BB0001843108210BD0021018041808180C180B6
:102BC000704721B1828942F40052828104E08289F7
:102BD0004DF6FF731A4082817047F0B5034600241A
:102BE00000260025002040F66A17B94200D100BF38
:102BF0001846C1F3421401F01F06012707FA06F533
:102C0000012C01D10C3004E0022C01D1103000E085
:102C100014301AB107682F43076002E00768AF431A
:102C20000760F0BD1AB1838A0B43838202E0838A76
:102C30008B4383827047028A4FF6F0731A400282F8
:102C4000028A0A430282704782894FF2FF731A4058
:102C5000828182890A438281704721B1828942F050
:102C60000202828104E082894FF6FD731A4082815C
:102C70007047028A4FF6DF731A400282028A0A43C3
:102C80000282704721B1028A42F48042028204E04B
:102C9000028A4BF6FF731A4002827047C1F30802A2
:102CA0008280704701468888C0F308007047818998
:102CB00041F0010181817047028BD2B20283028B05
:102CC00042EA012202837047028B02F47F420283B0
:102CD000028B0A430283704721B1828A42F02002AC
:102CE000828204E0828A4FF6DF731A408282704744
:102CF00021B1828A42F01002828204E0828A4FF679
:102D0000EF731A408282704721B1828A42F0080232
:102D1000828204E0828A4FF6F7731A4082827047FB
:102D200021B1828942F40042828103E08289C2F3A8
:102D30000E028281704721B1828A42F4006282824F
:102D400004E0828A4FF2FF731A4082827047828ABF
:102D50004FF6FB731A408282828A0A43828270474E
:102D600021B1828A42F00202828204E0828A4FF616
:102D7000FD731A408282704702460020B1F5007F41
:102D800000D100BF13880B400BB1012000E00020F0
:102D9000704701F40072B2F5007F00D100BFCA4352
:102DA0000280704770B502460024002300250020F1
:102DB00040F66A16B14200D100BFC1F3421501F0DE
:102DC0001F03012606FA03F3012D02D19689334031
:102DD00006E0022D02D1168A334001E0968A334084
:102DE0000C12012606FA04F41688344013B10CB113
:102DF000012000E0002070BD10B50022002340F645
:102E00006A14A14200D100BF0A1201249440A3B267
:102E1000DC43048010BD0000003801400044004045
:102E200000480040004C00400050004010B50446EF
:102E3000FA48844208D101214015FEF79BFE00218B
:102E40006015FEF797FE17E0F548844208D101218E
:102E50000015FEF78FFE00212015FEF78BFE0BE01C
:102E6000F048844208D10121C803FEF783FE002107
:102E70004FF40040FEF77EFE10BD30B50246002044
:102E800000235068E84C20400D790C6844EA052482
:102E9000204350609068E54C2040D1E902542C4317
:102EA0004D7944EA450420439060D06A20F47000D4
:102EB0000C7C641EE4B2234340EA0350D06230BD70
:102EC00000210160017141718160C16001210174C3
:102ED000704721B1826842F00102826003E082689B
:102EE00022F001028260704721B1826842F4807250
:102EF000826003E0826822F480728260704710B5BD
:102F00000023CBB21AB144681C43446002E0446819
:102F10009C43446010BD816841F0080181607047A6
:102F2000014600208A6802F008020AB1012000E090
:102F300000207047816841F00401816070470146BC
:102F400000208A6802F004020AB1012000E000209B
:102F5000704721B1826842F4A002826003E0826877
:102F600022F4A00282607047014600208A6802F4C1
:102F700080020AB1012000E00020704710B50A4627
:102F800000210023416821F46041531E41EA43318E
:102F9000416010BD21B1426842F40062426003E02A
:102FA000426822F4006242607047F0B504460D4664
:102FB00000200021092D11DDE068A5F10A0606EBCD
:102FC0004607072606FA07F18843A5F10A0606EB2D
:102FD000460603FA06F10843E0600CE0206905EBC1
:102FE0004507072606FA07F1884305EB450603FA6D
:102FF00006F108432061072A0FDA606B561E06EBC4
:1030000086071F2606FA07F18843561E06EB86063A
:1030100005FA06F10843606322E00D2A0FDA206BFF
:10302000D61F06EB86071F2606FA07F18843D61F30
:1030300006EB860605FA06F10843206310E0E06A15
:10304000A2F10D0606EB86071F2606FA07F1884354
:10305000A2F10D0606EB860605FA06F10843E062CA
:10306000F0BD21B1826842F48012826003E0826880
:1030700022F48012826070470146C86C80B27047AB
:1030800066484C300068704721B1426842F4806263
:10309000426003E0426822F480624260704721B1DE
:1030A000426842F48052426003E0426822F4805257
:1030B000426070470A460021816821F4E0411143D3
:1030C0008160704721B1826842F40042826003E06F
:1030D000826822F400428260704721B1826842F423
:1030E0000212826003E0826822F40212826070475A
:1030F000014600208A6802F400120AB1012000E0B3
:1031000000207047F0B50446154600200022002636
:10311000092911DDE068A1F10A0707EB470C072731
:1031200007FA0CF29043A1F10A0707EB470703FAED
:1031300007F21043E0600CE0206901EB410C072727
:1031400007FA0CF2904301EB410703FA07F2104330
:103150002061A06BC0F30156EF1C06F1010CA7EB38
:103160000C0707EB870C1F2707FA0CF29043EF1CA4
:1031700006F1010CA7EB0C0707EB870701FA07F232
:103180001043A063F0BD10B50A4600210023816BF7
:1031900021F44011531E41EA0351816310BD08B56B
:1031A000002300930090009B0B440093009B1A6047
:1031B00008BD08B5024600200090009201F12800E9
:1031C000009B184400900098006880B208BD0A4631
:1031D00000214168164B194011434160704741621C
:1031E000826270470A460021416821F01F011143A5
:1031F0004160704740B109490831096841F4000154
:10320000064A0832116007E004490831096821F4D0
:103210000001024A0832116070470000002401409A
:1032200000280140003C0140FFFEF0FFFDF7F1FFE8
:10323000FFFD3FFF0246002013680B400BB1012049
:1032400000E000207047CA430260704770B5024634
:103250000020002300240B125568CEB205EA0604B4
:1032600015681D4015B10CB1012000E0002070BDB3
:1032700000220A12D3430360704700000146002079
:10328000FE4A106800F03800084310607047FB49A0
:10329000096821F00801F94A1160114609680143E3
:1032A00011607047F549096821F01001F34A116077
:1032B00011460968014311607047F148EF494860C1
:1032C000F04848607047EE48EC494860ED48486077
:1032D0007047EA48006940F08000E849086170479B
:1032E000E648006940F08000E44908617047042026
:1032F000E249C96801F0010109B101200EE0DF498E
:10330000C96801F0040109B1022007E0DB49C9687E
:1033100001F0100109B1032000E00420704700B55E
:1033200002460423FFF7E3FF034603E0FFF7DFFF56
:103330000346521E012B01D1002AF7D102B9052301
:10334000184600BD30B5044604254FF43020FFF781
:10335000E6FF0546042D17D1C848006940F0020079
:10336000C649086108464461006940F040000861B0
:103370004FF43020FFF7D3FF0546C048006941F6FF
:10338000FD710840BD490861284630BD10B50424D0
:103390004FF43020FFF7C3FF0446042C16D1B74882
:1033A000006940F00400B54908610846006940F032
:1033B000400008614FF43020FFF7B1FF0446AF48EA
:1033C000006941F6FB710840AC490861204610BD18
:1033D00000B502460423FFF78AFF034603E0FFF728
:1033E00086FF0346521E012B01D1002AF7D102B9F4
:1033F0000523184600BD10B504244FF43020FFF714
:10340000E7FF0446042C16D19C48006940F00400F4
:103410009A4908610846006940F0400008614FF48D
:103420003020FFF7D5FF04469448006941F6FB7150
:10343000084092490861204610BD00208F49C969A3
:1034400001F0020109B1012000E00020704730B511
:10345000A5250424FFF7F1FF00B100254FF430202B
:10346000FFF75DFF0446042C3AD185488349886004
:10347000844888600846006940F0200008610846DA
:10348000006940F0400008614FF43020FFF747FF2B
:103490000446042C1BD17948006941F6DF710840CD
:1034A000764908610846006940F0100008617648D6
:1034B0000580E002FFF733FF0446052C10D06F486B
:1034C000006941F6EF7108406C49086108E0052C7D
:1034D00006D06A48006941F6EF7108406749086103
:1034E000204630BD78B506460C46042500200090E5
:1034F000E802FFF714FF0546042D24D15F48006958
:1035000040F001005D4908613480E802FFF707FFE1
:103510000546042D10D1B01C0090200C00990880A5
:10352000E802FFF7FCFE05465448006941F6FE71CB
:1035300008405249086106E05048006941F6FE71B2
:1035400008404E490861284678BD70B504460D46CE
:103550000426F002FFF7E3FE0646042E11D1474889
:10356000006940F00100454908612580F002FFF73D
:10357000D6FE06464148006941F6FE7108403F49C3
:103580000861304670BD70B505460E460424E00261
:10359000FFF7C5FE0446042C17D139483749886027
:1035A000384888600846006940F0100008612E80A5
:1035B000E002FFF7B4FE0446052C06D02F48006950
:1035C00041F6EF7108402D490861204670BD2DE994
:1035D000F04304464FF6FF763746B046B146042521
:1035E000E443E6B2C4F30727C4F307484FEA14697B
:1035F000E802FFF794FE0546042D49D120481F49F3
:103600008860204888600846006940F01000086122
:10361000FF2E06D01C4808300680E802FFF77FFE28
:103620000546042D08D1FF2F06D017480A30078021
:10363000E802FFF774FE0546042D0AD1B8F1FF0F2A
:1036400007D011480C30A0F80080E802FFF767FEB1
:103650000546042D0AD1B9F1FF0F07D00A480E30F4
:10366000A0F80090E802FFF75AFE0546052D0FD09E
:103670000248006941F6EF71084007E0002002406F
:1036800023016745AB89EFCD00F8FF1F664908614C
:103690002846BDE8F08330B5054604244FF43020B9
:1036A000FFF73DFE0446042C41D160485E49886026
:1036B0005F4888600846006940F0200008610846BD
:1036C000006940F0400008614FF43020FFF727FE0A
:1036D0000446042C22D15448006941F6DF710840A9
:1036E000514908610846006940F0100008611DB1A9
:1036F00000205049088002E0A5204E4908804FF480
:103700003020FFF70CFE0446052C10D04648006917
:1037100041F6EF7108404449086108E0052C06D0E5
:103720004148006941F6DF7108403F490861204681
:1037300030BDF0B505460E46174604243B483A49CD
:1037400088603B488860E002FFF7E9FD0446042CEE
:1037500019D13548006940F010003349086147F03D
:10376000F800304328433349891C0880E002FFF702
:10377000D6FD0446052C06D02B48006941F6EF71B2
:103780000840294908612046F0BD2748C0698008E3
:1037900070472548006A704700202349096801F0F6
:1037A000200109B1012000E00020704729B11E4A24
:1037B000126902431C4B1A6104E01B4A12698243DE
:1037C000194B1A61704701460020012908D1164A99
:1037D000D26902F001020AB1012008E0002006E0EF
:1037E000114AD2680A400AB1012000E00020704767
:1037F0000D49C860704704200B49C96801F00101F8
:1038000009B101200EE00849C96801F0040109B1BD
:10381000022007E00449C96801F0100109B1032042
:1038200000E00420704700000020024023016745AB
:10383000AB89EFCD00F8FF1F014609B900207047A2
:10384000002202E0491C501CC2B208780028F9D1BD
:103850001046F4E72DE9F04105460E4614460027D0
:1038600025B9042020700020BDE8F0811EB90C208D
:1038700020700020F8E7FE48007818B11120207071
:103880000020F1E72878012808D0022807D0032873
:1038900002D0042804D100E000BF00BF00BF03E055
:1038A000012020700020DFE700BF02F087FC074600
:1038B000286930603068FFF7BFFF8046384602F065
:1038C00081FC002020704046CEE72DE9F0410546FE
:1038D0000E46144600271DB904202070BDE8F08173
:1038E00016B90C202070F9E7E148007810B11220D9
:1038F0002070F3E72878012808D0022807D0032891
:1039000002D0042804D100E000BF00BF00BF02E0E5
:1039100001202070E2E700BF02F050FC07462E6154
:10392000384602F04FFC0020207000BFD6E77CB57F
:10393000002514E06946284602F0F8F9064666B903
:10394000CC4850F8254044B1012C06D0D4E90201FE
:1039500000EB810060640198A064681CC5B21F2D53
:10396000E8DD7CBD00BF00BF02E0C82002F03CFBE8
:10397000C14800780028F8D0C04800686421B0FB36
:10398000F1F0BE4908600846006828B90020BC492B
:103990000870FF2002F013FA02F010FC0446B7484A
:1039A000006864214843B7490860204602F00AFCD9
:1039B00000BF02F003FC0446B2480068B249086048
:1039C0000020B0490860204602F0FCFBAE480068C9
:1039D000AA490968B0FBF1F0C0F16400A849087079
:1039E00002F044FCFFF7A3FF642002F0FDFAE0E7D9
:1039F00000B587B0032000214FF40072A34BCDE93E
:103A00000132CDE903104FF6FE701E23A04A00904C
:103A1000AFF2AF0001F076FF06AA9EA11E2002F0D1
:103A2000F8F807B000BD002400BF00BF02F0C6FBDD
:103A3000044694480068401C92490860204602F001
:103A4000C1FB02F011FCF1E700B587B003200021B3
:103A50004FF40072934BCDE90132CDE903104FF6DC
:103A6000FF701F23904A0090AFF2450001F04AFF1B
:103A700006AA8EA11F2002F0CCF807B000BD04E01A
:103A8000002200F8012B4A1E91B20029F8D170479C
:103A900070B5C8218948FFF7F2FF002411E0601CCF
:103AA00085B204EB8400854901EB800305EB8500BA
:103AB00001EB8006002018705E6081A01861601C18
:103AC00084B2092CEBD304EB84007C4901EB800326
:103AD0000020187058607AA018610846794908607B
:103AE00070BD70B54FF4BD617748FFF7C8FF802106
:103AF0006048FFF7C4FF002413E0601CC5B2C4EBAC
:103B0000C40000EB4000704901EB8003C5EBC50029
:103B100000EB400001EB80065E6169A0D864601C88
:103B2000C4B2112CE9D3C4EBC40000EB40006649D9
:103B300001EB80030020586161A0D8640020634934
:103B4000086061486249086070BD0021614A1170D7
:103B5000002004E00021604A1154411CC8B204282E
:103B6000F8D300215D4A11705D4A11705D4A116001
:103B70005D4A1160704700205C4908603C4908704C
:103B80005B4908705B4908705B4908705B490860D5
:103B90003C4908603C49086038490860364908706B
:103BA00057490870704710B502F05AFBFFF7E3FF62
:103BB000FFF7CBFFFFF795FFFFF76AFF00F02EFF3F
:103BC00001F059F801F083FBFFF73EFFFFF710FF0C
:103BD00002F047FB10BD48480078012808D124486E
:103BE0000078FF2804D222480078401C2049087041
:103BF00070474449374A1278885C3749095C414A22
:103C0000515C01EBC001364A1170704710B50024B9
:103C10003948007801287FD102F0D0FA04461448D0
:103C2000007820B112480078401E114908701048F1
:103C30000078D8B92E480078C0B9FFF7DAFF0D48F0
:103C40002749097850F8210026490860244800785F
:103C50002249097888425CD022480068806B401C69
:103C6000204909688863254800684DE051E053E029
:103C7000B9000020F4160020B8000020B000002099
:103C8000AC000020C4000020B4000020F406002096
:103C9000F00E002075432F4F532D49492053746176
:103CA00074000000F40E0020F016002075432F4F22
:103CB000532D49492049646C65000000DC05002053
:103CC0003F000000A400002074170020D400002052
:103CD000CC000020BD000020BE000020BB00002062
:103CE000BC000020D0000020C8000020E800002018
:103CF000BA000020C3000020C2000020A000002065
:103D0000E4000020CC7C0008401CFE49086002F062
:103D100071FA204602F056FA10BD10B50024FA4898
:103D20000078012811D102F049FA0446F7480078DA
:103D300040B9F7480078FF2804D2F5480078401CC5
:103D4000F3490870204602F03DFA10BD10B500247A
:103D500002F034FA0446ED480078F8B9EC480078EF
:103D6000E0B9FFF746FFEB48EB49097850F821002E
:103D7000EA490860E8480078E949097888420DD0A6
:103D8000E6480068806B401CE44909688863DD48A8
:103D90000068401CDB49086002F027FA204602F068
:103DA00011FA10BD10B50024D7480078012821D1A0
:103DB00002F004FA0446D5480078C0B9D448007827
:103DC00088B1D3480078401ED14908700846007871
:103DD00028B9204602F0F6F9FFF7B8FF0AE02046BE
:103DE00002F0F0F906E0204602F0ECF902E020468D
:103DF00002F0E8F910BD10B5C348007890B9FFF79C
:103E0000F8FEC5480078C6490870C248C24909781A
:103E100050F82100C149086008460068C14908609F
:103E200002F0D3F910BD10B50024022002F0DCF836
:103E300002F0C4F904460020BB490860204602F0A5
:103E4000C1F9642002F0D0F802F0B8F90446B6488F
:103E50000068B64908600120B5490870204602F0A4
:103E6000B1F910BD70B5002602F04FFA02F0A6F9C4
:103E70000646B0480068401CAE490860304602F073
:103E8000A1F9A1480078012853D1AB48007820B1AE
:103E9000012804D0022809D103E001250BE0002508
:103EA00009E001250120A449087004E00125002053
:103EB000A149087000BF00BF05B970BD9F480468E4
:103EC00033E002F07BF90646E06A50B3E06A401E38
:103ED000E062E06A28BB94F8300000F0370040B19F
:103EE00014F8300F00F0C800207001206070303CE2
:103EF00002E0002084F8310094F8300000F008005F
:103F000078B93434A0788E49097808438C49087010
:103F100020788C49085C6178084314F83419894A80
:103F200050546469304602F04DF994F832001F286D
:103F3000C7D100BFC1E747F217207047704710B5DF
:103F400090F8342001F10B039B5C90F83540A343BB
:103F500001F10B04A35423469B5C23B98B7A90F8A0
:103F60003640A3438B7210BD2DE9F04F05460F4636
:103F700090469946A87A74490E5C05F10B00805D65
:103F800011F800B00BEBC60000F0FF0A614850F8D2
:103F90002A4000202034E0602760207C20EA0800CE
:103FA000207484F81190207C203C00F0080068B94F
:103FB00094F83600624909780843614908706148FD
:103FC000805D94F8351008435E498855294620469F
:103FD000FFF7B5FF5046BDE8F08F10B5514A1268A3
:103FE000D061504A126892F8343000F10B02D25C72
:103FF0004C4B1B6893F835301A434A4B1B6893F8B7
:10400000344000F10B031A55827A464B1B6893F833
:1040100036301A438272434A126892F83410494A81
:10402000525C404B1B6893F835309A43454B5A54C9
:104030001A46525C42B93B4A126892F83630404AFE
:1040400012789A433E4B1A7010BD014600228A72C4
:10405000002005E0002301F10B021354421CD0B2F2
:104060000428F7D3704705E011F8013B00F8013B45
:10407000531E9AB2002AF7D170472DE9F84F054632
:104080000F4690469946DDE90AAB0020009002F009
:1040900095F800902D480468002C7DD0183454F811
:1040A000040C2A490860009802F08CF844F8187C47
:1040B000A576002020766076606144F814BC44F850
:1040C0000CAC44F8108C0C9824F8080C24F8069CCE
:1040D0000020E077E810207705F00700E076217FE8
:1040E00001208840A077E17E012088406077002091
:1040F0006060E060A0602062A0626062E0622063B5
:1041000026E00000A0000020C2000020B90000202E
:10411000BA000020F4160020BC000020D0000020CF
:10412000BB000020C8000020C4000020B000002018
:10413000B8000020E8000020D8000020D4000020B3
:10414000BD000020BE000020CC7C0008CC00002078
:10415000AFF294406063183C002606E0002104F1B1
:10416000500040F82610701CC6B2002EF6D0204633
:1041700002F0CAF802F022F800901D4840F82540ED
:10418000009802F01FF8204602F06CF802F016F8D2
:1041900000901848006800E025E060610020A06100
:1041A0001448006810B11348006884611148046025
:1041B0003434A0781049097808430F4908702078F2
:1041C0000E49085C6178084314F834190B4A5054BE
:1041D0000B480078401C0A490870009801F0F2FF73
:1041E0000020BDE8F88F009801F0ECFF4220F8E7CE
:1041F000F4160020D4000020BD000020BE000020E6
:10420000C30000202DE9F05F04460F4691461E468C
:104210004FF0000B24B96E2030700020BDE8F09FF5
:104220002078052803D0012030700020F6E709F03F
:10423000800ABAF1000F04D029F080094FF001087C
:1042400001E04FF000080020307001F0B7FF834616
:10425000B9F1000F2CD0B9F1010F3BD0B9F1020F29
:1042600003D0B9F1030F46D111E0208900EA070518
:10427000BD4206D1B8F1010F05D12089A8432081A4
:1042800001E070203070584601F09CFF3AE0208930
:1042900000EA070535B1B8F1010F05D12089A8431F
:1042A000208101E070203070584601F08BFF29E03A
:1042B000208927EA0005BD4206D1B8F1010F05D1DA
:1042C00020892843208101E070203070584601F099
:1042D00079FF17E0208927EA000535B1B8F1010F11
:1042E00005D120892843208101E070203070584694
:1042F00001F068FF06E0584601F064FF00256F20DA
:10430000307000BF00BF284688E72DE9F04106461F
:104310000D460027F948007820B1102028700020B1
:10432000BDE8F08101F04AFF0746F548046884B112
:1043300000684068F249086005202070268100204E
:104340006060F0A0E060384601F03CFF002028707B
:1043500004E0384601F036FF722028702046DFE77F
:1043600030B501464A6808682AB9CC68606028B14F
:104370000025456002E0106000B142608B680025B6
:104380005D6230BD2DE9F041064688461746B468A7
:10439000002044F82C0F24F8048C207900F0DF0072
:1043A0002071677120792C3C88B93434A078D649C3
:1043B00009780843D44908702078D449085C6178AA
:1043C000084314F83419D14A5054012500E000255F
:1043D0003046FFF7C5FF2846BDE8F0812DE9F047DC
:1043E0000446894615464FF0000A24B96E2028700D
:1043F0002046BDE8F087C148007818B10F2028702A
:104400002046F6E72078052803D0012028702046B2
:10441000EFE701F0D3FE8246606808B1012700E0B3
:104420000027B9F1000F03D0B9F1010F3DD119E018
:104430008FB9B4A0E06000202070B14800686060CF
:1044400000202081AE480460504601F0BBFE0020F1
:104450002870002605E0504601F0B4FE492028707F
:10446000264629E0D4F8048006E0022200214046D6
:10447000FFF788FFD8F80080B8F1000FF5D1A1A0B0
:10448000E060002020709E4800686060002020816D
:104490009B480460504601F095FE012F01D1FFF7C3
:1044A00055FC00202870002606E0504601F08AFEE8
:1044B00007202870264600BF00BF304699E72DE947
:1044C000F04105460E461446002725B96E2020709F
:1044D0000020BDE8F0811EB90C2020700020F8E714
:1044E0008648007818B1112020700020F1E701F013
:1044F00065FE07462878052806D0384601F062FE9A
:10450000012020700020E4E7E86830603068FFF7A1
:1045100093F98046384601F055FE00202070404651
:10452000D7E72DE9F04105460E46144600271DB990
:104530006E202070BDE8F08116B90C202070F9E7DC
:104540006E48007810B112202070F3E701F036FEBB
:1045500007462878052805D0384601F033FE0120AB
:104560002070E7E7EE60384601F02CFE0020207056
:1045700000BFDFE7F0B51446059E654F3F6897F82A
:10458000307047F02007DFF888C1DCF800C08CF8F5
:1045900030700027DFF878C1DCF800C08CF831708B
:1045A0005B4F3F68FE625A4F3F6879620C828B74A2
:1045B000574F3F688F6047680F6000274F60C860A3
:1045C000456805B169604160514F3F6897F83420F4
:1045D0004E4FBF5CDFF838C1DCF800C09CF835C036
:1045E00027EA0C07DFF824C10CF802706746BF5CAD
:1045F0005FB9474F3F6897F836C0434F3F7827EA87
:104600000C07DFF804C18CF80070F0BD2DE9F04F05
:1046100089B005460F4691469A46129E00200290A8
:104620002DB96E203070002009B0BDE8F08F3348FE
:10463000007818B1022030700020F5E73548007886
:1046400018B10D2030700020EEE72878052803D03F
:10465000012030700020E7E709F0800BBBF1000F6C
:1046600004D009F07F094FF0010801E04FF0000885
:1046700001F0A4FD0290B9F1000F59D0B9F1010F7A
:1046800079D0B9F1020F03D0B9F1030F72D120E054
:10469000288900EA0704BC420FD1B8F1010F02D10A
:1046A0002889A04328811A4800680485029801F0EF
:1046B00089FD002030702046B6E74B463A4604A9F3
:1046C0002846CDF800A0FFF755FF029801F07AFDCB
:1046D00079E0288900EA0704F4B1B8F1010F02D1AA
:1046E0002889A04328810A4800680485029801F0BF
:1046F00069FD00203070204696E70000B9000020D8
:10470000A80000203F000000BD000020BE000020E7
:10471000C8000020BA0000204B463A4604A92846AB
:10472000CDF800A0FFF726FF029801F04BFD4AE00C
:10473000288927EA0004BC420FD1B8F1010F02D149
:10474000288920432881C94800680485029801F01F
:1047500039FD00203070204666E74B463A4604A9F2
:104760002846CDF800A0FFF705FF029801F02AFDCA
:1047700029E000E01FE0288927EA00047CB1B8F1B5
:10478000010F02D1288920432881B8480068048598
:10479000029801F017FD00203070204644E74B4698
:1047A0003A4604A92846CDF800A0FFF7E3FE029898
:1047B00001F008FD07E0029801F004FD00246F20DD
:1047C0003070204630E700BFFFF7C0FA01F0F6FC7A
:1047D0000290A648006890F8310020B3A348006812
:1047E00090F8310003900020A049096881F8310059
:1047F00004A8FFF7B5FD00209C49096881F8300046
:10480000029801F0DFFC00240398012805D002285B
:1048100002D10E20307003E000BF0A20307000BFCC
:1048200000BF204600E791480068048DB8F1010FF1
:104830001ED1B9F1000F0ED0B9F1010F0CD0B9F1B2
:10484000020F03D0B9F1030F0AD100E000BF28899D
:10485000A04328810BE000BF28892043288106E07F
:10486000029801F0AFFC6F2030700020DCE600BF42
:10487000029801F0A7FC002030702046D4E670B505
:10488000002501F09BFC054678480068048D284609
:1048900001F098FC204670BD2DE9FC5F0446894676
:1048A00092461E460020009024B96E2030700020F1
:1048B000BDE8FC9F2078052803D00120307000203F
:1048C000F6E701F07BFC0090BAF1000F03D0BAF1DB
:1048D000010F0AD104E0208920EA090020810BE0C1
:1048E000208940EA0900208106E0009801F06AFC76
:1048F000712030700020DBE700BF4FF0000B6568CF
:1049000059E0A87C50B301283BD0022802D00328EC
:1049100048D112E02089298A00EA0107288AB84292
:104920000AD1002239462846FFF72CFD8046B8F10F
:10493000010F01D14FF0010B3BE02089298A00EAE9
:10494000010757B1002239462846FFF71BFD804674
:10495000B8F1010F01D14FF0010B2AE0288A21891B
:1049600020EA0107288AB8420AD10022394628469F
:10497000FFF708FD8046B8F1010F01D14FF0010BA0
:1049800017E0288A218920EA010757B10022394619
:104990002846FFF7F7FC8046B8F1010F01D14FF030
:1049A000010B06E0009801F00DFC6F203070002034
:1049B0007EE700BF2D68002DA3D1009801F002FC16
:1049C000BBF1010F01D1FFF7C1F901F0F7FB009036
:1049D00020890190009801F0F5FB002030700198CB
:1049E00066E72DE9F04104460D46002724B96E2004
:1049F00028700020BDE8F0812078052803D0012030
:104A000028700020F6E701F0D9FB074626893846D2
:104A100001F0D8FB002028703046EBE72DE9F0418B
:104A200050211348FFF72BF800250EE0681C86B2D2
:104A30000F4800EB051400EB06170020207067609C
:104A4000AFF24030E060681C85B2042DEED3084818
:104A500000EB0514002020706060AFF25830E06079
:104A6000034804490860BDE8F0810000C800002048
:104A7000A4060020A80000202DE9FC5F05460F4693
:104A800091461E460020009025B96220307000201B
:104A9000BDE8FC9F05F0030018B1622030700020D3
:104AA000F6E7022F03D25B2030700020F0E7B9F167
:104AB000040F03D25C2030700020E9E701F07EFB98
:104AC00000907F480468006820B17D480068406815
:104AD0007B490860009801F075FB1CB95A203070C2
:104AE0000020D5E7AA46A846781E01904FF0000B9B
:104AF00005E0C844CAF80080C2460BF1010B0198DA
:104B00008345F6D30020CAF8000025606560276160
:104B1000E760C4F8089030702046B9E72DE9F0410D
:104B200004460D46002724B9602028700020BDE807
:104B3000F08101F043FB0746206960B16668306888
:104B400060602069401E2061384601F03BFB002078
:104B500028703046EBE7384601F034FB5D202870C2
:104B60000020E4E72DE9F04106460D4614460027F3
:104B700026B9602020700020BDE8F0811DB90C200E
:104B800020700020F8E74F48007818B111202070FD
:104B90000020F1E701F012FB0746706928602868E1
:104BA000FEF74AFE8046384601F00CFB00202070DC
:104BB0004046E1E72DE9F04105460E461446002740
:104BC0001DB960202070BDE8F08116B90C2020705E
:104BD000F9E73C48007810B112202070F3E701F0AB
:104BE000EDFA07466E61384601F0ECFA00202070BD
:104BF00000BFE8E770B504460D4600260CB96020FA
:104C000070BD0DB95F20FBE701F0D8FA0646D4E984
:104C10000310884204D3304601F0D4FA5E20EFE757
:104C20006068286065602069401C2061304601F0A2
:104C3000C9FA0020E4E770B505460C4600260DB918
:104C4000602070BD0CB96120FBE701F0B7FA0646A1
:104C50002868206068686060A868A060E868E06014
:104C600028692061304601F0ADFAD4E90301401A09
:104C700060610020E5E770B578211348FEF7FFFE7C
:104C800000240EE004EB44000F4901EBC005601C5A
:104C900000EB400001EBC00068600CA06861601C84
:104CA00084B2042CEED304EB4400074901EBC005A9
:104CB0000020686005A0686108460149086070BD71
:104CC000DC000020B90000205C1D00203F00000037
:104CD0002DE9F04106460D464FF0000826B90420A4
:104CE00028700020BDE8F0813078022803D0012030
:104CF00028700020F6E701F061FA80467468E08AC7
:104D000078B12169081D20610F68E08A401EE082A9
:104D1000A1682069884201D1606820610020287064
:104D200002E01F2028700027404601F04BFA384669
:104D3000D8E72DE9F04106460F464FF00008F94844
:104D4000007810B10020BDE8F08101F037FA80460C
:104D5000F5480468006820B1F34800684068F249EB
:104D60000860404601F02EFAFCB101F027FA8046B7
:104D7000EE480568D5B100680068EC490860404617
:104D800001F020FA6E6006EB8700A860EE602E61ED
:104D9000AF820020E8820220207000202081656020
:104DA000E3A020612046FFF750F908E0DE480068E4
:104DB0006060DD480460404601F004FA00242046AB
:104DC000C1E72DE9F0470446894615464FF0000A31
:104DD00024B9042028702046BDE8F08720780228F6
:104DE00003D0012028702046F6E7CE48007818B19D
:104DF0000F2028702046EFE701F0E0F98246A07A04
:104E000010B14FF0010801E04FF00008B9F1000FB8
:104E100003D0B9F1010F49D121E0B8F1000F17D14A
:104E2000C3A020616668C14800683060BF48066062
:104E300000202070BC480068606000202081BA48D3
:104E40000460504601F0BEF900202870002705E0FC
:104E5000504601F0B7F94920287027462DE005E0BB
:104E60000223042200212046FFF77EF8A07A0028C2
:104E7000F6D1AFA020616668AC4800683060AB48EE
:104E8000066000202070A848006860600020208133
:104E9000A5480460504601F095F9B8F1010F01D121
:104EA000FEF754FF00202870002706E0504601F06E
:104EB00089F907202870274600BF00BF38468BE7D6
:104EC00070B5054600260DB9042070BD287802286B
:104ED00001D00120F9E701F071F906466C686068BD
:104EE000E060606820610020E082304601F06AF9ED
:104EF0000020EAE72DE9F0470646884615464FF0C0
:104F0000000926B9042028700020BDE8F087307819
:104F1000022803D0012028700020F6E7814800789D
:104F200018B1022028700020EFE78248007818B1FD
:104F30000D2028700020E8E701F040F981467468F0
:104F4000E08A98B12169081D20610F68E08A401E3F
:104F5000E082A1682069884201D1606820614846EA
:104F600001F030F9002028703846CEE7724800681A
:104F700090F8300040F004006F49096881F8300073
:104F800000206D49096881F831006B480068C0F85D
:104F90002C803046FFF721F8484601F013F9FEF760
:104FA000D5FE01F00BF981466348006890F83100A6
:104FB00020B101280DD002280AD105E05E48006822
:104FC000076A002028700DE000270E20287009E0F5
:104FD00000BF314658480068FEF7B1FF00270A209D
:104FE000287000BF00BF00205349096881F83000D5
:104FF0005149096881F831004F490968C8614E4933
:1050000009680862484601F0DDF838467DE72DE979
:10501000F04104460F4615464FF0000824B904201D
:1050200028700020BDE8F0812078022803D00120FC
:1050300028700020F6E701F0C1F88046A07A20B37E
:1050400000267FB1012F0CD107E0022304220021AA
:105050002046FEF789FF701CC6B2A07A0028F4D162
:1050600009E000BF0223042200212046FEF77CFF56
:10507000701CC6B200BF00BF404601F0A3F8FEF7A7
:1050800065FE0E2028703046CCE7404601F09AF8C5
:105090000020287000BFC5E72DE9F04105460E4607
:1050A000002715B90420BDE8F0812878022801D036
:1050B0000120F8E701F082F80746A87A60B10023E2
:1050C000042231462846FEF74FFF384601F07AF8B1
:1050D000FEF73CFE0020E6E76C68E08AA18A884281
:1050E00004DB384601F06EF81E20DCE7E168081D9D
:1050F000E0600E60E08A401CE082D4E90210884241
:1051000001D16068E060384601F05CF80020CAE731
:105110002DE9F04105460E4600277DB90420BDE883
:10512000F0810000B9000020A4000020E000002071
:105130003F000000BA000020C800002028780228A4
:1051400001D00120EBE701F039F80746A87A60B1F9
:105150000023042231462846FEF706FF384601F0B8
:1051600031F8FEF7F3FD0020D9E76C68E08AA18AE8
:10517000884204DB384601F025F81E20CFE761683D
:105180002069884201D1A06820612069001F206148
:1051900020690660E08A401CE082384601F012F87F
:1051A0000020BCE72DE9F04105460F4616464FF0BA
:1051B000000815B90420BDE8F0812878022801D044
:1051C0000120F8E700F0FAFF8046A87AE8B106F07F
:1051D000010050B105E00023042239462846FEF7BD
:1051E000C3FEA87A0028F6D105E000230422394640
:1051F0002846FEF7B9FE404600F0E4FF06F0040042
:1052000008B9FEF7A3FD0020D5E76C68E08AA18A03
:10521000884204DB404600F0D5FF1E20CBE706F0B5
:10522000020058B161682069884201D1A0682061FC
:105230002069001F20612069076009E0E168081DFE
:10524000E0600F60D4E90210884201D16068E0603C
:10525000E08A401CE082404600F0B4FF0020AAE74C
:105260002DE9F04705460C464FF0000A15B9042019
:10527000BDE8F0870CB90920FAE72878022801D0A8
:105280000120F5E700F09AFF8246A87A207305F125
:105290000B0804F10809002705E018F8010B09F8CC
:1052A000010B781CC7B2042FF7D36E68F08A18B1CF
:1052B00030690068206001E000202060F08AA08052
:1052C000B08AE080504600F07DFF0020D0E72DE955
:1052D000F04160211048FEF7D2FB00240DE0601C75
:1052E00086B204EB44000C4901EBC00506EB460016
:1052F00001EBC0072F60601C84B2032CEFD304EBDA
:105300004400054901EBC005002028600846034918
:105310000860BDE8F0810000D41D0020E0000020FE
:1053200070B5044600260CB9002070BD2078032813
:1053300001D00020F9E700F041FF0646258915B1AC
:105340002089401E2081304600F03CFF2846ECE7D3
:1053500070B505460026E348007808B1002070BD0E
:1053600000F02CFF0646E0480468006820B1DE48E3
:1053700000684068DC490860304600F023FF4CB10B
:1053800003202070258100206060D8A02061204685
:10539000FEF75BFE2046E2E72DE9F047044688462B
:1053A00015464FF0000924B9042028702046BDE8B6
:1053B000F0872078032803D0012028702046F6E7E4
:1053C000C848007818B10F2028702046EFE700F099
:1053D000F5FE8146A07A08B1012700E00027B8F168
:1053E000000F03D0B8F1010F3AD119E08FB9BFA077
:1053F000206100202070BC4800686060002020818F
:10540000B9480460484600F0DDFE00202870002600
:1054100005E0484600F0D6FE49202870264626E0E2
:1054200005E00223012200212046FEF79DFDA07A1F
:105430000028F6D1ADA0206100202070AA480068A5
:10544000606000202081A8480460484600F0BAFE51
:10545000012F01D1FEF77AFC00202870002606E01B
:10546000484600F0AFFE07202870264600BF00BF68
:1054700030469CE72DE9F04105460E4614460027CC
:105480001DB904202070BDE8F0812878032802D0DF
:1054900001202070F7E79348007810B102202070B7
:1054A000F1E79348007810B10D202070EBE700F091
:1054B00085FE0746288940B12889401E2881384644
:1054C00000F080FE00202070DDE78A48006890F838
:1054D000300040F001008749096881F83000002061
:1054E0008449096881F8310082480068C66228460C
:1054F000FEF773FD384600F065FEFEF727FC00F06E
:105500005DFE07467B48006890F8310020B1012815
:1055100009D0022806D102E0002020700BE00E2006
:10552000207008E000BF294672480068FEF707FDBA
:105530000A20207000BF00BF00206E49096881F872
:1055400030006C49096881F831006A490968C8610E
:10555000384600F037FE00BF95E72DE9F0410446DC
:105560000F4615464FF0000824B90420287000208B
:10557000BDE8F0812078032803D0012028700020A6
:10558000F6E700F01BFE8046A07A20B300267FB12C
:10559000012F0CD107E00223012200212046FEF753
:1055A000E3FC701CC6B2A07A0028F4D109E000BF69
:1055B0000223012200212046FEF7D6FC701CC6B251
:1055C00000BF00BF404600F0FDFDFEF7BFFB0E2010
:1055D00028703046CCE7404600F0F4FD00202870EB
:1055E00000BFC5E770B5044600250CB9042070BDA6
:1055F0002078032801D00120F9E700F0DFFD0546FF
:10560000A07A60B10023012219462046FEF7ACFCC7
:10561000284600F0D7FDFEF799FB0020E7E7208938
:105620004FF6FF71884207D22089401C208128460E
:1056300000F0C8FD0020DAE7284600F0C3FD332063
:10564000D5E72DE9F04704460D464FF0000914B99F
:105650000420BDE8F0870DB90920FAE72078032877
:1056600001D00120F5E700F0A9FD8146A07AA871DC
:1056700004F10B0705F10208002605E017F8010BFD
:1056800008F8010B701CC6B2042EF7D320892880BD
:10569000484600F097FD0020DBE72DE9F041044685
:1056A0000E46154600271CB904202870BDE8F0817D
:1056B0002078032802D001202870F7E700F07EFD53
:1056C000074600202870208908B1268105E0A07ACD
:1056D00008B9268101E049202870384600F072FDA3
:1056E00000BFE3E7B9000020A40000203F00000055
:1056F000BA000020C80000202DE9FF5F81460F4658
:1057000000200090B9F11F0F06DBB9F1FF0F03D0A5
:105710002A2004B0BDE8F09F1F2F01DB2A20F8E704
:1057200000F04CFD0090F84850F8270020B1009898
:1057300000F048FD2820ECE7B9F1FF0F03D1F34852
:10574000006890F83290F04850F8294024B9009849
:1057500000F038FD2920DCE7012C04D1009800F08E
:1057600031FD4320D5E74FEAE70807F00700039033
:10577000012000FA08F000F0FF0A0121039881409F
:1057800001F0FF0B0020E04941F82900084640F8ED
:10579000274014F8346FA07802906078343C019070
:1057A000DB48815D01980140E1B1D948805D0199F4
:1057B0008843D74988550846805D28B9D548007880
:1057C00002998843D3490870D248007840EA0A0019
:1057D000D0490870CE4810F8080040EA0B00CC49C8
:1057E00001F80800E569E5B105F10B00805D01995C
:1057F000884305F10B0188550846805D18B9A87AE1
:1058000002998843A872A87A40EA0A00A87205F1B2
:105810000B0010F8080040EA0B0005F10B0101F83D
:10582000080084F8327084F83480039884F83300D8
:1058300084F836A084F835B0009800F0C3FCB64870
:105840000078012801D1FEF781FA002061E72DE9F7
:10585000FE4F06460F4690461C464FF000091F2C8F
:1058600002DD2A20BDE8FE8F00F0A8FC8146AB488F
:10587000007820B1484600F0A5FC3C20F2E7A248A1
:1058800050F8240060BB01209F4941F8240048469D
:1058900000F098FC002342463946304600F0E7FC11
:1058A0008246002000900190034602465146029035
:1058B0002046FEF7E2FB054635B9974800780128F7
:1058C0000CD1FEF743FA09E000F078FC8146002095
:1058D0008D4941F82400484600F074FC2846C1E791
:1058E000484600F06FFC2820BCE702F0010343B1FA
:1058F00002F002032BB102E0491E002308C0002978
:10590000FAD170472DE9F04F85B081468A4693461B
:105910001C46DDE90F78129D002003901F2C03DD4B
:105920002A2005B0BDE8F08F00F048FC03907B48CA
:10593000007820B1039800F045FC3C20F1E7724864
:1059400050F8240088BB01206F4941F824000398D7
:1059500000F038FC2A4641463846FFF7C6FF2B4682
:105960005A465146484600F082FC04901198CDE911
:10597000008002953A4620460E9B0499FEF77DFB77
:10598000064636B96448007801280CD1FEF7DEF9E6
:1059900009E000F013FC039000205B4941F824006B
:1059A000039800F00FFC3046BBE7FFE7039800F0D8
:1059B00009FC2820B5E72DE9F041054600275748A6
:1059C000007810B14020BDE8F0811F2D01D13E20AC
:1059D000F9E71F2D03DBFF2D01D02A20F3E700F0AC
:1059E000EDFB0746FF2D03D14848006890F8325080
:1059F000454850F8254024B9384600F0E3FB4320E1
:105A0000E1E7012C04D1384600F0DCFB3D20DAE769
:105A100014F8340F3E49085C6178884321783C4A89
:105A2000505414F834091146085C30B994F8361013
:105A300038480078884337490870E06918B1204633
:105A4000E169FEF77CFA666A16B13046FEF788FC1B
:105A50000020E06284F8300084F83100304800789B
:105A6000FF2804D22E480078401C2D490870384683
:105A700000F0A8FBFEF762FA00F0A0FB07462848FA
:105A8000007820B126480078401E2549087020463D
:105A900000F0E9FB23480078401E224908700020EE
:105AA000194941F82500A06930B900206169886171
:105AB0001D496069086005E0D4E905014861D4E941
:105AC000051088611948006860611848046018A0D2
:105AD000E064384600F076FB0F480078012801D1D9
