:020000040800F2
:1000000080FB00201D350008F1320008F3320008A3
:10001000F7320008FB320008FF3200080000000041
:100020000000000000000000000000000333000892
:1000300005330008000000007F02000807330008B5
:1000400037350008373500083735000837350008E0
:100050003735000837350008D5390008F33900086E
:10006000113A00082F3A00084D3A000837350008C9
:1000700037350008373500083735000837350008B0
:1000800037350008373500083735000837350008A0
:10009000C13E000837350008373500086B3A0008C4
:1000A0003735000837350008373500083735000880
:1000B000733600088D360008A7360008373500086B
:1000C0003735000837350008373500083735000860
:1000D0003735000837350008373500083735000850
:1000E000F93A000837350008373500083735000879
:1000F0003735000837350008373500083735000830
:100100003735000837350008C13600083735000894
:100110003735000837350008DB360008F5360008AB
:1001200037350008373500083735000837350008FF
:10013000DFF80CD00DF040FB0048004795A90008FF
:1001400080FB0020704770477047704770477047CA
:10015000704770B5044610464FF080750560051F66
:1001600028462C60344E051F28462E604FF012366C
:10017000051F28462E604FF00336051F28462E60C7
:100180004FF00236051F28462E607610051F2846C0
:100190002E60051F284629604FF01136051F28469E
:1001A0002E604FF01036051F28462E604FF009369E
:1001B000051F28462E604FF00836051F28462E6082
:1001C0004FF00736051F28462E604FF00636051FF4
:1001D00028462E604FF00536051F28462E604FF04A
:1001E0000436051F28462E6070BD70477047704763
:1001F00000B585B068460BF0A0FF019805B000BDC2
:1002000010B5FFF7F5FF0446204610BD10B5FFF707
:10021000F7FF4FF47A71B0FBF1F4601E4FF0E0216C
:1002200048610846006940F0050008610846006919
:1002300040F00200086110BDFF300008EFF31080AD
:1002400072B6704780F3108870471D484FF0FF0169
:100250000170002080F309881A48012101701A48B2
:100260004FF08051016062B6FEE717484FF08051B1
:100270000160704714484FF080510160704772B6BA
:10028000EFF3098028B1203880E8F00F0F490968A2
:10029000086000B50E4880475DF804EB0D480E4934
:1002A0000A78027009480D490A680260106890E8EF
:1002B000F00F203080F309884EF0040E62B67047CC
:1002C00022ED00E02800002004ED00E030000020D6
:1002D000EB0100082100002022000020380000204F
:1002E000014609B900207047002202E0491C501C59
:1002F000C2B208780028F9D11046F4E72DE9F041A0
:1003000005460E461446002725B90420207000201B
:10031000BDE8F0811EB90C2020700020F8E7FE48EF
:10032000007818B1112020700020F1E7287801280A
:1003300008D0022807D0032802D0042804D100E006
:1003400000BF00BF00BF03E0012020700020DFE7F6
:1003500000BFFFF773FF0746286930603068FFF77A
:10036000BFFF80463846FFF76DFF002020704046F3
:10037000CEE72DE9F04105460E46144600271DB98B
:1003800004202070BDE8F08116B90C202070F9E738
:10039000E148007810B112202070F3E72878012896
:1003A00008D0022807D0032802D0042804D100E096
:1003B00000BF00BF00BF02E001202070E2E700BFE5
:1003C000FFF73CFF07462E613846FFF73BFF002052
:1003D000207000BFD6E77CB5002514E069462846AA
:1003E00002F03EFD064666B9CC4850F8254044B1BF
:1003F000012C06D0D4E9020100EB81006064019871
:10040000A064681CC5B21F2DE8DD7CBD00BF00BF25
:1004100002E0C82002F082FEC14800780028F8D02F
:10042000C04800686421B0FBF1F0BE49086008468E
:10043000006828B90020BC490870FF2002F059FD6F
:10044000FFF7FCFE0446B748006864214843B749FB
:1004500008602046FFF7F6FE00BFFFF7EFFE0446F8
:10046000B2480068B24908600020B04908602046E0
:10047000FFF7E8FEAE480068AA490968B0FBF1F052
:10048000C0F16400A8490870FFF762FEFFF7A3FF00
:10049000642002F043FEE0E700B587B003200021AE
:1004A0004FF40072A34BCDE90132CDE903104FF6B2
:1004B000FE701E23A04A0090AFF2AF0002F0BCFA1B
:1004C00006AA9EA11E2002F03EFC07B000BD00243B
:1004D00000BF00BFFFF7B2FE044694480068401C0E
:1004E000924908602046FFF7ADFEFFF72FFEF1E7C7
:1004F00000B587B0032000214FF40072934BCDE983
:100500000132CDE903104FF6FF701F23904A00908F
:10051000AFF2450002F090FA06AA8EA11F2002F069
:1005200012FC07B000BD04E0002200F8012B4A1EB7
:1005300091B20029F8D1704770B54FF4C87189485D
:10054000FFF7F1FF002411E0601C85B204EB84008A
:10055000844901EB800305EB850001EB8006002058
:1005600018705E6080A01861601C84B2132CEBD3FD
:1005700004EB84007B4901EB800300201870586075
:1005800079A0186108467949086070BD70B54FF4CC
:10059000BD617748FFF7C7FF80216048FFF7C3FFC1
:1005A000002413E0601CC5B2C4EBC40000EB4000A3
:1005B0006F4901EB8003C5EBC50000EB400001EB88
:1005C00080065E6168A0D864601CC4B2112CE9D3B7
:1005D000C4EBC40000EB4000654901EB8003002040
:1005E000586161A0D864002062490860604862498F
:1005F000086070BD0021614A1170002004E00021F4
:100600005F4A1154411CC8B20428F8D300215D4A46
:1006100011705D4A11705D4A11605D4A116070474A
:1006200000205C4908603C4908705B4908705B49E0
:1006300008605B4908705B4908705B4908603B498A
:1006400008603B49086037490860354908705749D8
:100650000870704710B5FFF775FDFFF7E1FFFFF772
:10066000C9FFFFF793FFFFF767FF00F02FFF01F0CF
:100670005AF801F0C6FEFFF73BFFFFF70DFFFFF74B
:1006800062FD10BD47480078012808D12248007853
:10069000FF2804D220480078401C1F49087070478A
:1006A0004349364A1278885C3549095C404A515CB6
:1006B00001EBC001344A1170704710B5002439486D
:1006C0000078012827D1FFF7B9FD044612480078C9
:1006D00020B111480078401E0F4908700E4800787C
:1006E000C0B92D480078A8B9FFF7DAFF0B482649B2
:1006F000097850F8210025490860234800782149ED
:10070000097888425ED021480068806B401C1F49F0
:1007100009684FE056E058E019000020081B00204F
:1007200018000020100000200C0000202C000020E9
:1007300014000020080B00200413002075432F4FE5
:10074000532D4949205374617400000008130020A0
:10075000041B002075432F4F532D49492049646CD9
:1007600065000000D80800203F00000004000020C1
:10077000881B00203C0000203400002023000020C3
:10078000240000202100002022000020380000204A
:100790003000002050000020200000201C0000201D
:1007A0002900002028000020000000204C0000202C
:1007B00094DC00088863FE480068401CFC4908601F
:1007C000FFF758FD2046FFF73DFD10BD10B5002492
:1007D000F8480078012811D1FFF730FD0446F648AB
:1007E000007840B9F5480078FF2804D2F348007833
:1007F000401CF24908702046FFF724FD10BD10B5DB
:100800000024FFF71BFD0446EB480078F8B9EB48DD
:100810000078E0B9FFF744FFE948EA49097850F861
:100820002100E9490860E7480078E84909788842EA
:100830000DD0E5480068806B401CE3490968886377
:10084000DB480068401CDA490860FFF70EFD2046CF
:10085000FFF7F8FC10BD10B50024D6480078012839
:1008600021D1FFF7EBFC0446D3480078C0B9D34848
:10087000007888B1D1480078401ED04908700846F9
:10088000007828B92046FFF7DDFCFFF7B8FF0AE043
:100890002046FFF7D7FC06E02046FFF7D3FC02E036
:1008A0002046FFF7CFFC10BD10B5C248007890B9C4
:1008B000FFF7F6FEC3480078C4490870C048C14934
:1008C000097850F82100C049086008460068C0490E
:1008D0000860FFF7BAFC10BD10B50024022002F03A
:1008E0001DFCFFF7ABFC04460020BA490860204617
:1008F000FFF7A8FC642002F011FCFFF79FFC044600
:10090000B4480068B44908600120B4490870204622
:10091000FFF798FC10BD70B50026FFF768FCFFF7E5
:100920008DFC0646AE480068401CAD490860304664
:10093000FFF788FC9F480078012853D1A948007828
:1009400020B1012804D0022809D103E001250BE0E1
:10095000002509E001250120A249087004E00125D5
:100960000020A049087000BF00BF05B970BD9E48B7
:10097000046833E0FFF762FC0646E06A50B3E06AC1
:10098000401EE062E06A28BB94F8300000F03700B7
:1009900040B114F8300F00F0C800207001206070E2
:1009A000303C02E0002084F8310094F8300000F080
:1009B000080078B93434A0788C49097808438B4909
:1009C000087020788A49085C6178084314F8341963
:1009D000874A505464693046FFF734FC94F832007B
:1009E0001F28C7D100BFC1E747F2172070477047E3
:1009F00010B590F8342001F10B039B5C90F8354062
:100A0000A34301F10B04A35423469B5C23B98B7AC7
:100A100090F83640A3438B7210BD2DE9F04F054688
:100A20000F4690469946A87A72490E5C05F10B0074
:100A3000805D11F800B00BEBC60000F0FF0A6048C3
:100A400050F82A4000202034E0602760207C20EA13
:100A50000800207484F81190207C203C00F00800ED
:100A600068B994F836006149097808435F4908700D
:100A70005F48805D94F8351008435D4988552946E4
:100A80002046FFF7B5FF5046BDE8F08F10B5504A3D
:100A90001268D0614E4A126892F8343000F10B02AD
:100AA000D25C4B4B1B6893F835301A43484B1B689C
:100AB00093F8344000F10B031A55827A444B1B68BB
:100AC00093F836301A438272414A126892F8341011
:100AD000474A525C3E4B1B6893F835309A43444B6F
:100AE0005A541A46525C42B9394A126892F8363062
:100AF0003E4A12789A433D4B1A7010BD01460022BF
:100B00008A72002005E0002301F10B021354421CFD
:100B1000D0B20428F7D3704705E011F8013B00F884
:100B2000013B531E9AB2002AF7D170472DE9F84FC6
:100B300005460F4690469946DDE90AAB0020009035
:100B4000FFF77CFB00902C480468002C7ED0183402
:100B500054F8040C284908600098FFF773FB44F828
:100B6000187CA576002020766076606144F814BC7D
:100B700044F80CAC44F8108C0C9824F8080C24F8B9
:100B8000069C0020E077E810207705F00700E0766B
:100B9000217F01208840A077E17E01208840607796
:100BA00000206060E060A0602062A062606225E0DA
:100BB0000000002028000020190000202000002054
:100BC000081B002022000020380000202100002007
:100BD000300000202C000020100000201800002011
:100BE00050000020400000203C0000202300002096
:100BF0002400002094DC000834000020E062206320
:100C0000AFF29C406063183C002606E0002104F12E
:100C1000500040F82610701CC6B2002EF6D02046B8
:100C2000FFF7E4FAFFF70AFB00901D4840F8254063
:100C30000098FFF707FB2046FFF786FAFFF7FEFA5A
:100C40000090184800686061002000E023E0A06187
:100C50001448006810B113480068846111480460AA
:100C60003434A0781049097808430F490870207877
:100C70000E49085C6178084314F834190B4A505443
:100C80000B480078401C0A4908700098FFF7DAFA10
:100C90000020BDE8F88F0098FFF7D4FA4220F8E76B
:100CA000081B00203C00002023000020240000201E
:100CB000290000202DE9F05F04460F4691461E46AC
:100CC0004FF0000B24B96E2030700020BDE8F09F7B
:100CD0002078052803D0012030700020F6E709F0C5
:100CE000800ABAF1000F04D029F080094FF0010802
:100CF00001E04FF0000800203070FFF79FFA8346B4
:100D0000B9F1000F2CD0B9F1010F3BD0B9F1020FAE
:100D100003D0B9F1030F46D111E0208900EA07059D
:100D2000BD4206D1B8F1010F05D12089A843208129
:100D300001E0702030705846FFF784FA3AE02089CD
:100D400000EA070535B1B8F1010F05D12089A843A4
:100D5000208101E0702030705846FFF773FA29E0D7
:100D6000208927EA0005BD4206D1B8F1010F05D15F
:100D700020892843208101E0702030705846FFF719
:100D800061FA17E0208927EA000535B1B8F1010FB3
:100D900005D120892843208101E070203070584619
:100DA000FFF750FA06E05846FFF74CFA00256F208F
:100DB000307000BF00BF284688E72DE9F0410646A5
:100DC0000D460027F948007820B110202870002037
:100DD000BDE8F081FFF732FA0746F548046884B1B0
:100DE00000684068F24908600520207026810020D4
:100DF0006060F0A0E0603846FFF724FA0020287019
:100E000004E03846FFF71EFA722028702046DFE71C
:100E100030B501464A6808682AB9CC68606028B1D4
:100E20000025456002E0106000B142608B6800253B
:100E30005D6230BD2DE9F041064688461746B4682C
:100E4000002044F82C0F24F8048C207900F0DF00F7
:100E50002071677120792C3C88B93434A078D64948
:100E600009780843D44908702078D449085C61782F
:100E7000084314F83419D14A5054012500E00025E4
:100E80003046FFF7C5FF2846BDE8F0812DE9F04761
:100E90000446894615464FF0000A24B96E20287092
:100EA0002046BDE8F087C148007818B10F202870AF
:100EB0002046F6E72078052803D001202870204638
:100EC000EFE7FFF7BBF98246606808B1012700E051
:100ED0000027B9F1000F03D0B9F1010F3DD119E09E
:100EE0008FB9B4A0E06000202070B1480068606055
:100EF00000202081AE4804605046FFF7A3F900208F
:100F00002870002605E05046FFF79CF9492028701C
:100F1000264629E0D4F8048006E00222002140465B
:100F2000FFF788FFD8F80080B8F1000FF5D1A1A035
:100F3000E060002020709E480068606000202081F2
:100F40009B4804605046FFF77DF9012F01D1FFF760
:100F500056FC00202870002606E05046FFF772F984
:100F600007202870264600BF00BF304699E72DE9CC
:100F7000F04105460E461446002725B96E20207024
:100F80000020BDE8F0811EB90C2020700020F8E799
:100F90008648007818B1112020700020F1E7FFF793
:100FA0004DF907462878052806D03846FFF74AF954
:100FB000012020700020E4E7E86830603068FFF727
:100FC0008FF980463846FFF73DF9002020704046F3
:100FD000D7E72DE9F04105460E46144600271DB916
:100FE0006E202070BDE8F08116B90C202070F9E762
:100FF0006E48007810B112202070F3E7FFF71EF959
:1010000007462878052805D03846FFF71BF9012048
:101010002070E7E7EE603846FFF714F900202070F3
:1010200000BFDFE7F0B51446059E654F3F6897F8AF
:10103000307047F02007DFF888C1DCF800C08CF87A
:1010400030700027DFF878C1DCF800C08CF8317010
:101050005B4F3F68FE625A4F3F6879620C828B7427
:10106000574F3F688F6047680F6000274F60C86028
:10107000456805B169604160514F3F6897F8342079
:101080004E4FBF5CDFF838C1DCF800C09CF835C0BB
:1010900027EA0C07DFF824C10CF802706746BF5C32
:1010A0005FB9474F3F6897F836C0434F3F7827EA0C
:1010B0000C07DFF804C18CF80070F0BD2DE9F04F8B
:1010C00089B005460F4691469A46129E002002902E
:1010D0002DB96E203070002009B0BDE8F08F334884
:1010E000007818B1022030700020F5E7354800780C
:1010F00018B10D2030700020EEE72878052803D0C5
:10110000012030700020E7E709F0800BBBF1000FF1
:1011100004D009F07F094FF0010801E04FF000080A
:10112000FFF78CF80290B9F1000F59D0B9F1010F17
:1011300079D0B9F1020F03D0B9F1030F72D120E0D9
:10114000288900EA0704BC420FD1B8F1010F02D18F
:101150002889A04328811A48006804850298FFF76F
:1011600071F8002030702046B6E74B463A4604A995
:101170002846CDF800A0FFF755FF0298FFF762F868
:1011800079E0288900EA0704F4B1B8F1010F02D12F
:101190002889A04328810A48006804850298FFF73F
:1011A00051F800203070204696E70000190000201A
:1011B000080000203F000000230000202400002041
:1011C00030000020200000204B463A4604A9284663
:1011D000CDF800A0FFF726FF0298FFF733F84AE0AA
:1011E000288927EA0004BC420FD1B8F1010F02D1CF
:1011F000288920432881C948006804850298FFF7A0
:1012000021F800203070204666E74B463A4604A994
:101210002846CDF800A0FFF705FF0298FFF712F867
:1012200029E000E01FE0288927EA00047CB1B8F13A
:10123000010F02D1288920432881B848006804851D
:101240000298FEF7FFFF00203070204644E74B462F
:101250003A4604A92846CDF800A0FFF7E3FE02981D
:10126000FEF7F0FF07E00298FEF7ECFF00246F2086
:101270003070204630E700BFFFF7C1FAFEF7DEFF0F
:101280000290A648006890F8310020B3A348006897
:1012900090F8310003900020A049096881F83100DE
:1012A00004A8FFF7B5FD00209C49096881F83000CB
:1012B0000298FEF7C7FF00240398012805D00228F2
:1012C00002D10E20307003E000BF0A20307000BF52
:1012D00000BF204600E791480068048DB8F1010F77
:1012E0001ED1B9F1000F0ED0B9F1010F0CD0B9F138
:1012F000020F03D0B9F1030F0AD100E000BF288923
:10130000A04328810BE000BF28892043288106E004
:101310000298FEF797FF6F2030700020DCE600BFD8
:101320000298FEF78FFF002030702046D4E670B59B
:101330000025FEF783FF054678480068048D28469F
:10134000FEF780FF204670BD2DE9FC5F044689460C
:1013500092461E460020009024B96E203070002076
:10136000BDE8FC9F2078052803D0012030700020C4
:10137000F6E7FEF763FF0090BAF1000F03D0BAF171
:10138000010F0AD104E0208920EA090020810BE046
:10139000208940EA0900208106E00098FEF752FF0C
:1013A000712030700020DBE700BF4FF0000B656854
:1013B00059E0A87C50B301283BD0022802D0032872
:1013C00048D112E02089298A00EA0107288AB84218
:1013D0000AD1002239462846FFF72CFD8046B8F195
:1013E000010F01D14FF0010B3BE02089298A00EA6F
:1013F000010757B1002239462846FFF71BFD8046FA
:10140000B8F1010F01D14FF0010B2AE0288A2189A0
:1014100020EA0107288AB8420AD100223946284624
:10142000FFF708FD8046B8F1010F01D14FF0010B25
:1014300017E0288A218920EA010757B1002239469E
:101440002846FFF7F7FC8046B8F1010F01D14FF0B5
:10145000010B06E00098FEF7F5FE6F2030700020CB
:101460007EE700BF2D68002DA3D10098FEF7EAFEAD
:10147000BBF1010F01D1FFF7C2F9FEF7DFFE0090CB
:10148000208901900098FEF7DDFE00203070019861
:1014900066E72DE9F04104460D46002724B96E2089
:1014A00028700020BDE8F0812078052803D00120B5
:1014B00028700020F6E7FEF7C1FE07462689384669
:1014C000FEF7C0FE002028703046EBE72DE9F04122
:1014D000A0211348FFF727F800250EE0681C86B20C
:1014E0000F4800EB051400EB061700202070676022
:1014F000AFF24030E060681C85B2092DEED3084899
:1015000000EB0514002020706060AFF25830E060FE
:10151000034804490860BDE8F08100003000002065
:10152000680A0020080000202DE9FC5F05460F46F0
:1015300091461E460020009025B9622030700020A0
:10154000BDE8FC9F05F0030018B162203070002058
:10155000F6E7022F03D25B2030700020F0E7B9F1EC
:10156000040F03D25C2030700020E9E7FEF766FE2E
:1015700000907F480468006820B17D48006840689A
:101580007B4908600098FEF75DFE1CB95A20307058
:101590000020D5E7AA46A846781E01904FF0000B20
:1015A00005E0C844CAF80080C2460BF1010B01985F
:1015B0008345F6D30020CAF80000256065602761E6
:1015C000E760C4F8089030702046B9E72DE9F04193
:1015D00004460D46002724B9602028700020BDE88D
:1015E000F081FEF72BFE0746206960B1666830681F
:1015F00060602069401E20613846FEF723FE00200F
:1016000028703046EBE73846FEF71CFE5D20287058
:101610000020E4E72DE9F04106460D461446002778
:1016200026B9602020700020BDE8F0811DB90C2093
:1016300020700020F8E74F48007818B11120207082
:101640000020F1E7FEF7FAFD074670692860286878
:10165000FEF746FE80463846FEF7F4FD0020207077
:101660004046E1E72DE9F04105460E4614460027C5
:101670001DB960202070BDE8F08116B90C202070E3
:10168000F9E73C48007810B112202070F3E7FEF72C
:10169000D5FD07466E613846FEF7D4FD0020207068
:1016A00000BFE8E770B504460D4600260CB960207F
:1016B00070BD0DB95F20FBE7FEF7C0FD0646D4E91B
:1016C0000310884204D33046FEF7BCFD5E20EFE7EE
:1016D0006068286065602069401C20613046FEF724
:1016E000B1FD0020E4E770B505460C4600260DB9B3
:1016F000602070BD0CB96120FBE7FEF79FFD064638
:101700002868206068686060A868A060E868E06099
:10171000286920613046FEF795FDD4E90301401A9F
:1017200060610020E5E770B578211348FEF7FBFE05
:1017300000240EE004EB44000F4901EBC005601CDF
:1017400000EB400001EBC00068600CA06861601C09
:1017500084B2042CEED304EB4400074901EBC0052E
:101760000020686005A0686108460149086070BDF6
:101770004400002019000020702100203F000000DC
:101780002DE9F04104460D46002724B904202870B5
:101790000020BDE8F0812078042803D001202870C3
:1017A0000020F6E7FE48007818B1022028700020DB
:1017B000EFE7FEF743FD074620890612207AFF284F
:1017C00022D1208900F47F4020812089F5490968D1
:1017D00091F8321008432081F24800686060FF2EC3
:1017E0000BD0F048006890F83200B04205DC384673
:1017F000FEF728FD7820287004E03846FEF722FD29
:10180000002028700120C4E73846FEF71BFD0020A9
:10181000287000BFBDE72DE9F04104460E460027C1
:10182000FF2C06D01F2C04DB2A2030700020BDE8DE
:10183000F081DB48007818B1102030700020F6E706
:10184000FEF7FCFC0746FF2C0ED0D74850F82400CA
:1018500030B13846FEF7F6FC282030700020E6E76D
:101860000120D14941F82400D048056865B9FF2C12
:1018700003D00020CC4941F824003846FEF7E2FCB2
:10188000042030702846D2E7C84800684068C7493D
:1018900008603846FEF7D6FC04202870FF2040EA96
:1018A0000420288100206860C1A028612846FFF735
:1018B00025F9002030702846B9E730B590F834207B
:1018C000BC4B9B5C90F83540A343BA4CA3542346D1
:1018D0009B5C33B990F83640B74B1B78A343B64CAA
:1018E000237000F8321FB54B1970C1F3C203837027
:1018F00001F00703437084780123A3400371447807
:101900000123A340C3700379AB4C24782343AA4C32
:1019100023708378A74CE35CC478234384783238FF
:10192000A44D2B55A04B43F8210030BD2DE9F84FB5
:1019300004468A4615460020009024B904202870E9
:101940002046BDE8F88F2078042803D001202870B5
:101950002046F6E79248007818B10F2028702046FC
:10196000EFE7FEF76BFC0090A07A10B14FF0010892
:1019700001E04FF00008BAF1000F03D0BAF1010FF7
:1019800060D123E0B8F1000F19D189A0206120892E
:101990000612FF2E03D00020834941F826000020C4
:1019A0002070824800686060002020817F480460C9
:1019B0000098FEF747FC00202870002705E00098FB
:1019C000FEF740FC49202870274642E02089061295
:1019D000FF2E0ED094F808B0D4F80490B9F1000F9F
:1019E00007D099F83200B04203D159464846FFF774
:1019F00064FF05E00223102200212046FFF70DF8C6
:101A0000A07A0028F6D16AA0206120890612FF2E54
:101A100003D00020644941F826000020207063486C
:101A20000068606000202081604804600098FEF734
:101A300009FCB8F1010F01D1FEF7E1FE002028708A
:101A4000002706E00098FEF7FDFB072028702746D8
:101A500000BF00BF384674E72DE9F74F82B0054656
:101A600017460020019025B90420387005B0BDE864
:101A7000F08F2878042802D001203870F6E7484813
:101A8000007810B102203870F0E74D48007810B1AE
:101A90000D203870EAE7FEF7D1FB019028894FEA64
:101AA0002029287AFF2822D1288900F47F40288124
:101AB00028893C49096891F832100843288139483F
:101AC00000686860B9F1FF0F0BD03648006890F8E5
:101AD0003200484505DC0198FEF7B4FB78203870E9
:101AE00004E00198FEF7AEFB00203870BEE7B9F1C4
:101AF000FF0F67D095F808B06C6894F8320048453D
:101B000060DD2848006890F8320058455ADA94F8A9
:101B10003480284810F8080094F835100840B0B117
:101B2000244810F8080094F835108843214901F83A
:101B30000800084610F8080030B994F836101E481E
:101B4000007888431C4908704FF0010A19E0E669E3
:101B5000AEB194F8348006F10B0010F8080094F848
:101B60003510884306F10B0101F80800084610F80B
:101B7000080020B9B07A94F836108843B0724FF05C
:101B8000000A04F8329F2078C010A070207800F07E
:101B900007006070A178012088402071617812E010
:101BA0001900002030000020081B00200400002045
:101BB0003F0000002400002023000020210000201E
:101BC000200000202CE001208840E070323CBAF177
:101BD000010F10D13434A07885490978084384492D
:101BE000087020788349085C6178084314F8341938
:101BF000804A505411E0E6697EB1B07A3434A1785D
:101C00000843B072217806F10B00405C617808430C
:101C100014F8342906F10B018854774840F829401C
:101C20007648006890F8300040F010007349096869
:101C300081F8300000207149096881F831006F494E
:101C400003980968C8622846FEF720FF0198FEF74E
:101C5000F9FAFEF7D4FDFEF7F1FA01906748006843
:101C600090F8310020B1012809D0022806D102E005
:101C7000002038700BE00E20387008E000BF2946C5
:101C80005E480068FEF7B4FE0A20387000BF00BF4F
:101C900000205A49096881F830005849096881F8DC
:101CA000310056490968C8610198FEF7CBFA00BFB8
:101CB000DCE62DE9F041044600275148007810B1D8
:101CC0000520BDE8F0810CB90420FAE7207804284B
:101CD00001D00120F5E7FEF7B1FA07462089051289
:101CE000267A464960680968884204D03846FEF77B
:101CF000A9FA6420E5E7FF2D0ED04048006890F86F
:101D00003200A84204D131463C480068FFF7D5FDB7
:101D10000120394941F82500A07A18B30023102288
:101D200019462046FEF779FE0646208900F47F40DA
:101D300020812089304320812F4850F826006060A0
:101D4000FF2D08D0AE4206DC3846FEF77BFAFEF7E0
:101D500056FD7820B5E73846FEF774FAFEF74FFDDA
:101D60000020AEE7208940F0FF0020810020606065
:101D70003846FEF767FA0020A3E72DE9F04705464D
:101D80000C464FF000091E48007810B10620BDE84F
:101D9000F0870DB90420FAE70CB90920F7E7287895
:101DA000042801D00120F2E7FEF748FA814628898D
:101DB0000012E071287AA071A079FF2802D10120D9
:101DC000607101E000206071A87A207105F10B08B4
:101DD0002646002705E018F8010B06F8010B781CD1
:101DE000C7B2042FF7D34846FEF72CFA0020CEE7FF
:101DF0002300002024000020081B002030000020C9
:101E0000190000202DE9F04106460D464FF000086C
:101E100026B9042028700020BDE8F081307802281F
:101E200003D0012028700020F6E7FEF707FA80466D
:101E30007468E08A78B12169081D20610F68E08A22
:101E4000401EE082A1682069884201D1606820615B
:101E50000020287002E01F20287000274046FEF76F
:101E6000F1F93846D8E72DE9F04106460F464FF024
:101E70000008F948007810B10020BDE8F081FEF7B5
:101E8000DDF98046F5480468006820B1F348006831
:101E90004068F24908604046FEF7D4F9FCB1FEF70D
:101EA000CDF98046EE480568D5B100680068EC4978
:101EB00008604046FEF7C6F96E6006EB8700A86032
:101EC000EE602E61AF820020E882022020700020A8
:101ED00020816560E3A020612046FEF70FFE08E048
:101EE000DE4800686060DD4804604046FEF7AAF9FD
:101EF00000242046C1E72DE9F047044689461546EF
:101F00004FF0000A24B9042028702046BDE8F0876D
:101F10002078022803D0012028702046F6E7CE481A
:101F2000007818B10F2028702046EFE7FEF786F9F9
:101F30008246A07A10B14FF0010801E04FF000088E
:101F4000B9F1000F03D0B9F1010F49D121E0B8F187
:101F5000000F17D1C3A020616668C14800683060D7
:101F6000BF48066000202070BC4800686060002008
:101F70002081BA4804605046FEF764F900202870BA
:101F8000002705E05046FEF75DF9492028702746F6
:101F90002DE005E00223042200212046FEF73DFD4E
:101FA000A07A0028F6D1AFA020616668AC4800682E
:101FB0003060AB48066000202070A8480068606070
:101FC00000202081A54804605046FEF73BF9B8F197
:101FD000010F01D1FEF713FC00202870002706E056
:101FE0005046FEF72FF907202870274600BF00BF94
:101FF00038468BE770B5054600260DB9042070BD44
:102000002878022801D00120F9E7FEF717F90646E3
:102010006C686068E060606820610020E0823046A3
:10202000FEF710F90020EAE72DE9F047064688465A
:1020300015464FF0000926B9042028700020BDE89D
:10204000F0873078022803D0012028700020F6E7BE
:102050008148007818B1022028700020EFE78248FC
:10206000007818B10D2028700020E8E7FEF7E6F8A8
:1020700081467468E08A98B12169081D20610F6863
:10208000E08A401EE082A1682069884201D1606830
:1020900020614846FEF7D6F8002028703846CEE783
:1020A0007248006890F8300040F004006F490968F9
:1020B00081F8300000206D49096881F831006B48D3
:1020C0000068C0F82C803046FEF7E0FC4846FEF77A
:1020D000B9F8FEF794FBFEF7B1F881466348006853
:1020E00090F8310020B101280DD002280AD105E076
:1020F0005E480068076A002028700DE000270E2067
:10210000287009E000BF314658480068FEF770FCAF
:1021100000270A20287000BF00BF0020534909682B
:1021200081F830005149096881F831004F49096848
:10213000C8614E49096808624846FEF783F8384688
:102140007DE72DE9F04104460F4615464FF00008A3
:1021500024B9042028700020BDE8F08120780228EE
:1021600003D0012028700020F6E7FEF767F88046CC
:10217000A07A20B300267FB1012F0CD107E0022303
:10218000042200212046FEF748FC701CC6B2A07A4B
:102190000028F4D109E000BF0223042200212046D8
:1021A000FEF73BFC701CC6B200BF00BF4046FEF706
:1021B00049F8FEF724FB0E2028703046CCE7404655
:1021C000FEF740F80020287000BFC5E72DE9F04178
:1021D00005460E46002715B90420BDE8F081287891
:1021E000022801D00120F8E7FEF728F80746A87A70
:1021F00060B10023042231462846FEF70EFC384623
:10220000FEF720F8FEF7FBFA0020E6E76C68E08AAC
:10221000A18A884204DB3846FEF714F81E20DCE76A
:10222000E168081DE0600E60E08A401CE082D4E9AD
:102230000210884201D16068E0603846FEF702F87B
:102240000020CAE72DE9F04105460E4600277DB97A
:102250000420BDE8F08100001900002004000020E7
:10226000480000203F000000200000203000002037
:102270002878022801D00120EBE7FDF7DFFF0746B1
:10228000A87A60B10023042231462846FEF7C5FB38
:102290003846FDF7D7FFFEF7B2FA0020D9E76C68A1
:1022A000E08AA18A884204DB3846FDF7CBFF1E2076
:1022B000CFE761682069884201D1A0682061206968
:1022C000001F206120690660E08A401CE0823846D9
:1022D000FDF7B8FF0020BCE72DE9F04105460F46A9
:1022E00016464FF0000815B90420BDE8F0812878A3
:1022F000022801D00120F8E7FDF7A0FF8046A87A68
:10230000E8B106F0010050B105E00023042239468F
:102310002846FEF782FBA87A0028F6D105E00023C4
:10232000042239462846FEF778FB4046FDF78AFF2F
:1023300006F0040008B9FEF762FA0020D5E76C68E1
:10234000E08AA18A884204DB4046FDF77BFF1E201D
:10235000CBE706F0020058B161682069884201D1DC
:10236000A06820612069001F20612069076009E0E2
:10237000E168081DE0600F60D4E90210884201D1D5
:102380006068E060E08A401CE0824046FDF75AFF4A
:102390000020AAE72DE9F04705460C464FF0000A59
:1023A00015B90420BDE8F0870CB90920FAE72878B0
:1023B000022801D00120F5E7FDF740FF8246A87A08
:1023C000207305F10B0804F10809002705E018F84F
:1023D000010B09F8010B781CC7B2042FF7D36E6804
:1023E000F08A18B130690068206001E000202060A8
:1023F000F08AA080B08AE0805046FDF723FF0020DD
:10240000D0E72DE9F04160211048FEF78CF8002458
:102410000DE0601C86B204EB44000C4901EBC005E2
:1024200006EB460001EBC0072F60601C84B2032C52
:10243000EFD304EB4400054901EBC0050020286000
:10244000084603490860BDE8F0810000E82100204B
:102450004800002070B5044600260CB9002070BD6D
:102460002078032801D00020F9E7FDF7E7FE0646B3
:10247000258915B12089401E20813046FDF7E2FEF6
:102480002846ECE770B505460026E348007808B119
:10249000002070BDFDF7D2FE0646E04804680068E3
:1024A00020B1DE4800684068DC4908603046FDF72E
:1024B000C9FE4CB103202070258100206060D8A0A7
:1024C00020612046FEF71AFB2046E2E72DE9F0479F
:1024D0000446884615464FF0000924B904202870A8
:1024E0002046BDE8F0872078032803D0012028701B
:1024F0002046F6E7C848007818B10F20287020461B
:10250000EFE7FDF79BFE8146A07A08B1012700E0C6
:102510000027B8F1000F03D0B8F1010F3AD119E04C
:102520008FB9BFA0206100202070BC4800686060A7
:1025300000202081B94804604846FDF783FE002052
:102540002870002605E04846FDF77CFE49202870EB
:10255000264626E005E00223012200212046FEF760
:102560005CFAA07A0028F6D1ADA02061002020708E
:10257000AA480068606000202081A848046048469E
:10258000FDF760FE012F01D1FEF739F90020287018
:10259000002606E04846FDF755FE0720287026462F
:1025A00000BF00BF30469CE72DE9F04105460E46CE
:1025B000144600271DB904202070BDE8F08128785A
:1025C000032802D001202070F7E79348007810B16B
:1025D00002202070F1E79348007810B10D202070A0
:1025E000EBE7FDF72BFE0746288940B12889401EFE
:1025F00028813846FDF726FE00202070DDE78A4856
:10260000006890F8300040F001008749096881F8BF
:10261000300000208449096881F831008248006850
:10262000C6622846FEF732FA3846FDF70BFEFEF783
:10263000E6F8FDF703FE07467B48006890F8310096
:1026400020B1012809D0022806D102E00020207024
:102650000BE00E20207008E000BF29467248006899
:10266000FEF7C6F90A20207000BF00BF00206E49A7
:10267000096881F830006C49096881F831006A49BD
:102680000968C8613846FDF7DDFD00BF95E72DE913
:10269000F04104460F4615464FF0000824B90420C7
:1026A00028700020BDE8F0812078032803D00120A5
:1026B00028700020F6E7FDF7C1FD8046A07A20B320
:1026C00000267FB1012F0CD107E002230122002157
:1026D0002046FEF7A2F9701CC6B2A07A0028F4D1F9
:1026E00009E000BF0223012200212046FEF795F9F0
:1026F000701CC6B200BF00BF4046FDF7A3FDFEF749
:102700007EF80E2028703046CCE74046FDF79AFD53
:102710000020287000BFC5E770B5044600250CB93D
:10272000042070BD2078032801D00120F9E7FDF7CF
:1027300085FD0546A07A60B1002301221946204696
:10274000FEF76BF92846FDF77DFDFEF758F80020EF
:10275000E7E720894FF6FF71884207D22089401CA5
:1027600020812846FDF76EFD0020DAE72846FDF7B8
:1027700069FD3320D5E72DE9F04704460D464FF0BB
:10278000000914B90420BDE8F0870DB90920FAE763
:102790002078032801D00120F5E7FDF74FFD8146A1
:1027A000A07AA87104F10B0705F10208002605E0E4
:1027B00017F8010B08F8010B701CC6B2042EF7D3F2
:1027C000208928804846FDF73DFD0020DBE72DE904
:1027D000F04104460E46154600271CB90420287017
:1027E000BDE8F0812078032802D001202870F7E7A7
:1027F000FDF724FD074600202870208908B12681B6
:1028000005E0A07A08B9268101E049202870384601
:10281000FDF718FD00BFE3E71900002004000020C9
:102820003F00000020000020300000202DE9FF5F65
:1028300081460F4600200090B9F11F0F06DBB9F169
:10284000FF0F03D02A2004B0BDE8F09F1F2F01DB4B
:102850002A20F8E7FDF7F2FC0090F84850F827002E
:1028600020B10098FDF7EEFC2820ECE7B9F1FF0F4E
:1028700003D1F348006890F83290F04850F82940AE
:1028800024B90098FDF7DEFC2920DCE7012C04D1F7
:102890000098FDF7D7FC4320D5E74FEAE70807F09B
:1028A00007000390012000FA08F000F0FF0A012160
:1028B0000398814001F0FF0B0020E04941F8290016
:1028C000084640F8274014F8346FA07802906078EA
:1028D000343C0190DB48815D01980140E1B1D94869
:1028E000805D01998843D74988550846805D28B99D
:1028F000D548007802998843D3490870D2480078B7
:1029000040EA0A00D0490870CE4810F8080040EAB2
:102910000B00CC4901F80800E569E5B105F10B00B1
:10292000805D0199884305F10B0188550846805D5B
:1029300018B9A87A02998843A872A87A40EA0A00CE
:10294000A87205F10B0010F8080040EA0B0005F131
:102950000B0101F8080084F8327084F83480039881
:1029600084F8330084F836A084F835B00098FDF779
:1029700069FCB6480078012801D1FDF740FF00202E
:1029800061E72DE9FE4F06460F4690461C464FF084
:1029900000091F2C02DD2A20BDE8FE8FFDF74EFC4A
:1029A0008146AB48007820B14846FDF74BFC3C20FF
:1029B000F2E7A24850F8240060BB01209F4941F88B
:1029C00024004846FDF73EFC002342463946304687
:1029D000FDF7BFFB824600200090019003460246AF
:1029E000514602902046FEF7A1F8054635B99748B2
:1029F000007801280CD1FDF702FF09E0FDF71EFC6D
:102A0000814600208D4941F824004846FDF71AFC14
:102A10002846C1E74846FDF715FC2820BCE702F030
:102A2000010343B102F002032BB102E0491E00236F
:102A300008C00029FAD170472DE9F04F85B08146D2
:102A40008A4693461C46DDE90F78129D00200390CC
:102A50001F2C03DD2A2005B0BDE8F08FFDF7EEFB4B
:102A600003907B48007820B10398FDF7EBFB3C20F6
:102A7000F1E7724850F8240088BB01206F4941F803
:102A800024000398FDF7DEFB2A4641463846FFF74F
:102A9000C6FF2B465A4651464846FDF75AFB04905E
:102AA0001198CDE9008002953A4620460E9B049984
:102AB000FEF73CF8064636B96448007801280CD188
:102AC000FDF79DFE09E0FDF7B9FB039000205B498F
:102AD00041F824000398FDF7B5FB3046BBE7FFE75C
:102AE0000398FDF7AFFB2820B5E72DE9F041054637
:102AF00000275748007810B14020BDE8F0811F2D15
:102B000001D13E20F9E71F2D03DBFF2D01D02A2044
:102B1000F3E7FDF793FB0746FF2D03D14848006814
:102B200090F83250454850F8254024B93846FDF712
:102B300089FB4320E1E7012C04D13846FDF782FBF5
:102B40003D20DAE714F8340F3E49085C6178884389
:102B500021783C4A505414F834091146085C30B9C5
:102B600094F8361038480078884337490870E0698F
:102B700018B12046E169FDF73BFF666A16B13046A1
:102B8000FEF746F90020E06284F8300084F8310056
:102B900030480078FF2804D22E480078401C2D4988
:102BA00008703846FDF74EFBFDF721FFFDF746FBA9
:102BB00007462848007820B126480078401E25495D
:102BC00008702046FDF7C1FA23480078401E2249CC
:102BD00008700020194941F82500A06930B900208B
:102BE000616988611D496069086005E0D4E90501F3
:102BF0004861D4E905108861194800686061184887
:102C0000046018A0E0643846FDF71CFB0F4800780C
:102C1000012801D1FDF7F3FD00206EE72DE9F04119
:102C2000044600271F2C02D13E20BDE8F0811F2C56
:102C30001ADBFF2C18D02A20F7E70000081B002021
:102C40003000002024000020230000202800002065
:102C50001900002020000020290000203C00002056
:102C6000340000203F000000FF2C0BD1FDF7E6FAF6
:102C70000746F948006890F837603846FDF7E2FAF1
:102C80003046D2E7FDF7DAFA0746F44850F8245008
:102C900025B93846FDF7D6FA4320C6E7012D04D101
:102CA0003846FDF7CFFA3D20BFE73F2085F83700D3
:102CB0003846FDF7C7FA0020B7E72DE9F04705468B
:102CC0000E4614464FF000081F2D06DDFF2D04D0E0
:102CD0002A2020700020BDE8F0871EB90C2020704B
:102CE0000020F8E7DE48007818B11120207000209D
:102CF000F1E7FDF7A3FA8046FF2D03D1D64800681F
:102D000090F83250D54850F8257037B94046FDF755
:102D100099FA432020700020DDE7012F06D14046BC
:102D2000FDF790FA432020700020D4E7F86C306063
:102D30003068FDF7D5FA81464046FDF783FA00205A
:102D400020704846C7E72DE9F04105460F46144676
:102D50004FF000081F2D05DDFF2D03D02A20207025
:102D6000BDE8F08117B90C202070F9E7BC48007865
:102D700010B112202070F3E7FDF760FA8046FF2DB6
:102D800003D1B548006890F83250B44850F8256037
:102D90002EB94046FDF756FA43202070E0E7012E99
:102DA00005D14046FDF74EFA43202070D8E7F7647E
:102DB0004046FDF747FA0020207000BFD0E770B50D
:102DC000054600261F2D01DB2A2070BDFDF736FACF
:102DD0000646A24850F8254024B93046FDF732FA9D
:102DE0004620F2E7012C04D13046FDF72BFA4320B0
:102DF000EBE794F8300000F0080060B314F8300FEF
:102E000000F0F700207014F83009F8B9E06AC8B98A
:102E10003434A0789349097808439249087020789F
:102E20009149085C6178084314F834198E4A50546B
:102E30003046FDF707FA8D480078012809D1FDF7E3
:102E4000DEFC06E03046FDF7FDF902E03046FDF716
:102E5000F9F90020B9E73046FDF7F4F94420B4E76A
:102E60002DE9F04706460C464FF0000A1F2E04DD00
:102E7000FF2E02D02A20BDE8F0870CB90920FAE71E
:102E8000002020606060FDF7D9F98246FF2E03D153
:102E90007148006890F83260704850F8265025B9A3
:102EA0005046FDF7CFF94320E5E7012D04D1504608
:102EB000FDF7C8F94320DEE7287C00F0010020B9C7
:102EC0005046FDF7BFF94520D5E70027D5F80C900F
:102ED000D5F808805046FDF7B5F900E07F1C58F89A
:102EE000041B0029FAD02760A9EB070060600020CE
:102EF000C1E72DE9F04105464FF000081F2D02D132
:102F00004720BDE8F0811F2D03DBFF2D01D02A20D3
:102F1000F7E7FDF793F98046FF2D05D14E4800688D
:102F200090F83250012608E04B48006890F83200D3
:102F3000A84201D1012600E00026484850F825406B
:102F400024B94046FDF77EF94820DAE7012C04D188
:102F50004046FDF777F94320D3E794F834704248B0
:102F6000C05D94F8351088433F49C8550846C05D98
:102F700030B994F836103B480078884339490870D6
:102F800094F8300040F0080084F830004046FDF727
:102F900059F9012E01D1FDF732FC0020B1E72DE9EE
:102FA000F04104460E4600271F2C04DDFF2C02D002
:102FB0002A20BDE8F0810EB90920FAE7FDF73EF9B5
:102FC0000746FF2C03D12448006890F8324023487C
:102FD00050F8245025B93846FDF734F92920E8E7A0
:102FE000012D04D13846FDF72DF94320E1E75422A5
:102FF00029463046FDF790FD3846FDF723F90020BD
:10300000D7E72DE9F04704460E4615464FF0000974
:103010001F2C06DBFF2C04D02A2028700020BDE8DE
:10302000F0871EB1082028700020F8E7FDF706F9A8
:103030008146FF2C02D10848076802E0074850F893
:10304000247007F1500050F826804846FDF7FAF842
:10305000002028704046E2E730000020081B0020D6
:103060001900002023000020240000202800002058
:1030700070B504460026FDF7E1F8064624480078BE
:1030800030B1962020703046FDF7DCF8012070BD8D
:103090001F4805780078401C1D4908703046FDF730
:1030A000D1F8002020702846F1E72DE9F0470446CA
:1030B0000E4690461D464FF000091F2C05DBFF2CE5
:1030C00003D02A202870BDE8F08716B108202870A8
:1030D000F9E7FDF7B3F88146FF2C02D10D480768E8
:1030E00002E00D4850F8247007F1500040F82680A7
:1030F0004846FDF7A7F80020287000BFE3E710B5A9
:1031000004480068FDF723F8FF20FFF7EEFC10BD30
:103110004C00002030000020081B002070B5054640
:1031200000266C48007800B170BD6B48007800B193
:10313000FAE71DB3FDF782F806466848006890F884
:1031400034406748005D6549096891F83510884347
:10315000634908550846005D40B96048006890F82A
:1031600036106048007888435E4908705B48006804
:10317000C5623046FDF766F8FDF741FB00BFD3E7B7
:103180002DE9F04107460D4616461C465148007889
:1031900010B15520BDE8F0814F48007808B13220C9
:1031A000F8E727B91DB916B90CB95420F2E73B2D41
:1031B00001D95120EEE73B2E01D95220EAE7B4F5C0
:1031C0007A7F01D35320E5E74FF47A7060434FF4E0
:1031D0007A71B0FBF1F14FF461607843C5EB0512F1
:1031E00000EB8200304400EB4002C2EBC01001EB68
:1031F000C0084046FFF792FF0020CBE770B50546B8
:1032000000261F2D01DB2A2070BDFDF717F80646AA
:10321000354850F8254024B93046FDF713F84320CF
:10322000F2E7012C04D13046FDF70CF84320EBE720
:10323000E06A20B93046FDF705F85020E4E70020A9
:10324000E06294F8300000F0370040B114F8300F1D
:1032500020F03700207001206070303C02E0002038
:1032600084F8310094F8300000F00800A8B9343434
:10327000A0781C49097808431A4908702078184931
:10328000085C6178084314F83419154A50543046E4
:10329000FCF7D8FFFDF7B3FA02E03046FCF7D2FFA7
:1032A0000020B1E770B50025FCF7C8FF05460F48C0
:1032B00004682846FCF7C6FF204670BD70B504467A
:1032C0000025FCF7BBFF0546084804602846FCF7CC
:1032D000B9FF70BD19000020200000203000002040
:1032E0002400002023000020081B002050000020A4
:1032F000704700BFFEE700BFFEE700BFFEE700BF6C
:10330000FEE77047704710B5FCF798FF0446094880
:103310000068401C0749086007480078401C0649BF
:1033200008702046FCF78EFFFDF7F5FAFDF7C5F9AA
:1033300010BD00001C000020190000200CB500206A
:10334000019000906C48006840F480306A49086041
:1033500000BF6948006800F4003000900198401CEC
:103360000190009818B90198B0F5A06FF1D16248AA
:10337000006800F4003010B10120009001E000204E
:1033800000900098012843D15C48006840F010008C
:103390005A4908600846006820F0030008600846A3
:1033A000006840F002000860534840685249486095
:1033B0000846406848600846406840F480604860BD
:1033C0000846406820F47C1048600846406840F495
:1033D000E81048600846006840F08070086000BF50
:1033E0004548006800F000700028F9D04248406865
:1033F00020F00300404948600846406840F0020061
:10340000486000BF3C48406800F00C000828F9D133
:103410000CBD10B5FFF792FF10BD10B5364800681F
:1034200040F00100344908600846406834490840CB
:103430003149486008460068324908402E49086012
:103440000846006820F4802008600846406820F4A0
:10345000FE0048604FF41F008860FFF7DAFF4FF06E
:1034600000602949086010BD10B50021002000222D
:10347000214B5B6803F00C0121B1042906D0082917
:1034800028D107E0214B224C236027E01F4B204C22
:10349000236023E0184B5B6803F47010164B5B68E5
:1034A00003F48032022303EB904022B9194B4343CB
:1034B000174C23600DE0104B5B6803F4003323B11D
:1034C000144B4343124C236003E0104B4343104C16
:1034D000236003E00D4B0E4C236000BF00BF064B82
:1034E0005B68C3F303130C4CE15C094B1B68CB40D6
:1034F000074C236010BD0000001002400020024075
:103500000000FFF8FFFFF6FE08ED00E000127A0071
:103510005400002000093D00580000200648804764
:1035200006480047FEE7FEE7FEE7FEE7FEE7FEE7A8
:10353000FEE7FEE7FEE7FEE71B3400083101000866
:103540007FB504460D461646002001900290039078
:103550000090012101FA04F008F069FE062C1CD24B
:10356000DFE804F003070B0F13171C208DF8000091
:1035700016E01D208DF8000012E01E208DF80000DE
:103580000EE032208DF800000AE036208DF80000B1
:1035900006E037208DF8000002E0002004B070BD86
:1035A00000BF4FF4A06007F05DFC01208DF8010022
:1035B0008DF802008DF80300684607F058FCA10260
:1035C00001F1804008F08AFE01A809F087FAADF801
:1035D0000850ADF804600020ADF80A00ADF8060010
:1035E000A10201F1804001A908F04CFFA10201F104
:1035F0008040002109F0A2FBA10201F180402021BE
:1036000009F015FDA10201F18040012109F05CFDE6
:10361000A10201F180400122114609F0AAFA01201D
:10362000BCE770B504460D46A9B2A20202F1804083
:1036300009F01AFD70BD10B50446A10201F18040E9
:10364000012109F07BFA10BD10B50446A10201F179
:103650008040002109F072FAA10201F180400121AD
:1036600009F046FDA10201F18040002109F0FCFCB7
:1036700010BD10B50121880709F029FD28B10121ED
:10368000880709F035FD00F09EFF10BD10B501213F
:103690001E4809F01CFD28B101211C4809F028FD35
:1036A00000F0A0FF10BD10B50121194809F00FFD71
:1036B00028B10121164809F01BFD00F0A2FF10BD42
:1036C00010B50121134809F002FD28B1012111486C
:1036D00009F00EFD00F0A4FF10BD10B501210E4849
:1036E00009F0F5FC28B101210B4809F001FD00F0BB
:1036F00053FE10BD10B50121084809F0E8FC18B1CF
:103700000121064809F0F4FC10BD0000000400404F
:1037100000080040000C0040001000400014004071
:10372000F8B505460C461646072D01DB0020F8BD0E
:10373000102C01DB0020FAE7032E01DB0020F6E766
:10374000042101FA05F0012108F064FD022D0CD1DD
:103750000D2C01D00E2C08D1012008F092FB002086
:1037600008F0C5FC002007F0F6FB0120A04080B265
:10377000ADF8000026B1012E06D0022E0CD107E0D4
:1037800004208DF8030009E010208DF8030005E007
:1037900014208DF8030001E00020C8E700BF0320DB
:1037A0008DF80200FE490A1502FB0510694608F073
:1037B0000FFA022D06D10D2C01D00E2C02D10020C3
:1037C00008F05FFB0120B2E72DE9FF4780460F4676
:1037D00000200390019002900090B8F1070F02DBE7
:1037E00004B0BDE8F087102F01DB0020F8E70421CA
:1037F00001FA08F141F00100012108F00BFDB8F1D8
:10380000020F0CD10D2F01D00E2F08D1012008F08E
:1038100038FB002008F06BFC002007F09CFB012027
:10382000B84080B2ADF80C0004208DF80F000320E2
:103830008DF80E00DA490A1502FB081003A908F0FA
:10384000C7F9B8F1020F06D10D2F01D00E2F02D10A
:10385000002008F016FB4FF4A06007F003FBB8F15E
:10386000070F1AD2DFE808F004070A0D101316003C
:103870004FF0000913E04FF0010910E04FF002098A
:103880000DE04FF003090AE04FF0040907E04FF0A4
:10389000050904E04FF0060901E00020A0E700BFA1
:1038A000102F51D2DFE807F0080C1014181C202448
:1038B000282D32373C41464B06250124002645E0A1
:1038C00007250224012641E00825042402263DE0C4
:1038D00009250824032639E00A251024042635E0AA
:1038E00017252024052631E01725402406262DE043
:1038F00017258024072629E017254FF48074082611
:1039000024E017254FF4007409261FE028254FF402
:1039100080640A261AE028254FF400640B2615E07F
:1039200028254FF480540C2610E028254FF400542D
:103930000D260BE028254FF480440E2606E02825AE
:103940004FF400440F2601E0002049E700BFE8B231
:103950008DF8000001208DF801008DF802008DF82F
:103960000300684607F083FA204608F0C8F831469D
:10397000484608F043FA019400208DF80800102012
:103980008DF8090001208DF80A0001A808F040F820
:10399000012025E770B504460D460122AA4091B2E8
:1039A0007F4A131503FB042008F0A5F908B1012094
:1039B00070BD0020FCE770B504460D461646012296
:1039C000AA4091B2764A131503FB0420324608F050
:1039D000B0F970BD10B5012008F080F840B10120A9
:1039E00008F08DF86F48006810B16E49086880478C
:1039F00010BD10B5022008F071F840B1022008F0A7
:103A00007EF86848406810B166494868804710BD34
:103A100010B5042008F062F840B1042008F06FF8F7
:103A20006048806810B15F498868804710BD10B554
:103A3000082008F053F840B1082008F060F8594811
:103A4000C06810B15749C868804710BD10B5102034
:103A500008F044F840B1102008F051F851480069CE
:103A600010B150490869804710BD10B5202008F0FA
:103A700035F840B1202008F042F84A48406910B1BA
:103A8000484948698047402008F028F840B1402064
:103A900008F035F84348806910B142498869804789
:103AA000802008F01BF840B1802008F028F83D483D
:103AB000C06910B13B49C86980474FF4807008F075
:103AC0000DF848B14FF4807008F019F83548006AD5
:103AD00010B13449086A80474FF4007007F0FEFFC8
:103AE00048B14FF4007008F00AF82E48406A10B14F
:103AF0002C49486A804710BD10B54FF4806007F02C
:103B0000EDFF48B14FF4806007F0F9FF2548806A67
:103B100010B12449886A80474FF4006007F0DEFF47
:103B200048B14FF4006007F0EAFF1E48C06A10B1C8
:103B30001C49C86A80474FF4805007F0CFFF48B156
:103B40004FF4805007F0DBFF1648006B10B11549A9
:103B5000086B80474FF4005007F0C0FF48B14FF4A6
:103B6000005007F0CCFF0F48406B10B10D49486B77
:103B700080474FF4804007F0B1FF48B14FF48040D8
:103B800007F0BDFF0748806B10B10649886B80477E
:103B90004FF4004007F0A2FF70B14FF4004003E083
:103BA000000801404822002007F0A9FF0348C06B2D
:103BB00010B10249C86B804710BD000048220020A8
:103BC0002DE9F04F89B081468A4615461E46DDF83C
:103BD00058B0DDE91278149CB9F1000F03D0002031
:103BE00009B0BDE8F08F0DB90020F9E70421A1402C
:103BF000042202FA0BF2114341F00900012108F0FE
:103C000009FB0121480608F012FB032C05D1012114
:103C10004FF4EB1008F0ADF80AE0012C05D10121BA
:103C20004FF4EA1008F0A5F802E00CB10020D7E745
:103C300001211798814088B2ADF8200048208DF806
:103C4000230003208DF82200A8490A1502FB0B105F
:103C500008A907F0BDFF01211598814088B2ADF891
:103C6000200018208DF8230003208DF822009F49A2
:103C70000A1502FB041008A907F0AAFF4FF4A06080
:103C800007F0F0F814208DF8000000208DF80100F6
:103C90008DF8020001208DF80300684607F0E7F870
:103CA000934807F0AFF905A807F0D0FA00208DF887
:103CB0001A008DF81B0001208DF81C0000208DF8E3
:103CC0001D008DF81E008DF81F008DF816008DF870
:103CD000170002208DF8180001208DF8190041F21C
:103CE0007070B0FBFAF0ADF8140005A9804807F039
:103CF000A2F900208DF80E008DF80F0001208DF83C
:103D0000100045F040004005000CADF80400002113
:103D100041EA455080B2ADF806004FF47E60ADF840
:103D200008000020ADF80A00ADF80C0001208DF865
:103D3000110001A807F009FA002E71D001208DF8BA
:103D40000E0000208DF80F0001208DF8100046F0C5
:103D500040004005000CADF80400002141EA465047
:103D600080B2ADF806004FF47E60ADF80800002088
:103D7000ADF80A00ADF80C0001208DF8110001A883
:103D800007F0E3F9F7B302208DF80E0000208DF85C
:103D90000F0001208DF8100047F040004005000C96
:103DA000ADF80400002141EA475080B2ADF80600AA
:103DB0004FF47E60ADF808000020ADF80A00ADF8C1
:103DC0000C0001208DF8110001A807F0BEF9B8F130
:103DD000000F25D003208DF80E0000208DF80F0075
:103DE00001208DF8100048F040004005000CADF8AF
:103DF0000400002141EA485080B2ADF806004FF4BB
:103E00007E6000E00CE0ADF808000020ADF80A008C
:103E1000ADF80C0001208DF8110001A807F095F90C
:103E200001220221324807F08FFC0120D8E62DE95B
:103E3000F04105460E4617464FF000082D48056034
:103E400000202C4948600872487208468772002496
:103E500004E0315D27480B300155641C082CF8D371
:103E60002449234807F060FA8046B8F1040F02D1D4
:103E70000020BDE8F081002406E001230022114665
:103E80001046FFF77DF9641C4146194807F0E4FA33
:103E9000012801D00A2CF0D30A2C01D30020E8E736
:103EA0000120E6E710B501220221114807F04CFC81
:103EB00010BD10B5002202210D4807F045FC10BDD1
:103EC0000EB50D4A00210A4807F023FB0A481330BB
:103ED000A0F108014A1E8B1ECDE900210290CA1EE6
:103EE000C91F133803F0F9FC0EBD000000080140A3
:103EF00000640040882200209C22002010B501218F
:103F00001D4807F036FF012010BD10B502464FF0E6
:103F1000E020006920F004004FF0E024206110460A
:103F2000D41702EB5474E310144890FBF1F04343B0
:103F30004FF0E020006940F002004FF0E0242061E3
:103F400020464361006940F001002061012010BD5E
:103F5000012080F3138800BF00BF0948006800F407
:103F6000E06008490843001D05490860BFF34F8F12
:103F700000BF00BFFEE700000002300040420F001B
:103F80000CED00E00000FA052DE9F04105468846F9
:103F900016461F460621012009F0BFF8044614B951
:103FA0000020BDE8F081012D04DB204609F014FE5D
:103FB0000020F6E72F4850F8250030B1204609F0E0
:103FC0000BFE2C4850F8254002E02A4840F82540D6
:103FD000A57084F803802671677101223946304646
:103FE000FFF79EFBE07838B9002060706278617955
:103FF0002079FFF7E0FC06E00120607062786179CB
:104000002079FFF7D8FC022020702046C9E710B5C0
:104010000446E07838B901206070627861792079CF
:10402000FFF7C9FC06E000206070627861792079B2
:10403000FFF7C1FC0120207010BD10B50446E078E8
:1040400038B900206070627861792079FFF7B3FC9D
:1040500006E001206070627861792079FFF7ABFC9F
:104060000220207010BD01460878012800D1704759
:104070000020FCE7680000202DE9F04705460F46C8
:1040800090461E46DDF820900721012009F045F8F2
:10409000044614B90020BDE8F0870A2D04DB204651
:1040A00009F09AFD0020F6E74E4850F8250030B19F
:1040B000204609F091FD4B4850F8254002E0494860
:1040C00040F82540A570E77084F80480667184F894
:1040D0000690012249463046FFF722FBE07810B9EE
:1040E0000220207001E001202070207938B90020E2
:1040F00060706278A1796079FFF75DFC06E00120CD
:1041000060706278A1796079FFF755FC2046C2E7BC
:1041100010B50446E07848B9207938B901206070BC
:104120006278A1796079FFF746FC20E0E07850B929
:104130002079012807D1002060706278A179607928
:10414000FFF739FC13E0E078012809D1207938B96C
:10415000002060706278A1796079FFF72CFC06E09E
:10416000012060706278A1796079FFF724FC01205A
:10417000207010BD10B50446E07848B9207938B9F0
:10418000002060706278A1796079FFF714FC1FE06D
:10419000E07848B92079012806D160706278A17969
:1041A0006079FFF708FC13E0E078012809D1207955
:1041B00038B9012060706278A1796079FFF7FBFB64
:1041C00006E0002060706278A1796079FFF7F3FB68
:1041D0000220207010BD01460878012800D17047E8
:1041E0000020FCE7B02200202DE9F84F05460F46DD
:1041F00090461E46DDE90CABDDF82C901421012021
:1042000008F08BFF044614B90020BDE8F88F082D94
:1042100004DB204609F0E0FC0020F6E7974850F860
:10422000250030B1204609F0D7FC944850F82540CD
:1042300002E0924840F825402571677184F80680B5
:10424000A6600A98207384F80D9008224FF47A71C2
:104250004846FFF775F984F80EA084F80FB00122E4
:1042600059465046FFF75CFA0E9820740F98607418
:104270000122DDE90E01FFF753FA02202070002031
:104280006070A07938B90020A070A278E17BA07B93
:10429000FFF791FB06E00120A070A278E17BA07BF4
:1042A000FFF789FB617C207C0122FFF784FB7448C7
:1042B000B0FBF6F00090607B0099FFF7B2F9204662
:1042C000A3E710B50446A07938B90120A070A27800
:1042D000E17BA07BFFF76FFB06E00020A070A278D7
:1042E000E17BA07BFFF767FB10BD70B5044620465D
:1042F000FFF7E7FF6249A068B1FBF0F5607B294654
:10430000FFF78FF9607BFFF796F9617C207C002234
:10431000FFF751FB0120207070BD10B50446A07955
:1043200038B90020A070A278E17BA07BFFF743FBA7
:1043300006E00120A070A278E17BA07BFFF73BFBA9
:1043400010BD10B504462046FFF7E7FF607BFFF77E
:104350007BF9617C207C0122FFF72DFB022020707D
:1043600010BD01460878012800D170470020FCE705
:1043700010B504460120E070E278617C207CFFF7F4
:104380001AFB10BD10B504460020E070E278617C95
:10439000207CFFF710FB10BD10B500246BE03749FF
:1043A00051F82400FFF7DDFF002862D0334850F8B1
:1043B00024004079012802D0022858D124E02F4857
:1043C00050F824004078401C2C4951F824104870C3
:1043D0002A4850F824004078284951F82410097BD5
:1043E000884205D1254951F82400FFF796FF0AE0DD
:1043F000224850F824004078642804DB1F4951F813
:104400002400FFF75EFF33E01C4850F8240040789A
:10441000401C1A4951F824104870184850F82400DC
:10442000007B052190FBF1F0144951F824104978E4
:10443000884205DB114951F82400FFF7A3FF15E07E
:104440000E4850F82400407814280FDC0B4951F82E
:104450002400FFF78DFF094850F824004078142805
:1044600004D10020054951F82410487000E000BF35
:1044700000BF601CC4B2082C91DB10BDD822002004
:104480000024F4002DE9F04105460E4617469846F3
:104490001421012008F041FE044614B90020BDE8B3
:1044A000F081042D04DB204609F096FB0020F6E79E
:1044B000634850F8250030B1204609F08DFB604874
:1044C00050F8254002E05E4840F8254025746674A7
:1044D000A77484F81380012241463846FFF720F97B
:1044E00008224FF47A713046FFF72AF80020A060C6
:1044F000E06020706070606063780BB1012300E0C1
:1045000000231A46E17CA07CFFF755FA2046C6E757
:1045100070B504460D461646207802280BD0A560DB
:10452000A06840006060E660607CE168FFF779F8B1
:104530000120207070BD0020FCE710B504462078F3
:10454000012806D102202070607CFFF774F801205A
:1045500010BD0020FCE710B504462078022812D1D7
:10456000607CFFF771F80020607063780BB1012365
:1045700000E000231A46E17CA07CFFF71CFA012032
:104580002070606810BD0020FCE710B5044620785C
:10459000022816D1607808B9012000E00020607080
:1045A00063780BB1012300E000231A46E17CA07C74
:1045B000FFF701FA6068401E606010B92046FFF7FF
:1045C000CAFF207810BD10B51D48006848B11C49CD
:1045D0000868FFF7DAFF022803D01949086800F0DD
:1045E0009BFB10BD10B51648406848B11449486897
:1045F000FFF7CBFF022803D01149486800F08CFB7D
:1046000010BD10B50E48806848B10D498868FFF7A5
:10461000BCFF022803D00A49886800F07DFB10BD6A
:1046200010B50748C06848B10549C868FFF7ADFF35
:10463000022803D00249C86800F06EFB10BD0000DC
:10464000F82200202DE9F04F91B083460C469246A7
:1046500000BF00BF00BF00BF00BF4FF00009BAF1AC
:10466000000F04D0E068012801D9206910B911B009
:10467000BDE8F08F206908F024FFF949089008F0A0
:104680005AFD099008F078FF05460E462A46334643
:104690000020F44908F0A6FECDE9080109F05AF916
:1046A00007468846E06808F022FF2A463346CDE9EF
:1046B000060108F097FE81F00041CDE9080109F0FC
:1046C00049F9CDE90E0138464146DDE90E2308F0EF
:1046D00011FECDE90801D4E90021881A08F007FF8E
:1046E000CDE90601DDE9082308F07CFECDE90A01E9
:1046F0003A464346DDE90A0108F002FECDE9080129
:10470000206808F0F4FECDE90601DDE9082308F091
:1047100050FDCDE90C014FF000092CE009F101003A
:10472000404208F0D3FE2A463346CDE9000108F0A6
:1047300059FECDE9020109F00DF9CDE90401DDE9E9
:104740000A2308F0DDFDCDE90601DDE90C2308F0C0
:10475000D4FDCDE9080108F0F6FE4AF829005AF820
:104760002900400000FB0BF0BF49B1FBF0F04AF814
:10477000290009F10109E0684845CFD800BF76E774
:1047800070B504460025C82C01DD002070BD042151
:10479000204608F0C2FC05462846F7E770B50446F7
:1047A0000D460821284608F0B8FC6060606810B922
:1047B0000020207070BD25706068FBE72DE9F05F78
:1047C0000546884616461F46DDE90BABDDF8289006
:1047D0007021012008F0A1FC044614B90020BDE8B6
:1047E000F09F042D04DB204609F0F6F90020F6E7DF
:1047F0009E4850F8250030B1204609F0EDF99B485D
:1048000050F8254002E0994840F8254035B1012D87
:104810000CD0022D12D0032D20D117E05A460021D2
:1048200008460D9BFFF72EFEA0641CE05A460121AE
:1048300008460D9BFFF726FEA06414E05A460221AD
:1048400008460D9BFFF71EFEA0640CE05A460321AC
:1048500008460D9BFFF716FEA06404E0204609F011
:10486000BBF90020BBE700BF04F8405F6670A7708B
:10487000012239463046FEF753FF84F8039084F84E
:1048800004A0012251464846FEF74AFF012000EBF2
:10489000450000EB8000764901EB8000E060680095
:1048A00000EB800001EB8000206184F82C80403C0C
:1048B000A06D50B9022104F15400FFF76FFF20B939
:1048C000204609F089F9002089E7206E50B90221BD
:1048D00004F15C00FFF762FF20B9204609F07CF983
:1048E00000207CE7606E60B9E16C898988B2FFF7CF
:1048F00047FF6066606E20B9204609F06DF9002020
:104900006DE794F86C00626EE16CFFF79BFEA06EA1
:1049100060B9216D898988B2FFF732FFA066A06E69
:1049200020B9204609F058F9002058E794F86C00A7
:10493000A26E216DFFF786FE002020756075A061D4
:10494000E0612062606284F82800E06220636063B6
:10495000A063E06320706060A060E0602061237D60
:104960000BB1012300E000231A4694F8421094F89A
:104970004100FFF720F8637D0BB1012300E0002325
:104980001A4694F8441094F84300FFF714F82046B0
:1049900025E730B501460022002000230C78012CC9
:1049A00002D101F1540401E001F15C04234600222C
:1049B0000CE05C6854F832404D68AC4204D35C684B
:1049C00004EBC204606804E0541CE2B21C78944218
:1049D000EFDC00BF30BD70B504462078052852D208
:1049E000DFE800F03103101926002046FFF7D1FF61
:1049F00005466368216A51F823202946A06CFFF719
:104A000087FD41E06568236A53F82520A16BA06CFF
:104A1000FFF77EFD38E02046FFF7BBFF05466368E1
:104A2000616A51F823202946A06CFFF771FD2BE045
:104A3000A06928B1D4E90612A06CFFF769FD23E054
:104A40000020207000BF204601F0F1F9A06CFFF7B4
:104A500082FD00206075637D63B101230BE00000DF
:104A60000000C8420000F0BF00127A0008230020B6
:104A70006C00002000231A4694F8441094F8430078
:104A8000FEF799FF70BDFDE700BFA06CFFF755FD75
:104A900000BFF7E710B5044694F85C00884201DCDB
:104AA000002010BD206E40F83120206E00EBC100C8
:104AB00043600120F5E710B5044694F8540088429D
:104AC00001DC002010BDA06D40F83120A06D00EB8E
:104AD000C10043600120F5E72DE9F04104460E4690
:104AE00017460025012F03D1E56C606E206202E0BD
:104AF000256DA06E206294F8280060B1012200218B
:104B00002046E36AFFF7D7FF01212046D5E90232AC
:104B1000FFF7D1FF05E000212046D5E90232FFF77B
:104B2000CAFF7000A96801EB8101B0FBF1F8E868E9
:104B3000404501D2E86800E040462063206B012830
:104B400002D9206B401E00E000202063206B400053
:104B5000A9684843B04206D2206B4000A96800FB18
:104B60001160A06301E00120A063206B6063206AF4
:104B70006062606BA9684843E06300212046D5E984
:104B80000232FFF787FFBDE8F0812DE9F0410446CE
:104B90000D4616461F46DDF818806575637D0BB11E
:104BA000012300E000231A4694F8441094F84300CF
:104BB000FEF701FFA7610120207000206060A06067
:104BC000424631462046FFF787FF2046FFF703FFA6
:104BD000BDE8F0812DE9F04104460D4616461F461A
:104BE000DDF818806575637D0BB1012300E00023BB
:104BF0001A4694F8441094F84300FEF7DCFEF019CE
:104C0000A0610420207000206060A060C4F81C80B7
:104C10002046FFF7E0FEBDE8F08170B504460D4682
:104C200060686063A06E6062E563206D8368002148
:104C30002046626BFFF72EFF70BD2DE9F041044660
:104C40000D4616461F466575637D0BB1012300E0D6
:104C500000231A4694F8441094F84300FEF7ABFE84
:104C6000A761032020700020A06031462046FFF796
:104C7000D4FF2046FFF7AFFEBDE8F08110B5044633
:104C8000A06CFFF768FC607D48B9A06C8068A16CDF
:104C90004968A0EB510021690844206108E0A06C3C
:104CA0008068A16C4968A0EB51002169081A206155
:104CB00010BD80F82810C262704710B50446A06C81
:104CC000FFF749FC2078012806D002280DD00328E0
:104CD0000ED0042817D113E06068401C6060216B7F
:104CE000884201D30220207010E0032020700DE0E4
:104CF0006068401E6060002801DC0420207005E030
:104D00000020207002E00020207010BD00BF20466F
:104D1000FFF761FE2078F8E710B50446207C2949AA
:104D200051F82000407DB0B9207C51F82000806C03
:104D30008068217C234A52F82110896C4968A0EBD5
:104D40005100217C52F8211009690844217C52F855
:104D50002110086116E0207C1A4951F82000806C6F
:104D60008068217C174A52F82110896C4968A0EBB1
:104D70005100217C52F821100969081A217C52F84F
:104D800021100861207C30B1012809D002280CD004
:104D9000032814D10EE00B490868FFF78EFF0FE0DF
:104DA00008494868FFF789FF0AE006498868FFF765
:104DB00084FF05E00349C868FFF77FFF00E000BFFC
:104DC00000BF10BD0823002038B50446207890B1FC
:104DD000207801280FD0206DFFF750FF02202070AF
:104DE000206D806E00680090226D517D104600237A
:104DF0000122FFF7EFFE38BD10B5F849C868FFF78C
:104E0000E3FF10BDF8B504460025207803283CD107
:104E100094F84B1094F84A00FEF7BCFD94F8261065
:104E2000884232D1E06810B1E068401EE060E0687E
:104E300058BB206DFFF722FF6068002801DB0146A8
:104E400000E0414294F8282091FBF2F302FB131199
:104E5000CDB202202070206D806E00680090236D1E
:104E60005B7D94F82460B34202D063691B6A01E061
:104E700063695B6A94F82860771B03FB0672236DF5
:104E8000597D18460023FFF7A5FEF8BDF8B5044686
:104E900000252078032846D1206DFFF7EFFE94F817
:104EA0004B1094F84A00FEF775FD94F826108842DE
:104EB00039D194F82810606890FBF1F201FB1200E0
:104EC000C5B202202070607E042812D1206D0078C7
:104ED00002280ED1236DDB6C9B68266DF66CF6689C
:104EE00003FB06F2236D597D18462B46FFF7A5FEFE
:104EF00019E0206D806E00680090236D5B7D94F852
:104F00002460B34202D063691B6A01E063695B6A93
:104F100094F82860771B03FB0672236D597D1846B1
:104F20000023FFF757FEF8BD10B5AC48C068407EBF
:104F3000012809D0A948C068407E022804D0A748AB
:104F4000C068407E042804D1A449C868FFF79EFFCA
:104F500012E0A248C068407E032809D09F48C0687C
:104F6000407E052804D09D48C068407E062803D1B5
:104F70009A49C868FFF746FF10BDF8B504460025FA
:104F80002078012837D1206DFFF778FE94F849107A
:104F900094F84800FEF7FEFC94F8251088421DD1D5
:104FA00094F82810606890FBF1F201FB1200C5B282
:104FB00002202070206D806E0068009094F82830E8
:104FC0005B1BE669366894F8287006FB0732236D90
:104FD000597D18460023FFF7FDFD0CE002202070EC
:104FE000206D806E00680090226D517D1046002378
:104FF0000A22FFF7EFFDF8BD10B57849C868FFF742
:10500000BCFF10BD10B575498868FFF7DDFE10BD07
:1050100010B572488068407E012809D06F488068CA
:10502000407E022804D06D488068407E042804D168
:105030006A498868FFF72AFF12E068488068407E66
:10504000032809D065488068407E052804D063485D
:105050008068407E062803D160498868FFF7D2FE49
:1050600010BD10B55D498868FFF787FF10BD10B50A
:105070005A494868FFF7A8FE10BD10B55748406868
:10508000407E012809D055484068407E022804D05F
:1050900052484068407E042804D150494868FFF7D0
:1050A000F5FE12E04D484068407E032809D04B4889
:1050B0004068407E052804D048484068407E062865
:1050C00003D146494868FFF79DFE10BD10B543491E
:1050D0004868FFF752FF10BD10B540490868FFF758
:1050E00073FE10BD10B53D480068407E012809D010
:1050F0003A480068407E022804D038480068407E64
:10510000042804D135490868FFF7C0FE12E033488F
:105110000068407E032809D030480068407E05289A
:1051200004D02E480068407E062803D12B49086829
:10513000FFF768FE10BD10B528490868FFF71DFF8E
:1051400010BD2DE9F0478AB0814615461E4699F8F4
:10515000280008F0CCF9CDE90601D9E90C733A46EC
:1051600000201F4908F03EF9CDE90201D9E90E738C
:105170003A462846314608F035F9CDE90001DDE927
:10518000022308F0BDF8CDE90401DDE9062308F0AB
:10519000B7F8CDE9080108F0B7F90446002C01DCA6
:1051A000012000E00020824699F82810201E01DB33
:1051B000024600E0424299F8283092FBF3F703FBE5
:1051C000172201EBD173B2EB630F23DBBAF1000FAF
:1051D00012D1201E06DB014605E000001823002046
:1051E00000807640414299F8282091FBF2F302FBBF
:1051F0001311511A0C4429E0201E01DB014600E086
:10520000414299F8282091FBF2F302FB1311511A45
:10521000641A1BE0BAF1000F0CD1201E01DB01461D
:1052200000E0414299F8282091FBF2F302FB1311B0
:10523000641A0BE0201E01DB014600E0414299F8B0
:10524000282091FBF2F302FB13110C4420460AB014
:10525000BDE8F0872DE9FF5F84B005461746984604
:1052600023AE96E8400E5821012007F056FF044671
:105270001CB9002008B0BDE8F09F042D04DB2046D7
:1052800008F0AAFC0020F5E7F74850F8250030B1F7
:10529000204608F0A1FCF44850F8254002E0F2480E
:1052A00040F8254035B1012D0ED0022D16D0032D2A
:1052B00028D11DE08DE8400E0020DDE9212305996D
:1052C000FFF77CFA206522E08DE8400E0120DDE941
:1052D00021230599FFF772FA206518E08DE8400E4A
:1052E0000220DDE921230599FFF768FA20650EE029
:1052F0008DE8400E0320DDE921230599FFF75EFAD2
:10530000206504E0204608F067FC0020B2E700BFFB
:1053100004F8185F16986070D44800EB8500606050
:1053200005EBC50000EB0510D14901EB0010A060B2
:1053300017982073189860731998A0731A98E073DF
:1053400005982074C4E90678DDE91201C4E9080172
:10535000183C2046DDE91423FFF7F3FE2064606C5F
:1053600018B90020FDF78EF860641B9804F8480F08
:105370001C986070DDE91B01FEF726FA1D98A070ED
:105380001E98E070DDE91D01FEF71EFA1F982071DE
:1053900020986071DDE91F01FEF716FA14F8300C51
:1053A000483C30B1012826D0022846D003287DD1C0
:1053B00065E094F84900102806D0AFF2852094F8F3
:1053C0004910AC4A42F8210094F84B00102806D04E
:1053D000AFF2EF2094F84B10A64A42F8210094F85F
:1053E0004D00102806D0AFF20F3094F84D10A14AAE
:1053F00042F8210068E094F84900102806D0AFF286
:10540000333094F849109B4A42F8210094F84B003D
:10541000102806D0AFF29D3094F84B10954A42F810
:10542000210094F84D00102806D0AFF2BD3094F85A
:105430004D10904A42F8210046E094F849001028A7
:1054400006D0AFF2E13094F849108A4A42F82100C0
:1054500094F84B00102806D0AFF24B4094F84B1054
:10546000844A42F8210094F84D00102806D0AFF28B
:105470006B4094F84D107F4A42F8210024E094F8E4
:105480004900102806D0AFF28F4094F84910794AAD
:1054900042F8210094F84B00102806D0AFF2775064
:1054A00094F84B10734A42F8210000E00BE094F8A6
:1054B0004D00102806D0AFF2BF6094F84D106D4A31
:1054C00042F8210000E000BF00BF002020616061C1
:1054D00020706060A060E0602046CBE62DE9FF5FB1
:1054E0000446894615469A460E9E00200390029077
:1054F00094F82400484518D0607E052811D06168D2
:105500004819002801DB014600E04142226C91422B
:1055100003D9FF2004B0BDE8F09F60682844A06074
:1055200019E060682844A06015E0607E05280FD06F
:105530006168481B002801DB014600E04142226C03
:10554000914201D9FF20E5E76068401BA06002E0BE
:105550006068401BA06026700F98E060022E02D1A8
:10556000002002902DE0012E09D1A068002801DB67
:10557000014600E04142226C511A029121E0607E16
:10558000052802D1206C02901BE06069D0E9067307
:105590003A462046FFF7D5FD074660694169006934
:1055A00002460B46CDE900012046FFF7CAFDA7EBF6
:1055B000000BBBF1000F01DB584601E0CBF100000E
:1055C0000290109830B1012841D002285FD0032802
:1055D0006FD165E0206DC06C8068216DC96CC968B1
:1055E0004843B5EB400F08D301200090206D2A46B8
:1055F0004946029BFFF7C9FA28E0206D006D8068DC
:10560000216D096DC9684843B5EB400F08D30020F0
:105610000090206D2A464946029BFFF7B6FA15E036
:10562000206D806E0068216D496E0968884203D242
:10563000206D806E006802E0206D406E0068009072
:10564000206D2A464946029BFFF7C4FA31E0206DDF
:10565000806E0068216D496E096888420CD2206D09
:10566000806E00680BE0000018230020100100206D
:105670002001002048220020206D406E006800902C
:10568000206D2A464946029BFFF7A4FA11E000204C
:105690000090206D2A464946029BFFF776FA08E003
:1056A00001200090206D2A464946029BFFF76DFAC3
:1056B00000BF00BF03AA5146606CFCF775FF0020D5
:1056C00020709DF80C0010B1206DFFF7D7FA94F808
:1056D000240020B9206D00694042606002E0206D26
:1056E000006960609DF80C0014E72DE9FF5F044637
:1056F0000E4615461F46DDE90F9ADDF838804FF05B
:10570000000B94F82800684303903B468DE800079F
:1057100031462046039AFFF7E1FE8346584604B01F
:10572000BDE8F09F2DE9FF5F04460D4616461F4673
:10573000DDE90E894FF0000A002003908346281E01
:1057400001DB014600E04142226C914203D9FF2077
:1057500004B0BDE8F09F6168681A002801DB0146CB
:1057600000E0414203916068281A02D594F824B001
:105770000DE06068281A002807DD94F8240008B9B5
:10578000012000E00020834601E05046E0E70BF0F6
:10579000FF0133468DE880032046039AFFF79EFE03
:1057A00082465046D4E72DE9FC5F04460D46164676
:1057B0001F46DDE90C894FF0000A94F8280000FB31
:1057C00005FB3B46324659462046CDE90089FFF7A6
:1057D000A9FF82465046BDE8FC9F2DE9F04F85B0F9
:1057E00006460F4614461D46DDE910ABDDE90E897D
:1057F0000020049022462B463046FFF7A2FC03907F
:1058000043468DE8000E39463046039AFFF766FEA0
:105810000490049805B0BDE8F08F2DE9FE4F0646D0
:1058200014461D460CAF97E880074FF0000B224648
:105830002B463046FFF785FC029043463A46CDE9B9
:10584000009A30460299FFF76DFF83465846BDE83F
:10585000FE8F2DE9FF5F04460D4693469946DDF81D
:105860003CA000200390002602906561D5E90273F8
:105870003A462046FFF765FC06466068301A03D5B5
:1058800094F8240002900FE06068301A002807DDC9
:1058900094F8240008B9012000E00020029003E001
:1058A000039804B0BDE8F09FB9F1020F03D0B9F13D
:1058B000030F16D100E016E094F8241002988142FC
:1058C00007D1D5E906733A462046FFF73AFC06466B
:1058D00006E0D5E904733A462046FFF732FC064657
:1058E00001E0FF20DDE700BF0E984B465A463146E7
:1058F000CDE9000A2046FFF715FF03900398D0E793
:105900002DE9FF4F85B004460F461546DDE91286A6
:1059100000200490814682466561B8F1020F03D0F1
:10592000B8F1030F44D108E0D5E902B35A46204646
:10593000FFF707FC00FB06F93EE0D5E902B35A4643
:105940002046FFF7FEFB00FB06F9A7B96169D1E924
:1059500002B35A462046FFF7F4FB8346606941696B
:10596000006902460B46CDE902012046FFF7E9FB3C
:10597000ABEB000A13E06069D0E902B35A46204657
:10598000FFF7DFFB83466069C169806902460B4609
:10599000CDE902012046FFF7D4FBABEB000ABAF1D8
:1059A000000001DB014600E04142A9EB010903E0F0
:1059B000FF2009B0BDE8F08F00BF1498CDE9008644
:1059C00002904A4639462046089BFFF787FD04901F
:1059D0000498EEE7FEB504460D46002694F84910FB
:1059E00094F84800FDF7D6FF94F82510884240D07F
:1059F000606868B901200021CDE90001029094F8A7
:105A000024102B462046226CFFF768FD06462AE04C
:105A1000607E05280FD10020606001200021CDE9C3
:105A20000001029094F824102B462046226CFFF7C8
:105A300055FD064617E000200122CDE90020029026
:105A40006768002F01DB384600E07842E3691B6895
:105A500094F828C003FB1C0294F824102B4620461F
:105A6000FFF73CFD064600206060216D0861A060E4
:105A700062E0606890B901200021CDE90001029048
:105A800094F82400226C08B9012000E000200146AF
:105A90002B462046FFF722FD064634E0607E0528AF
:105AA00014D10020606001200021CDE900010290A6
:105AB00094F82400226C08B9012000E0002001467F
:105AC0002B462046FFF70AFD06461CE00020012277
:105AD000CDE9002002906768002F01DB384600E026
